{
	"Begging/Begging.sol": {
		"Begging": {
			"abi": [
				{
					"inputs": [],
					"stateMutability": "nonpayable",
					"type": "constructor"
				},
				{
					"anonymous": false,
					"inputs": [
						{
							"indexed": false,
							"internalType": "address",
							"name": "from",
							"type": "address"
						},
						{
							"indexed": false,
							"internalType": "uint256",
							"name": "amount",
							"type": "uint256"
						}
					],
					"name": "Donate",
					"type": "event"
				},
				{
					"stateMutability": "payable",
					"type": "fallback"
				},
				{
					"inputs": [],
					"name": "END_HOUR",
					"outputs": [
						{
							"internalType": "uint256",
							"name": "",
							"type": "uint256"
						}
					],
					"stateMutability": "view",
					"type": "function"
				},
				{
					"inputs": [],
					"name": "START_HOUR",
					"outputs": [
						{
							"internalType": "uint256",
							"name": "",
							"type": "uint256"
						}
					],
					"stateMutability": "view",
					"type": "function"
				},
				{
					"inputs": [],
					"name": "donate",
					"outputs": [
						{
							"internalType": "uint256",
							"name": "",
							"type": "uint256"
						}
					],
					"stateMutability": "payable",
					"type": "function"
				},
				{
					"inputs": [],
					"name": "donationRank",
					"outputs": [
						{
							"components": [
								{
									"internalType": "address",
									"name": "account",
									"type": "address"
								},
								{
									"internalType": "uint256",
									"name": "amount",
									"type": "uint256"
								}
							],
							"internalType": "struct Begging.RankInfo[3]",
							"name": "",
							"type": "tuple[3]"
						}
					],
					"stateMutability": "view",
					"type": "function"
				},
				{
					"inputs": [
						{
							"internalType": "address",
							"name": "account",
							"type": "address"
						}
					],
					"name": "donations",
					"outputs": [
						{
							"internalType": "uint256",
							"name": "amount",
							"type": "uint256"
						}
					],
					"stateMutability": "view",
					"type": "function"
				},
				{
					"inputs": [
						{
							"internalType": "address",
							"name": "account",
							"type": "address"
						}
					],
					"name": "getDonation",
					"outputs": [
						{
							"internalType": "uint256",
							"name": "",
							"type": "uint256"
						}
					],
					"stateMutability": "view",
					"type": "function"
				},
				{
					"inputs": [],
					"name": "getUTCHour",
					"outputs": [
						{
							"internalType": "uint256",
							"name": "",
							"type": "uint256"
						}
					],
					"stateMutability": "view",
					"type": "function"
				},
				{
					"inputs": [],
					"name": "withdraw",
					"outputs": [],
					"stateMutability": "nonpayable",
					"type": "function"
				},
				{
					"stateMutability": "payable",
					"type": "receive"
				}
			],
			"devdoc": {
				"kind": "dev",
				"methods": {},
				"version": 1
			},
			"evm": {
				"assembly": "    /* \"Begging/Begging.sol\":2093:4658  contract Begging {... */\n  mstore(0x40, 0x80)\n    /* \"Begging/Begging.sol\":2359:2410  constructor() {... */\n  callvalue\n  dup1\n  iszero\n  tag_1\n  jumpi\n  revert(0x00, 0x00)\ntag_1:\n  pop\n    /* \"Begging/Begging.sol\":2392:2402  msg.sender */\n  caller\n    /* \"Begging/Begging.sol\":2384:2389  owner */\n  0x00\n  0x00\n    /* \"Begging/Begging.sol\":2384:2402  owner = msg.sender */\n  0x0100\n  exp\n  dup2\n  sload\n  dup2\n  0xffffffffffffffffffffffffffffffffffffffff\n  mul\n  not\n  and\n  swap1\n  dup4\n  0xffffffffffffffffffffffffffffffffffffffff\n  and\n  mul\n  or\n  swap1\n  sstore\n  pop\n    /* \"Begging/Begging.sol\":2093:4658  contract Begging {... */\n  dataSize(sub_0)\n  dup1\n  dataOffset(sub_0)\n  0x00\n  codecopy\n  0x00\n  return\nstop\n\nsub_0: assembly {\n        /* \"Begging/Begging.sol\":2093:4658  contract Begging {... */\n      mstore(0x40, 0x80)\n      jumpi(tag_1, lt(calldatasize, 0x04))\n      shr(0xe0, calldataload(0x00))\n      dup1\n      0x7b072a89\n      gt\n      tag_11\n      jumpi\n      dup1\n      0x7b072a89\n      eq\n      tag_7\n      jumpi\n      dup1\n      0xcc6cb19a\n      eq\n      tag_8\n      jumpi\n      dup1\n      0xed88c68e\n      eq\n      tag_9\n      jumpi\n      dup1\n      0xfe706580\n      eq\n      tag_10\n      jumpi\n      jump(tag_2)\n    tag_11:\n      dup1\n      0x3ccfd60b\n      eq\n      tag_3\n      jumpi\n      dup1\n      0x410a1d32\n      eq\n      tag_4\n      jumpi\n      dup1\n      0x46bd607e\n      eq\n      tag_5\n      jumpi\n      dup1\n      0x5987758c\n      eq\n      tag_6\n      jumpi\n      jump(tag_2)\n    tag_1:\n    tag_2:\n      stop\n        /* \"Begging/Begging.sol\":3392:3600  function withdraw() public onlyOwner {... */\n    tag_3:\n      callvalue\n      dup1\n      iszero\n      tag_16\n      jumpi\n      revert(0x00, 0x00)\n    tag_16:\n      pop\n      tag_17\n      tag_18\n      jump\t// in\n    tag_17:\n      stop\n        /* \"Begging/Begging.sol\":3608:3721  function getDonation(address account) external view returns(uint256) {... */\n    tag_4:\n      callvalue\n      dup1\n      iszero\n      tag_19\n      jumpi\n      revert(0x00, 0x00)\n    tag_19:\n      pop\n      tag_20\n      0x04\n      dup1\n      calldatasize\n      sub\n      dup2\n      add\n      swap1\n      tag_21\n      swap2\n      swap1\n      tag_22\n      jump\t// in\n    tag_21:\n      tag_23\n      jump\t// in\n    tag_20:\n      mload(0x40)\n      tag_24\n      swap2\n      swap1\n      tag_25\n      jump\t// in\n    tag_24:\n      mload(0x40)\n      dup1\n      swap2\n      sub\n      swap1\n      return\n        /* \"Begging/Begging.sol\":2977:3087  function getUTCHour() public view returns (uint256) {... */\n    tag_5:\n      callvalue\n      dup1\n      iszero\n      tag_26\n      jumpi\n      revert(0x00, 0x00)\n    tag_26:\n      pop\n      tag_27\n      tag_28\n      jump\t// in\n    tag_27:\n      mload(0x40)\n      tag_29\n      swap2\n      swap1\n      tag_25\n      jump\t// in\n    tag_29:\n      mload(0x40)\n      dup1\n      swap2\n      sub\n      swap1\n      return\n        /* \"Begging/Begging.sol\":2119:2157  uint256 public constant START_HOUR = 8 */\n    tag_6:\n      callvalue\n      dup1\n      iszero\n      tag_30\n      jumpi\n      revert(0x00, 0x00)\n    tag_30:\n      pop\n      tag_31\n      tag_32\n      jump\t// in\n    tag_31:\n      mload(0x40)\n      tag_33\n      swap2\n      swap1\n      tag_25\n      jump\t// in\n    tag_33:\n      mload(0x40)\n      dup1\n      swap2\n      sub\n      swap1\n      return\n        /* \"Begging/Begging.sol\":2164:2200  uint256 public constant END_HOUR = 8 */\n    tag_7:\n      callvalue\n      dup1\n      iszero\n      tag_34\n      jumpi\n      revert(0x00, 0x00)\n    tag_34:\n      pop\n      tag_35\n      tag_36\n      jump\t// in\n    tag_35:\n      mload(0x40)\n      tag_37\n      swap2\n      swap1\n      tag_25\n      jump\t// in\n    tag_37:\n      mload(0x40)\n      dup1\n      swap2\n      sub\n      swap1\n      return\n        /* \"Begging/Begging.sol\":2418:2478  mapping (address account => uint256 amount) public donations */\n    tag_8:\n      callvalue\n      dup1\n      iszero\n      tag_38\n      jumpi\n      revert(0x00, 0x00)\n    tag_38:\n      pop\n      tag_39\n      0x04\n      dup1\n      calldatasize\n      sub\n      dup2\n      add\n      swap1\n      tag_40\n      swap2\n      swap1\n      tag_22\n      jump\t// in\n    tag_40:\n      tag_41\n      jump\t// in\n    tag_39:\n      mload(0x40)\n      tag_42\n      swap2\n      swap1\n      tag_25\n      jump\t// in\n    tag_42:\n      mload(0x40)\n      dup1\n      swap2\n      sub\n      swap1\n      return\n        /* \"Begging/Begging.sol\":3095:3355  function donate() public payable timeCheck returns (uint256) {... */\n    tag_9:\n      tag_43\n      tag_44\n      jump\t// in\n    tag_43:\n      mload(0x40)\n      tag_45\n      swap2\n      swap1\n      tag_25\n      jump\t// in\n    tag_45:\n      mload(0x40)\n      dup1\n      swap2\n      sub\n      swap1\n      return\n        /* \"Begging/Begging.sol\":3729:3829  function donationRank() external view returns(RankInfo[3] memory) {... */\n    tag_10:\n      callvalue\n      dup1\n      iszero\n      tag_46\n      jumpi\n      revert(0x00, 0x00)\n    tag_46:\n      pop\n      tag_47\n      tag_48\n      jump\t// in\n    tag_47:\n      mload(0x40)\n      tag_49\n      swap2\n      swap1\n      tag_50\n      jump\t// in\n    tag_49:\n      mload(0x40)\n      dup1\n      swap2\n      sub\n      swap1\n      return\n        /* \"Begging/Begging.sol\":3392:3600  function withdraw() public onlyOwner {... */\n    tag_18:\n        /* \"Begging/Begging.sol\":2542:2547  owner */\n      0x00\n      0x00\n      swap1\n      sload\n      swap1\n      0x0100\n      exp\n      swap1\n      div\n      0xffffffffffffffffffffffffffffffffffffffff\n      and\n        /* \"Begging/Begging.sol\":2528:2547  msg.sender == owner */\n      0xffffffffffffffffffffffffffffffffffffffff\n      and\n        /* \"Begging/Begging.sol\":2528:2538  msg.sender */\n      caller\n        /* \"Begging/Begging.sol\":2528:2547  msg.sender == owner */\n      0xffffffffffffffffffffffffffffffffffffffff\n      and\n      eq\n        /* \"Begging/Begging.sol\":2519:2569  require (msg.sender == owner, \"not private owner\") */\n      tag_52\n      jumpi\n      mload(0x40)\n      0x08c379a000000000000000000000000000000000000000000000000000000000\n      dup2\n      mstore\n      0x04\n      add\n      tag_53\n      swap1\n      tag_54\n      jump\t// in\n    tag_53:\n      mload(0x40)\n      dup1\n      swap2\n      sub\n      swap1\n      revert\n    tag_52:\n        /* \"Begging/Begging.sol\":3440:3455  uint256 balance */\n      0x00\n        /* \"Begging/Begging.sol\":3458:3479  address(this).balance */\n      selfbalance\n        /* \"Begging/Begging.sol\":3440:3479  uint256 balance = address(this).balance */\n      swap1\n      pop\n        /* \"Begging/Begging.sol\":3493:3505  bool success */\n      0x00\n        /* \"Begging/Begging.sol\":3519:3524  owner */\n      0x00\n      0x00\n      swap1\n      sload\n      swap1\n      0x0100\n      exp\n      swap1\n      div\n      0xffffffffffffffffffffffffffffffffffffffff\n      and\n        /* \"Begging/Begging.sol\":3511:3530  payable(owner).call */\n      0xffffffffffffffffffffffffffffffffffffffff\n      and\n        /* \"Begging/Begging.sol\":3538:3545  balance */\n      dup3\n        /* \"Begging/Begging.sol\":3511:3550  payable(owner).call{value: balance}(\"\") */\n      mload(0x40)\n      tag_56\n      swap1\n      tag_57\n      jump\t// in\n    tag_56:\n      0x00\n      mload(0x40)\n      dup1\n      dup4\n      sub\n      dup2\n      dup6\n      dup8\n      gas\n      call\n      swap3\n      pop\n      pop\n      pop\n      returndatasize\n      dup1\n      0x00\n      dup2\n      eq\n      tag_60\n      jumpi\n      mload(0x40)\n      swap2\n      pop\n      and(add(returndatasize, 0x3f), not(0x1f))\n      dup3\n      add\n      0x40\n      mstore\n      returndatasize\n      dup3\n      mstore\n      returndatasize\n      0x00\n      0x20\n      dup5\n      add\n      returndatacopy\n      jump(tag_59)\n    tag_60:\n      0x60\n      swap2\n      pop\n    tag_59:\n      pop\n        /* \"Begging/Begging.sol\":3492:3550  (bool success, ) = payable(owner).call{value: balance}(\"\") */\n      pop\n      swap1\n      pop\n        /* \"Begging/Begging.sol\":3569:3576  success */\n      dup1\n        /* \"Begging/Begging.sol\":3561:3592  require(success, \"Call failed\") */\n      tag_61\n      jumpi\n      mload(0x40)\n      0x08c379a000000000000000000000000000000000000000000000000000000000\n      dup2\n      mstore\n      0x04\n      add\n      tag_62\n      swap1\n      tag_63\n      jump\t// in\n    tag_62:\n      mload(0x40)\n      dup1\n      swap2\n      sub\n      swap1\n      revert\n    tag_61:\n        /* \"Begging/Begging.sol\":3429:3600  {... */\n      pop\n      pop\n        /* \"Begging/Begging.sol\":3392:3600  function withdraw() public onlyOwner {... */\n      jump\t// out\n        /* \"Begging/Begging.sol\":3608:3721  function getDonation(address account) external view returns(uint256) {... */\n    tag_23:\n        /* \"Begging/Begging.sol\":3668:3675  uint256 */\n      0x00\n        /* \"Begging/Begging.sol\":3695:3704  donations */\n      0x07\n        /* \"Begging/Begging.sol\":3695:3713  donations[account] */\n      0x00\n        /* \"Begging/Begging.sol\":3705:3712  account */\n      dup4\n        /* \"Begging/Begging.sol\":3695:3713  donations[account] */\n      0xffffffffffffffffffffffffffffffffffffffff\n      and\n      0xffffffffffffffffffffffffffffffffffffffff\n      and\n      dup2\n      mstore\n      0x20\n      add\n      swap1\n      dup2\n      mstore\n      0x20\n      add\n      0x00\n      keccak256\n      sload\n        /* \"Begging/Begging.sol\":3688:3713  return donations[account] */\n      swap1\n      pop\n        /* \"Begging/Begging.sol\":3608:3721  function getDonation(address account) external view returns(uint256) {... */\n      swap2\n      swap1\n      pop\n      jump\t// out\n        /* \"Begging/Begging.sol\":2977:3087  function getUTCHour() public view returns (uint256) {... */\n    tag_28:\n        /* \"Begging/Begging.sol\":3020:3027  uint256 */\n      0x00\n        /* \"Begging/Begging.sol\":3075:3079  3600 */\n      0x0e10\n        /* \"Begging/Begging.sol\":3066:3071  86400 */\n      0x015180\n        /* \"Begging/Begging.sol\":3048:3063  block.timestamp */\n      timestamp\n        /* \"Begging/Begging.sol\":3048:3071  block.timestamp % 86400 */\n      tag_66\n      swap2\n      swap1\n      tag_67\n      jump\t// in\n    tag_66:\n        /* \"Begging/Begging.sol\":3047:3079  (block.timestamp % 86400) / 3600 */\n      tag_68\n      swap2\n      swap1\n      tag_69\n      jump\t// in\n    tag_68:\n        /* \"Begging/Begging.sol\":3040:3079  return (block.timestamp % 86400) / 3600 */\n      swap1\n      pop\n        /* \"Begging/Begging.sol\":2977:3087  function getUTCHour() public view returns (uint256) {... */\n      swap1\n      jump\t// out\n        /* \"Begging/Begging.sol\":2119:2157  uint256 public constant START_HOUR = 8 */\n    tag_32:\n        /* \"Begging/Begging.sol\":2156:2157  8 */\n      0x08\n        /* \"Begging/Begging.sol\":2119:2157  uint256 public constant START_HOUR = 8 */\n      dup2\n      jump\t// out\n        /* \"Begging/Begging.sol\":2164:2200  uint256 public constant END_HOUR = 8 */\n    tag_36:\n        /* \"Begging/Begging.sol\":2199:2200  8 */\n      0x08\n        /* \"Begging/Begging.sol\":2164:2200  uint256 public constant END_HOUR = 8 */\n      dup2\n      jump\t// out\n        /* \"Begging/Begging.sol\":2418:2478  mapping (address account => uint256 amount) public donations */\n    tag_41:\n      mstore(0x20, 0x07)\n      dup1\n      0x00\n      mstore\n      keccak256(0x00, 0x40)\n      0x00\n      swap2\n      pop\n      swap1\n      pop\n      sload\n      dup2\n      jump\t// out\n        /* \"Begging/Begging.sol\":3095:3355  function donate() public payable timeCheck returns (uint256) {... */\n    tag_44:\n        /* \"Begging/Begging.sol\":3147:3154  uint256 */\n      0x00\n        /* \"Begging/Begging.sol\":2629:2648  uint256 currentHour */\n      0x00\n        /* \"Begging/Begging.sol\":2651:2663  getUTCHour() */\n      tag_71\n        /* \"Begging/Begging.sol\":2651:2661  getUTCHour */\n      tag_28\n        /* \"Begging/Begging.sol\":2651:2663  getUTCHour() */\n      jump\t// in\n    tag_71:\n        /* \"Begging/Begging.sol\":2629:2663  uint256 currentHour = getUTCHour() */\n      swap1\n      pop\n        /* \"Begging/Begging.sol\":2156:2157  8 */\n      0x08\n        /* \"Begging/Begging.sol\":2696:2707  currentHour */\n      dup2\n        /* \"Begging/Begging.sol\":2696:2721  currentHour >= START_HOUR */\n      lt\n      iszero\n        /* \"Begging/Begging.sol\":2696:2747  currentHour >= START_HOUR && currentHour < END_HOUR */\n      dup1\n      iszero\n      tag_72\n      jumpi\n      pop\n        /* \"Begging/Begging.sol\":2199:2200  8 */\n      0x08\n        /* \"Begging/Begging.sol\":2725:2736  currentHour */\n      dup2\n        /* \"Begging/Begging.sol\":2725:2747  currentHour < END_HOUR */\n      lt\n        /* \"Begging/Begging.sol\":2696:2747  currentHour >= START_HOUR && currentHour < END_HOUR */\n    tag_72:\n        /* \"Begging/Begging.sol\":2674:2823  require(... */\n      tag_73\n      jumpi\n      mload(0x40)\n      0x08c379a000000000000000000000000000000000000000000000000000000000\n      dup2\n      mstore\n      0x04\n      add\n      tag_74\n      swap1\n      tag_75\n      jump\t// in\n    tag_74:\n      mload(0x40)\n      dup1\n      swap2\n      sub\n      swap1\n      revert\n    tag_73:\n        /* \"Begging/Begging.sol\":3192:3201  msg.value */\n      callvalue\n        /* \"Begging/Begging.sol\":3167:3176  donations */\n      0x07\n        /* \"Begging/Begging.sol\":3167:3188  donations[msg.sender] */\n      0x00\n        /* \"Begging/Begging.sol\":3177:3187  msg.sender */\n      caller\n        /* \"Begging/Begging.sol\":3167:3188  donations[msg.sender] */\n      0xffffffffffffffffffffffffffffffffffffffff\n      and\n      0xffffffffffffffffffffffffffffffffffffffff\n      and\n      dup2\n      mstore\n      0x20\n      add\n      swap1\n      dup2\n      mstore\n      0x20\n      add\n      0x00\n      keccak256\n      0x00\n        /* \"Begging/Begging.sol\":3167:3201  donations[msg.sender] += msg.value */\n      dup3\n      dup3\n      sload\n      tag_77\n      swap2\n      swap1\n      tag_78\n      jump\t// in\n    tag_77:\n      swap3\n      pop\n      pop\n      dup2\n      swap1\n      sstore\n      pop\n        /* \"Begging/Begging.sol\":3219:3248  Donate(msg.sender, msg.value) */\n      0x0553260a2e46b0577270d8992db02d30856ca880144c72d6e9503760946aef13\n        /* \"Begging/Begging.sol\":3226:3236  msg.sender */\n      caller\n        /* \"Begging/Begging.sol\":3238:3247  msg.value */\n      callvalue\n        /* \"Begging/Begging.sol\":3219:3248  Donate(msg.sender, msg.value) */\n      mload(0x40)\n      tag_79\n      swap3\n      swap2\n      swap1\n      tag_80\n      jump\t// in\n    tag_79:\n      mload(0x40)\n      dup1\n      swap2\n      sub\n      swap1\n      log1\n        /* \"Begging/Begging.sol\":3261:3306  updateRank(msg.sender, donations[msg.sender]) */\n      tag_81\n        /* \"Begging/Begging.sol\":3272:3282  msg.sender */\n      caller\n        /* \"Begging/Begging.sol\":3284:3293  donations */\n      0x07\n        /* \"Begging/Begging.sol\":3284:3305  donations[msg.sender] */\n      0x00\n        /* \"Begging/Begging.sol\":3294:3304  msg.sender */\n      caller\n        /* \"Begging/Begging.sol\":3284:3305  donations[msg.sender] */\n      0xffffffffffffffffffffffffffffffffffffffff\n      and\n      0xffffffffffffffffffffffffffffffffffffffff\n      and\n      dup2\n      mstore\n      0x20\n      add\n      swap1\n      dup2\n      mstore\n      0x20\n      add\n      0x00\n      keccak256\n      sload\n        /* \"Begging/Begging.sol\":3261:3271  updateRank */\n      tag_82\n        /* \"Begging/Begging.sol\":3261:3306  updateRank(msg.sender, donations[msg.sender]) */\n      jump\t// in\n    tag_81:\n        /* \"Begging/Begging.sol\":3326:3335  donations */\n      0x07\n        /* \"Begging/Begging.sol\":3326:3347  donations[msg.sender] */\n      0x00\n        /* \"Begging/Begging.sol\":3336:3346  msg.sender */\n      caller\n        /* \"Begging/Begging.sol\":3326:3347  donations[msg.sender] */\n      0xffffffffffffffffffffffffffffffffffffffff\n      and\n      0xffffffffffffffffffffffffffffffffffffffff\n      and\n      dup2\n      mstore\n      0x20\n      add\n      swap1\n      dup2\n      mstore\n      0x20\n      add\n      0x00\n      keccak256\n      sload\n        /* \"Begging/Begging.sol\":3319:3347  return donations[msg.sender] */\n      swap2\n      pop\n        /* \"Begging/Begging.sol\":2618:2843  {... */\n      pop\n        /* \"Begging/Begging.sol\":3095:3355  function donate() public payable timeCheck returns (uint256) {... */\n      swap1\n      jump\t// out\n        /* \"Begging/Begging.sol\":3729:3829  function donationRank() external view returns(RankInfo[3] memory) {... */\n    tag_48:\n        /* \"Begging/Begging.sol\":3775:3793  RankInfo[3] memory */\n      tag_83\n      tag_84\n      jump\t// in\n    tag_83:\n        /* \"Begging/Begging.sol\":3813:3821  rankList */\n      0x01\n        /* \"Begging/Begging.sol\":3806:3821  return rankList */\n      0x03\n      dup1\n      0x20\n      mul\n      mload(0x40)\n      swap1\n      dup2\n      add\n      0x40\n      mstore\n      dup1\n      swap3\n      swap2\n      swap1\n      0x00\n      swap1\n    tag_86:\n      dup3\n      dup3\n      lt\n      iszero\n      tag_87\n      jumpi\n      dup4\n      dup3\n      0x02\n      mul\n      add\n      mload(0x40)\n      dup1\n      0x40\n      add\n      0x40\n      mstore\n      swap1\n      dup2\n      0x00\n      dup3\n      add\n      0x00\n      swap1\n      sload\n      swap1\n      0x0100\n      exp\n      swap1\n      div\n      0xffffffffffffffffffffffffffffffffffffffff\n      and\n      0xffffffffffffffffffffffffffffffffffffffff\n      and\n      0xffffffffffffffffffffffffffffffffffffffff\n      and\n      dup2\n      mstore\n      0x20\n      add\n      0x01\n      dup3\n      add\n      sload\n      dup2\n      mstore\n      pop\n      pop\n      dup2\n      mstore\n      0x20\n      add\n      swap1\n      0x01\n      add\n      swap1\n      jump(tag_86)\n    tag_87:\n      pop\n      pop\n      pop\n      pop\n      swap1\n      pop\n        /* \"Begging/Begging.sol\":3729:3829  function donationRank() external view returns(RankInfo[3] memory) {... */\n      swap1\n      jump\t// out\n        /* \"Begging/Begging.sol\":3857:4655  function updateRank(address account, uint256 amount) private {... */\n    tag_82:\n        /* \"Begging/Begging.sol\":3929:3954  RankInfo memory rankInfo1 */\n      0x00\n        /* \"Begging/Begging.sol\":3957:3965  rankList */\n      0x01\n        /* \"Begging/Begging.sol\":3966:3967  0 */\n      0x00\n        /* \"Begging/Begging.sol\":3957:3968  rankList[0] */\n      0x03\n      dup2\n      lt\n      tag_90\n      jumpi\n      tag_91\n      tag_92\n      jump\t// in\n    tag_91:\n    tag_90:\n      0x02\n      mul\n      add\n        /* \"Begging/Begging.sol\":3929:3968  RankInfo memory rankInfo1 = rankList[0] */\n      mload(0x40)\n      dup1\n      0x40\n      add\n      0x40\n      mstore\n      swap1\n      dup2\n      0x00\n      dup3\n      add\n      0x00\n      swap1\n      sload\n      swap1\n      0x0100\n      exp\n      swap1\n      div\n      0xffffffffffffffffffffffffffffffffffffffff\n      and\n      0xffffffffffffffffffffffffffffffffffffffff\n      and\n      0xffffffffffffffffffffffffffffffffffffffff\n      and\n      dup2\n      mstore\n      0x20\n      add\n      0x01\n      dup3\n      add\n      sload\n      dup2\n      mstore\n      pop\n      pop\n      swap1\n      pop\n        /* \"Begging/Begging.sol\":3992:4001  rankInfo1 */\n      dup1\n        /* \"Begging/Begging.sol\":3992:4008  rankInfo1.amount */\n      0x20\n      add\n      mload\n        /* \"Begging/Begging.sol\":3983:3989  amount */\n      dup3\n        /* \"Begging/Begging.sol\":3983:4008  amount > rankInfo1.amount */\n      gt\n        /* \"Begging/Begging.sol\":3983:4040  amount > rankInfo1.amount && rankInfo1.account != account */\n      dup1\n      iszero\n      tag_94\n      jumpi\n      pop\n        /* \"Begging/Begging.sol\":4033:4040  account */\n      dup3\n        /* \"Begging/Begging.sol\":4012:4040  rankInfo1.account != account */\n      0xffffffffffffffffffffffffffffffffffffffff\n      and\n        /* \"Begging/Begging.sol\":4012:4021  rankInfo1 */\n      dup2\n        /* \"Begging/Begging.sol\":4012:4029  rankInfo1.account */\n      0x00\n      add\n      mload\n        /* \"Begging/Begging.sol\":4012:4040  rankInfo1.account != account */\n      0xffffffffffffffffffffffffffffffffffffffff\n      and\n      eq\n      iszero\n        /* \"Begging/Begging.sol\":3983:4040  amount > rankInfo1.amount && rankInfo1.account != account */\n    tag_94:\n        /* \"Begging/Begging.sol\":3979:4207  if (amount > rankInfo1.amount && rankInfo1.account != account) {... */\n      iszero\n      tag_95\n      jumpi\n        /* \"Begging/Begging.sol\":4071:4096  RankInfo(account, amount) */\n      mload(0x40)\n      dup1\n      0x40\n      add\n      0x40\n      mstore\n      dup1\n        /* \"Begging/Begging.sol\":4080:4087  account */\n      dup5\n        /* \"Begging/Begging.sol\":4071:4096  RankInfo(account, amount) */\n      0xffffffffffffffffffffffffffffffffffffffff\n      and\n      dup2\n      mstore\n      0x20\n      add\n        /* \"Begging/Begging.sol\":4089:4095  amount */\n      dup4\n        /* \"Begging/Begging.sol\":4071:4096  RankInfo(account, amount) */\n      dup2\n      mstore\n      pop\n        /* \"Begging/Begging.sol\":4057:4065  rankList */\n      0x01\n        /* \"Begging/Begging.sol\":4066:4067  0 */\n      0x00\n        /* \"Begging/Begging.sol\":4057:4068  rankList[0] */\n      0x03\n      dup2\n      lt\n      tag_96\n      jumpi\n      tag_97\n      tag_92\n      jump\t// in\n    tag_97:\n    tag_96:\n      0x02\n      mul\n      add\n        /* \"Begging/Begging.sol\":4057:4096  rankList[0] = RankInfo(account, amount) */\n      0x00\n      dup3\n      add\n      mload\n      dup2\n      0x00\n      add\n      exp(0x0100, 0x00)\n      dup2\n      sload\n      dup2\n      0xffffffffffffffffffffffffffffffffffffffff\n      mul\n      not\n      and\n      swap1\n      dup4\n      0xffffffffffffffffffffffffffffffffffffffff\n      and\n      mul\n      or\n      swap1\n      sstore\n      pop\n      0x20\n      dup3\n      add\n      mload\n      dup2\n      0x01\n      add\n      sstore\n      swap1\n      pop\n      pop\n        /* \"Begging/Begging.sol\":4125:4133  rankList */\n      0x01\n        /* \"Begging/Begging.sol\":4134:4135  1 */\n      dup1\n        /* \"Begging/Begging.sol\":4125:4136  rankList[1] */\n      0x03\n      dup2\n      lt\n      tag_99\n      jumpi\n      tag_100\n      tag_92\n      jump\t// in\n    tag_100:\n    tag_99:\n      0x02\n      mul\n      add\n        /* \"Begging/Begging.sol\":4111:4119  rankList */\n      0x01\n        /* \"Begging/Begging.sol\":4120:4121  2 */\n      0x02\n        /* \"Begging/Begging.sol\":4111:4122  rankList[2] */\n      0x03\n      dup2\n      lt\n      tag_102\n      jumpi\n      tag_103\n      tag_92\n      jump\t// in\n    tag_103:\n    tag_102:\n      0x02\n      mul\n      add\n        /* \"Begging/Begging.sol\":4111:4136  rankList[2] = rankList[1] */\n      0x00\n      dup3\n      add\n      0x00\n      swap1\n      sload\n      swap1\n      0x0100\n      exp\n      swap1\n      div\n      0xffffffffffffffffffffffffffffffffffffffff\n      and\n      dup2\n      0x00\n      add\n      exp(0x0100, 0x00)\n      dup2\n      sload\n      dup2\n      0xffffffffffffffffffffffffffffffffffffffff\n      mul\n      not\n      and\n      swap1\n      dup4\n      0xffffffffffffffffffffffffffffffffffffffff\n      and\n      mul\n      or\n      swap1\n      sstore\n      pop\n      0x01\n      dup3\n      add\n      sload\n      dup2\n      0x01\n      add\n      sstore\n      swap1\n      pop\n      pop\n        /* \"Begging/Begging.sol\":4165:4174  rankInfo1 */\n      dup1\n        /* \"Begging/Begging.sol\":4151:4159  rankList */\n      0x01\n        /* \"Begging/Begging.sol\":4160:4161  1 */\n      dup1\n        /* \"Begging/Begging.sol\":4151:4162  rankList[1] */\n      0x03\n      dup2\n      lt\n      tag_105\n      jumpi\n      tag_106\n      tag_92\n      jump\t// in\n    tag_106:\n    tag_105:\n      0x02\n      mul\n      add\n        /* \"Begging/Begging.sol\":4151:4174  rankList[1] = rankInfo1 */\n      0x00\n      dup3\n      add\n      mload\n      dup2\n      0x00\n      add\n      exp(0x0100, 0x00)\n      dup2\n      sload\n      dup2\n      0xffffffffffffffffffffffffffffffffffffffff\n      mul\n      not\n      and\n      swap1\n      dup4\n      0xffffffffffffffffffffffffffffffffffffffff\n      and\n      mul\n      or\n      swap1\n      sstore\n      pop\n      0x20\n      dup3\n      add\n      mload\n      dup2\n      0x01\n      add\n      sstore\n      swap1\n      pop\n      pop\n        /* \"Begging/Begging.sol\":4189:4196  return; */\n      pop\n      jump(tag_89)\n        /* \"Begging/Begging.sol\":3979:4207  if (amount > rankInfo1.amount && rankInfo1.account != account) {... */\n    tag_95:\n        /* \"Begging/Begging.sol\":4219:4244  RankInfo memory rankInfo2 */\n      0x00\n        /* \"Begging/Begging.sol\":4247:4255  rankList */\n      0x01\n        /* \"Begging/Begging.sol\":4256:4257  1 */\n      dup1\n        /* \"Begging/Begging.sol\":4247:4258  rankList[1] */\n      0x03\n      dup2\n      lt\n      tag_108\n      jumpi\n      tag_109\n      tag_92\n      jump\t// in\n    tag_109:\n    tag_108:\n      0x02\n      mul\n      add\n        /* \"Begging/Begging.sol\":4219:4258  RankInfo memory rankInfo2 = rankList[1] */\n      mload(0x40)\n      dup1\n      0x40\n      add\n      0x40\n      mstore\n      swap1\n      dup2\n      0x00\n      dup3\n      add\n      0x00\n      swap1\n      sload\n      swap1\n      0x0100\n      exp\n      swap1\n      div\n      0xffffffffffffffffffffffffffffffffffffffff\n      and\n      0xffffffffffffffffffffffffffffffffffffffff\n      and\n      0xffffffffffffffffffffffffffffffffffffffff\n      and\n      dup2\n      mstore\n      0x20\n      add\n      0x01\n      dup3\n      add\n      sload\n      dup2\n      mstore\n      pop\n      pop\n      swap1\n      pop\n        /* \"Begging/Begging.sol\":4282:4291  rankInfo2 */\n      dup1\n        /* \"Begging/Begging.sol\":4282:4298  rankInfo2.amount */\n      0x20\n      add\n      mload\n        /* \"Begging/Begging.sol\":4273:4279  amount */\n      dup4\n        /* \"Begging/Begging.sol\":4273:4298  amount > rankInfo2.amount */\n      gt\n        /* \"Begging/Begging.sol\":4273:4330  amount > rankInfo2.amount && rankInfo2.account != account */\n      dup1\n      iszero\n      tag_111\n      jumpi\n      pop\n        /* \"Begging/Begging.sol\":4323:4330  account */\n      dup4\n        /* \"Begging/Begging.sol\":4302:4330  rankInfo2.account != account */\n      0xffffffffffffffffffffffffffffffffffffffff\n      and\n        /* \"Begging/Begging.sol\":4302:4311  rankInfo2 */\n      dup2\n        /* \"Begging/Begging.sol\":4302:4319  rankInfo2.account */\n      0x00\n      add\n      mload\n        /* \"Begging/Begging.sol\":4302:4330  rankInfo2.account != account */\n      0xffffffffffffffffffffffffffffffffffffffff\n      and\n      eq\n      iszero\n        /* \"Begging/Begging.sol\":4273:4330  amount > rankInfo2.amount && rankInfo2.account != account */\n    tag_111:\n        /* \"Begging/Begging.sol\":4269:4457  if (amount > rankInfo2.amount && rankInfo2.account != account) {... */\n      iszero\n      tag_112\n      jumpi\n        /* \"Begging/Begging.sol\":4361:4386  RankInfo(account, amount) */\n      mload(0x40)\n      dup1\n      0x40\n      add\n      0x40\n      mstore\n      dup1\n        /* \"Begging/Begging.sol\":4370:4377  account */\n      dup6\n        /* \"Begging/Begging.sol\":4361:4386  RankInfo(account, amount) */\n      0xffffffffffffffffffffffffffffffffffffffff\n      and\n      dup2\n      mstore\n      0x20\n      add\n        /* \"Begging/Begging.sol\":4379:4385  amount */\n      dup5\n        /* \"Begging/Begging.sol\":4361:4386  RankInfo(account, amount) */\n      dup2\n      mstore\n      pop\n        /* \"Begging/Begging.sol\":4347:4355  rankList */\n      0x01\n        /* \"Begging/Begging.sol\":4356:4357  1 */\n      dup1\n        /* \"Begging/Begging.sol\":4347:4358  rankList[1] */\n      0x03\n      dup2\n      lt\n      tag_113\n      jumpi\n      tag_114\n      tag_92\n      jump\t// in\n    tag_114:\n    tag_113:\n      0x02\n      mul\n      add\n        /* \"Begging/Begging.sol\":4347:4386  rankList[1] = RankInfo(account, amount) */\n      0x00\n      dup3\n      add\n      mload\n      dup2\n      0x00\n      add\n      exp(0x0100, 0x00)\n      dup2\n      sload\n      dup2\n      0xffffffffffffffffffffffffffffffffffffffff\n      mul\n      not\n      and\n      swap1\n      dup4\n      0xffffffffffffffffffffffffffffffffffffffff\n      and\n      mul\n      or\n      swap1\n      sstore\n      pop\n      0x20\n      dup3\n      add\n      mload\n      dup2\n      0x01\n      add\n      sstore\n      swap1\n      pop\n      pop\n        /* \"Begging/Begging.sol\":4415:4424  rankInfo2 */\n      dup1\n        /* \"Begging/Begging.sol\":4401:4409  rankList */\n      0x01\n        /* \"Begging/Begging.sol\":4410:4411  2 */\n      0x02\n        /* \"Begging/Begging.sol\":4401:4412  rankList[2] */\n      0x03\n      dup2\n      lt\n      tag_116\n      jumpi\n      tag_117\n      tag_92\n      jump\t// in\n    tag_117:\n    tag_116:\n      0x02\n      mul\n      add\n        /* \"Begging/Begging.sol\":4401:4424  rankList[2] = rankInfo2 */\n      0x00\n      dup3\n      add\n      mload\n      dup2\n      0x00\n      add\n      exp(0x0100, 0x00)\n      dup2\n      sload\n      dup2\n      0xffffffffffffffffffffffffffffffffffffffff\n      mul\n      not\n      and\n      swap1\n      dup4\n      0xffffffffffffffffffffffffffffffffffffffff\n      and\n      mul\n      or\n      swap1\n      sstore\n      pop\n      0x20\n      dup3\n      add\n      mload\n      dup2\n      0x01\n      add\n      sstore\n      swap1\n      pop\n      pop\n        /* \"Begging/Begging.sol\":4439:4446  return; */\n      pop\n      pop\n      jump(tag_89)\n        /* \"Begging/Begging.sol\":4269:4457  if (amount > rankInfo2.amount && rankInfo2.account != account) {... */\n    tag_112:\n        /* \"Begging/Begging.sol\":4469:4494  RankInfo memory rankInfo3 */\n      0x00\n        /* \"Begging/Begging.sol\":4497:4505  rankList */\n      0x01\n        /* \"Begging/Begging.sol\":4506:4507  2 */\n      0x02\n        /* \"Begging/Begging.sol\":4497:4508  rankList[2] */\n      0x03\n      dup2\n      lt\n      tag_119\n      jumpi\n      tag_120\n      tag_92\n      jump\t// in\n    tag_120:\n    tag_119:\n      0x02\n      mul\n      add\n        /* \"Begging/Begging.sol\":4469:4508  RankInfo memory rankInfo3 = rankList[2] */\n      mload(0x40)\n      dup1\n      0x40\n      add\n      0x40\n      mstore\n      swap1\n      dup2\n      0x00\n      dup3\n      add\n      0x00\n      swap1\n      sload\n      swap1\n      0x0100\n      exp\n      swap1\n      div\n      0xffffffffffffffffffffffffffffffffffffffff\n      and\n      0xffffffffffffffffffffffffffffffffffffffff\n      and\n      0xffffffffffffffffffffffffffffffffffffffff\n      and\n      dup2\n      mstore\n      0x20\n      add\n      0x01\n      dup3\n      add\n      sload\n      dup2\n      mstore\n      pop\n      pop\n      swap1\n      pop\n        /* \"Begging/Begging.sol\":4532:4541  rankInfo3 */\n      dup1\n        /* \"Begging/Begging.sol\":4532:4548  rankInfo3.amount */\n      0x20\n      add\n      mload\n        /* \"Begging/Begging.sol\":4523:4529  amount */\n      dup5\n        /* \"Begging/Begging.sol\":4523:4548  amount > rankInfo3.amount */\n      gt\n        /* \"Begging/Begging.sol\":4523:4580  amount > rankInfo3.amount && rankInfo3.account != account */\n      dup1\n      iszero\n      tag_122\n      jumpi\n      pop\n        /* \"Begging/Begging.sol\":4573:4580  account */\n      dup5\n        /* \"Begging/Begging.sol\":4552:4580  rankInfo3.account != account */\n      0xffffffffffffffffffffffffffffffffffffffff\n      and\n        /* \"Begging/Begging.sol\":4552:4561  rankInfo3 */\n      dup2\n        /* \"Begging/Begging.sol\":4552:4569  rankInfo3.account */\n      0x00\n      add\n      mload\n        /* \"Begging/Begging.sol\":4552:4580  rankInfo3.account != account */\n      0xffffffffffffffffffffffffffffffffffffffff\n      and\n      eq\n      iszero\n        /* \"Begging/Begging.sol\":4523:4580  amount > rankInfo3.amount && rankInfo3.account != account */\n    tag_122:\n        /* \"Begging/Begging.sol\":4519:4648  if (amount > rankInfo3.amount && rankInfo3.account != account) {... */\n      iszero\n      tag_123\n      jumpi\n        /* \"Begging/Begging.sol\":4611:4636  RankInfo(account, amount) */\n      mload(0x40)\n      dup1\n      0x40\n      add\n      0x40\n      mstore\n      dup1\n        /* \"Begging/Begging.sol\":4620:4627  account */\n      dup7\n        /* \"Begging/Begging.sol\":4611:4636  RankInfo(account, amount) */\n      0xffffffffffffffffffffffffffffffffffffffff\n      and\n      dup2\n      mstore\n      0x20\n      add\n        /* \"Begging/Begging.sol\":4629:4635  amount */\n      dup6\n        /* \"Begging/Begging.sol\":4611:4636  RankInfo(account, amount) */\n      dup2\n      mstore\n      pop\n        /* \"Begging/Begging.sol\":4597:4605  rankList */\n      0x01\n        /* \"Begging/Begging.sol\":4606:4607  2 */\n      0x02\n        /* \"Begging/Begging.sol\":4597:4608  rankList[2] */\n      0x03\n      dup2\n      lt\n      tag_124\n      jumpi\n      tag_125\n      tag_92\n      jump\t// in\n    tag_125:\n    tag_124:\n      0x02\n      mul\n      add\n        /* \"Begging/Begging.sol\":4597:4636  rankList[2] = RankInfo(account, amount) */\n      0x00\n      dup3\n      add\n      mload\n      dup2\n      0x00\n      add\n      exp(0x0100, 0x00)\n      dup2\n      sload\n      dup2\n      0xffffffffffffffffffffffffffffffffffffffff\n      mul\n      not\n      and\n      swap1\n      dup4\n      0xffffffffffffffffffffffffffffffffffffffff\n      and\n      mul\n      or\n      swap1\n      sstore\n      pop\n      0x20\n      dup3\n      add\n      mload\n      dup2\n      0x01\n      add\n      sstore\n      swap1\n      pop\n      pop\n        /* \"Begging/Begging.sol\":4519:4648  if (amount > rankInfo3.amount && rankInfo3.account != account) {... */\n    tag_123:\n        /* \"Begging/Begging.sol\":3918:4655  {... */\n      pop\n      pop\n      pop\n        /* \"Begging/Begging.sol\":3857:4655  function updateRank(address account, uint256 amount) private {... */\n    tag_89:\n      pop\n      pop\n      jump\t// out\n    tag_84:\n      mload(0x40)\n      dup1\n      0x60\n      add\n      0x40\n      mstore\n      dup1\n      0x03\n      swap1\n    tag_127:\n      tag_128\n      tag_129\n      jump\t// in\n    tag_128:\n      dup2\n      mstore\n      0x20\n      add\n      swap1\n      0x01\n      swap1\n      sub\n      swap1\n      dup2\n      tag_127\n      jumpi\n      swap1\n      pop\n      pop\n      swap1\n      jump\t// out\n    tag_129:\n      mload(0x40)\n      dup1\n      0x40\n      add\n      0x40\n      mstore\n      dup1\n      and(0xffffffffffffffffffffffffffffffffffffffff, 0x00)\n      dup2\n      mstore\n      0x20\n      add\n      0x00\n      dup2\n      mstore\n      pop\n      swap1\n      jump\t// out\n        /* \"#utility.yul\":88:205   */\n    tag_131:\n        /* \"#utility.yul\":197:198   */\n      0x00\n        /* \"#utility.yul\":194:195   */\n      0x00\n        /* \"#utility.yul\":187:199   */\n      revert\n        /* \"#utility.yul\":334:460   */\n    tag_133:\n        /* \"#utility.yul\":371:378   */\n      0x00\n        /* \"#utility.yul\":411:453   */\n      0xffffffffffffffffffffffffffffffffffffffff\n        /* \"#utility.yul\":404:409   */\n      dup3\n        /* \"#utility.yul\":400:454   */\n      and\n        /* \"#utility.yul\":389:454   */\n      swap1\n      pop\n        /* \"#utility.yul\":334:460   */\n      swap2\n      swap1\n      pop\n      jump\t// out\n        /* \"#utility.yul\":466:562   */\n    tag_134:\n        /* \"#utility.yul\":503:510   */\n      0x00\n        /* \"#utility.yul\":532:556   */\n      tag_167\n        /* \"#utility.yul\":550:555   */\n      dup3\n        /* \"#utility.yul\":532:556   */\n      tag_133\n      jump\t// in\n    tag_167:\n        /* \"#utility.yul\":521:556   */\n      swap1\n      pop\n        /* \"#utility.yul\":466:562   */\n      swap2\n      swap1\n      pop\n      jump\t// out\n        /* \"#utility.yul\":568:690   */\n    tag_135:\n        /* \"#utility.yul\":641:665   */\n      tag_169\n        /* \"#utility.yul\":659:664   */\n      dup2\n        /* \"#utility.yul\":641:665   */\n      tag_134\n      jump\t// in\n    tag_169:\n        /* \"#utility.yul\":634:639   */\n      dup2\n        /* \"#utility.yul\":631:666   */\n      eq\n        /* \"#utility.yul\":621:684   */\n      tag_170\n      jumpi\n        /* \"#utility.yul\":680:681   */\n      0x00\n        /* \"#utility.yul\":677:678   */\n      0x00\n        /* \"#utility.yul\":670:682   */\n      revert\n        /* \"#utility.yul\":621:684   */\n    tag_170:\n        /* \"#utility.yul\":568:690   */\n      pop\n      jump\t// out\n        /* \"#utility.yul\":696:835   */\n    tag_136:\n        /* \"#utility.yul\":742:747   */\n      0x00\n        /* \"#utility.yul\":780:786   */\n      dup2\n        /* \"#utility.yul\":767:787   */\n      calldataload\n        /* \"#utility.yul\":758:787   */\n      swap1\n      pop\n        /* \"#utility.yul\":796:829   */\n      tag_172\n        /* \"#utility.yul\":823:828   */\n      dup2\n        /* \"#utility.yul\":796:829   */\n      tag_135\n      jump\t// in\n    tag_172:\n        /* \"#utility.yul\":696:835   */\n      swap3\n      swap2\n      pop\n      pop\n      jump\t// out\n        /* \"#utility.yul\":841:1170   */\n    tag_22:\n        /* \"#utility.yul\":900:906   */\n      0x00\n        /* \"#utility.yul\":949:951   */\n      0x20\n        /* \"#utility.yul\":937:946   */\n      dup3\n        /* \"#utility.yul\":928:935   */\n      dup5\n        /* \"#utility.yul\":924:947   */\n      sub\n        /* \"#utility.yul\":920:952   */\n      slt\n        /* \"#utility.yul\":917:1036   */\n      iszero\n      tag_174\n      jumpi\n        /* \"#utility.yul\":955:1034   */\n      tag_175\n      tag_131\n      jump\t// in\n    tag_175:\n        /* \"#utility.yul\":917:1036   */\n    tag_174:\n        /* \"#utility.yul\":1075:1076   */\n      0x00\n        /* \"#utility.yul\":1100:1153   */\n      tag_176\n        /* \"#utility.yul\":1145:1152   */\n      dup5\n        /* \"#utility.yul\":1136:1142   */\n      dup3\n        /* \"#utility.yul\":1125:1134   */\n      dup6\n        /* \"#utility.yul\":1121:1143   */\n      add\n        /* \"#utility.yul\":1100:1153   */\n      tag_136\n      jump\t// in\n    tag_176:\n        /* \"#utility.yul\":1090:1153   */\n      swap2\n      pop\n        /* \"#utility.yul\":1046:1163   */\n      pop\n        /* \"#utility.yul\":841:1170   */\n      swap3\n      swap2\n      pop\n      pop\n      jump\t// out\n        /* \"#utility.yul\":1176:1253   */\n    tag_137:\n        /* \"#utility.yul\":1213:1220   */\n      0x00\n        /* \"#utility.yul\":1242:1247   */\n      dup2\n        /* \"#utility.yul\":1231:1247   */\n      swap1\n      pop\n        /* \"#utility.yul\":1176:1253   */\n      swap2\n      swap1\n      pop\n      jump\t// out\n        /* \"#utility.yul\":1259:1377   */\n    tag_138:\n        /* \"#utility.yul\":1346:1370   */\n      tag_179\n        /* \"#utility.yul\":1364:1369   */\n      dup2\n        /* \"#utility.yul\":1346:1370   */\n      tag_137\n      jump\t// in\n    tag_179:\n        /* \"#utility.yul\":1341:1344   */\n      dup3\n        /* \"#utility.yul\":1334:1371   */\n      mstore\n        /* \"#utility.yul\":1259:1377   */\n      pop\n      pop\n      jump\t// out\n        /* \"#utility.yul\":1383:1605   */\n    tag_25:\n        /* \"#utility.yul\":1476:1480   */\n      0x00\n        /* \"#utility.yul\":1514:1516   */\n      0x20\n        /* \"#utility.yul\":1503:1512   */\n      dup3\n        /* \"#utility.yul\":1499:1517   */\n      add\n        /* \"#utility.yul\":1491:1517   */\n      swap1\n      pop\n        /* \"#utility.yul\":1527:1598   */\n      tag_181\n        /* \"#utility.yul\":1595:1596   */\n      0x00\n        /* \"#utility.yul\":1584:1593   */\n      dup4\n        /* \"#utility.yul\":1580:1597   */\n      add\n        /* \"#utility.yul\":1571:1577   */\n      dup5\n        /* \"#utility.yul\":1527:1598   */\n      tag_138\n      jump\t// in\n    tag_181:\n        /* \"#utility.yul\":1383:1605   */\n      swap3\n      swap2\n      pop\n      pop\n      jump\t// out\n        /* \"#utility.yul\":1611:1739   */\n    tag_139:\n        /* \"#utility.yul\":1700:1706   */\n      0x00\n        /* \"#utility.yul\":1728:1732   */\n      0x03\n        /* \"#utility.yul\":1718:1732   */\n      swap1\n      pop\n        /* \"#utility.yul\":1611:1739   */\n      swap2\n      swap1\n      pop\n      jump\t// out\n        /* \"#utility.yul\":1745:1912   */\n    tag_140:\n        /* \"#utility.yul\":1866:1877   */\n      0x00\n        /* \"#utility.yul\":1903:1906   */\n      dup2\n        /* \"#utility.yul\":1888:1906   */\n      swap1\n      pop\n        /* \"#utility.yul\":1745:1912   */\n      swap3\n      swap2\n      pop\n      pop\n      jump\t// out\n        /* \"#utility.yul\":1918:2040   */\n    tag_141:\n        /* \"#utility.yul\":2007:2011   */\n      0x00\n        /* \"#utility.yul\":2030:2033   */\n      dup2\n        /* \"#utility.yul\":2022:2033   */\n      swap1\n      pop\n        /* \"#utility.yul\":1918:2040   */\n      swap2\n      swap1\n      pop\n      jump\t// out\n        /* \"#utility.yul\":2046:2154   */\n    tag_142:\n        /* \"#utility.yul\":2123:2147   */\n      tag_186\n        /* \"#utility.yul\":2141:2146   */\n      dup2\n        /* \"#utility.yul\":2123:2147   */\n      tag_134\n      jump\t// in\n    tag_186:\n        /* \"#utility.yul\":2118:2121   */\n      dup3\n        /* \"#utility.yul\":2111:2148   */\n      mstore\n        /* \"#utility.yul\":2046:2154   */\n      pop\n      pop\n      jump\t// out\n        /* \"#utility.yul\":2160:2268   */\n    tag_143:\n        /* \"#utility.yul\":2237:2261   */\n      tag_188\n        /* \"#utility.yul\":2255:2260   */\n      dup2\n        /* \"#utility.yul\":2237:2261   */\n      tag_137\n      jump\t// in\n    tag_188:\n        /* \"#utility.yul\":2232:2235   */\n      dup3\n        /* \"#utility.yul\":2225:2262   */\n      mstore\n        /* \"#utility.yul\":2160:2268   */\n      pop\n      pop\n      jump\t// out\n        /* \"#utility.yul\":2332:2832   */\n    tag_144:\n        /* \"#utility.yul\":2467:2471   */\n      0x40\n        /* \"#utility.yul\":2462:2465   */\n      dup3\n        /* \"#utility.yul\":2458:2472   */\n      add\n        /* \"#utility.yul\":2557:2561   */\n      0x00\n        /* \"#utility.yul\":2550:2555   */\n      dup3\n        /* \"#utility.yul\":2546:2562   */\n      add\n        /* \"#utility.yul\":2540:2563   */\n      mload\n        /* \"#utility.yul\":2576:2639   */\n      tag_190\n        /* \"#utility.yul\":2633:2637   */\n      0x00\n        /* \"#utility.yul\":2628:2631   */\n      dup6\n        /* \"#utility.yul\":2624:2638   */\n      add\n        /* \"#utility.yul\":2610:2622   */\n      dup3\n        /* \"#utility.yul\":2576:2639   */\n      tag_142\n      jump\t// in\n    tag_190:\n        /* \"#utility.yul\":2482:2649   */\n      pop\n        /* \"#utility.yul\":2733:2737   */\n      0x20\n        /* \"#utility.yul\":2726:2731   */\n      dup3\n        /* \"#utility.yul\":2722:2738   */\n      add\n        /* \"#utility.yul\":2716:2739   */\n      mload\n        /* \"#utility.yul\":2752:2815   */\n      tag_191\n        /* \"#utility.yul\":2809:2813   */\n      0x20\n        /* \"#utility.yul\":2804:2807   */\n      dup6\n        /* \"#utility.yul\":2800:2814   */\n      add\n        /* \"#utility.yul\":2786:2798   */\n      dup3\n        /* \"#utility.yul\":2752:2815   */\n      tag_143\n      jump\t// in\n    tag_191:\n        /* \"#utility.yul\":2659:2825   */\n      pop\n        /* \"#utility.yul\":2436:2832   */\n      pop\n        /* \"#utility.yul\":2332:2832   */\n      pop\n      pop\n      jump\t// out\n        /* \"#utility.yul\":2838:3113   */\n    tag_145:\n        /* \"#utility.yul\":2955:2965   */\n      0x00\n        /* \"#utility.yul\":2976:3070   */\n      tag_193\n        /* \"#utility.yul\":3066:3069   */\n      dup4\n        /* \"#utility.yul\":3058:3064   */\n      dup4\n        /* \"#utility.yul\":2976:3070   */\n      tag_144\n      jump\t// in\n    tag_193:\n        /* \"#utility.yul\":3102:3106   */\n      0x40\n        /* \"#utility.yul\":3097:3100   */\n      dup4\n        /* \"#utility.yul\":3093:3107   */\n      add\n        /* \"#utility.yul\":3079:3107   */\n      swap1\n      pop\n        /* \"#utility.yul\":2838:3113   */\n      swap3\n      swap2\n      pop\n      pop\n      jump\t// out\n        /* \"#utility.yul\":3119:3254   */\n    tag_146:\n        /* \"#utility.yul\":3211:3215   */\n      0x00\n        /* \"#utility.yul\":3243:3247   */\n      0x20\n        /* \"#utility.yul\":3238:3241   */\n      dup3\n        /* \"#utility.yul\":3234:3248   */\n      add\n        /* \"#utility.yul\":3226:3248   */\n      swap1\n      pop\n        /* \"#utility.yul\":3119:3254   */\n      swap2\n      swap1\n      pop\n      jump\t// out\n        /* \"#utility.yul\":3324:4210   */\n    tag_147:\n        /* \"#utility.yul\":3508:3584   */\n      tag_196\n        /* \"#utility.yul\":3578:3583   */\n      dup2\n        /* \"#utility.yul\":3508:3584   */\n      tag_139\n      jump\t// in\n    tag_196:\n        /* \"#utility.yul\":3600:3708   */\n      tag_197\n        /* \"#utility.yul\":3701:3707   */\n      dup2\n        /* \"#utility.yul\":3696:3699   */\n      dup5\n        /* \"#utility.yul\":3600:3708   */\n      tag_140\n      jump\t// in\n    tag_197:\n        /* \"#utility.yul\":3593:3708   */\n      swap3\n      pop\n        /* \"#utility.yul\":3732:3810   */\n      tag_198\n        /* \"#utility.yul\":3804:3809   */\n      dup3\n        /* \"#utility.yul\":3732:3810   */\n      tag_141\n      jump\t// in\n    tag_198:\n        /* \"#utility.yul\":3833:3840   */\n      dup1\n        /* \"#utility.yul\":3864:3865   */\n      0x00\n        /* \"#utility.yul\":3849:4203   */\n    tag_199:\n        /* \"#utility.yul\":3874:3880   */\n      dup4\n        /* \"#utility.yul\":3871:3872   */\n      dup2\n        /* \"#utility.yul\":3868:3881   */\n      lt\n        /* \"#utility.yul\":3849:4203   */\n      iszero\n      tag_201\n      jumpi\n        /* \"#utility.yul\":3950:3956   */\n      dup2\n        /* \"#utility.yul\":3944:3957   */\n      mload\n        /* \"#utility.yul\":3977:4088   */\n      tag_202\n        /* \"#utility.yul\":4084:4087   */\n      dup8\n        /* \"#utility.yul\":4069:4082   */\n      dup3\n        /* \"#utility.yul\":3977:4088   */\n      tag_145\n      jump\t// in\n    tag_202:\n        /* \"#utility.yul\":3970:4088   */\n      swap7\n      pop\n        /* \"#utility.yul\":4111:4193   */\n      tag_203\n        /* \"#utility.yul\":4186:4192   */\n      dup4\n        /* \"#utility.yul\":4111:4193   */\n      tag_146\n      jump\t// in\n    tag_203:\n        /* \"#utility.yul\":4101:4193   */\n      swap3\n      pop\n        /* \"#utility.yul\":3909:4203   */\n      pop\n        /* \"#utility.yul\":3896:3897   */\n      0x01\n        /* \"#utility.yul\":3893:3894   */\n      dup2\n        /* \"#utility.yul\":3889:3898   */\n      add\n        /* \"#utility.yul\":3884:3898   */\n      swap1\n      pop\n        /* \"#utility.yul\":3849:4203   */\n      jump(tag_199)\n    tag_201:\n        /* \"#utility.yul\":3853:3867   */\n      pop\n        /* \"#utility.yul\":3484:4210   */\n      pop\n      pop\n      pop\n        /* \"#utility.yul\":3324:4210   */\n      pop\n      pop\n      jump\t// out\n        /* \"#utility.yul\":4216:4627   */\n    tag_50:\n        /* \"#utility.yul\":4403:4407   */\n      0x00\n        /* \"#utility.yul\":4441:4444   */\n      0xc0\n        /* \"#utility.yul\":4430:4439   */\n      dup3\n        /* \"#utility.yul\":4426:4445   */\n      add\n        /* \"#utility.yul\":4418:4445   */\n      swap1\n      pop\n        /* \"#utility.yul\":4455:4620   */\n      tag_205\n        /* \"#utility.yul\":4617:4618   */\n      0x00\n        /* \"#utility.yul\":4606:4615   */\n      dup4\n        /* \"#utility.yul\":4602:4619   */\n      add\n        /* \"#utility.yul\":4593:4599   */\n      dup5\n        /* \"#utility.yul\":4455:4620   */\n      tag_147\n      jump\t// in\n    tag_205:\n        /* \"#utility.yul\":4216:4627   */\n      swap3\n      swap2\n      pop\n      pop\n      jump\t// out\n        /* \"#utility.yul\":4633:4802   */\n    tag_148:\n        /* \"#utility.yul\":4717:4728   */\n      0x00\n        /* \"#utility.yul\":4751:4757   */\n      dup3\n        /* \"#utility.yul\":4746:4749   */\n      dup3\n        /* \"#utility.yul\":4739:4758   */\n      mstore\n        /* \"#utility.yul\":4791:4795   */\n      0x20\n        /* \"#utility.yul\":4786:4789   */\n      dup3\n        /* \"#utility.yul\":4782:4796   */\n      add\n        /* \"#utility.yul\":4767:4796   */\n      swap1\n      pop\n        /* \"#utility.yul\":4633:4802   */\n      swap3\n      swap2\n      pop\n      pop\n      jump\t// out\n        /* \"#utility.yul\":4808:4975   */\n    tag_149:\n        /* \"#utility.yul\":4948:4967   */\n      0x6e6f742070726976617465206f776e6572000000000000000000000000000000\n        /* \"#utility.yul\":4944:4945   */\n      0x00\n        /* \"#utility.yul\":4936:4942   */\n      dup3\n        /* \"#utility.yul\":4932:4946   */\n      add\n        /* \"#utility.yul\":4925:4968   */\n      mstore\n        /* \"#utility.yul\":4808:4975   */\n      pop\n      jump\t// out\n        /* \"#utility.yul\":4981:5347   */\n    tag_150:\n        /* \"#utility.yul\":5123:5126   */\n      0x00\n        /* \"#utility.yul\":5144:5211   */\n      tag_209\n        /* \"#utility.yul\":5208:5210   */\n      0x11\n        /* \"#utility.yul\":5203:5206   */\n      dup4\n        /* \"#utility.yul\":5144:5211   */\n      tag_148\n      jump\t// in\n    tag_209:\n        /* \"#utility.yul\":5137:5211   */\n      swap2\n      pop\n        /* \"#utility.yul\":5220:5313   */\n      tag_210\n        /* \"#utility.yul\":5309:5312   */\n      dup3\n        /* \"#utility.yul\":5220:5313   */\n      tag_149\n      jump\t// in\n    tag_210:\n        /* \"#utility.yul\":5338:5340   */\n      0x20\n        /* \"#utility.yul\":5333:5336   */\n      dup3\n        /* \"#utility.yul\":5329:5341   */\n      add\n        /* \"#utility.yul\":5322:5341   */\n      swap1\n      pop\n        /* \"#utility.yul\":4981:5347   */\n      swap2\n      swap1\n      pop\n      jump\t// out\n        /* \"#utility.yul\":5353:5772   */\n    tag_54:\n        /* \"#utility.yul\":5519:5523   */\n      0x00\n        /* \"#utility.yul\":5557:5559   */\n      0x20\n        /* \"#utility.yul\":5546:5555   */\n      dup3\n        /* \"#utility.yul\":5542:5560   */\n      add\n        /* \"#utility.yul\":5534:5560   */\n      swap1\n      pop\n        /* \"#utility.yul\":5606:5615   */\n      dup2\n        /* \"#utility.yul\":5600:5604   */\n      dup2\n        /* \"#utility.yul\":5596:5616   */\n      sub\n        /* \"#utility.yul\":5592:5593   */\n      0x00\n        /* \"#utility.yul\":5581:5590   */\n      dup4\n        /* \"#utility.yul\":5577:5594   */\n      add\n        /* \"#utility.yul\":5570:5617   */\n      mstore\n        /* \"#utility.yul\":5634:5765   */\n      tag_212\n        /* \"#utility.yul\":5760:5764   */\n      dup2\n        /* \"#utility.yul\":5634:5765   */\n      tag_150\n      jump\t// in\n    tag_212:\n        /* \"#utility.yul\":5626:5765   */\n      swap1\n      pop\n        /* \"#utility.yul\":5353:5772   */\n      swap2\n      swap1\n      pop\n      jump\t// out\n        /* \"#utility.yul\":5778:5925   */\n    tag_151:\n        /* \"#utility.yul\":5879:5890   */\n      0x00\n        /* \"#utility.yul\":5916:5919   */\n      dup2\n        /* \"#utility.yul\":5901:5919   */\n      swap1\n      pop\n        /* \"#utility.yul\":5778:5925   */\n      swap3\n      swap2\n      pop\n      pop\n      jump\t// out\n        /* \"#utility.yul\":5931:6045   */\n    tag_152:\n      pop\n      jump\t// out\n        /* \"#utility.yul\":6051:6449   */\n    tag_153:\n        /* \"#utility.yul\":6210:6213   */\n      0x00\n        /* \"#utility.yul\":6231:6314   */\n      tag_216\n        /* \"#utility.yul\":6312:6313   */\n      0x00\n        /* \"#utility.yul\":6307:6310   */\n      dup4\n        /* \"#utility.yul\":6231:6314   */\n      tag_151\n      jump\t// in\n    tag_216:\n        /* \"#utility.yul\":6224:6314   */\n      swap2\n      pop\n        /* \"#utility.yul\":6323:6416   */\n      tag_217\n        /* \"#utility.yul\":6412:6415   */\n      dup3\n        /* \"#utility.yul\":6323:6416   */\n      tag_152\n      jump\t// in\n    tag_217:\n        /* \"#utility.yul\":6441:6442   */\n      0x00\n        /* \"#utility.yul\":6436:6439   */\n      dup3\n        /* \"#utility.yul\":6432:6443   */\n      add\n        /* \"#utility.yul\":6425:6443   */\n      swap1\n      pop\n        /* \"#utility.yul\":6051:6449   */\n      swap2\n      swap1\n      pop\n      jump\t// out\n        /* \"#utility.yul\":6455:6834   */\n    tag_57:\n        /* \"#utility.yul\":6639:6642   */\n      0x00\n        /* \"#utility.yul\":6661:6808   */\n      tag_219\n        /* \"#utility.yul\":6804:6807   */\n      dup3\n        /* \"#utility.yul\":6661:6808   */\n      tag_153\n      jump\t// in\n    tag_219:\n        /* \"#utility.yul\":6654:6808   */\n      swap2\n      pop\n        /* \"#utility.yul\":6825:6828   */\n      dup2\n        /* \"#utility.yul\":6818:6828   */\n      swap1\n      pop\n        /* \"#utility.yul\":6455:6834   */\n      swap2\n      swap1\n      pop\n      jump\t// out\n        /* \"#utility.yul\":6840:7001   */\n    tag_154:\n        /* \"#utility.yul\":6980:6993   */\n      0x43616c6c206661696c6564000000000000000000000000000000000000000000\n        /* \"#utility.yul\":6976:6977   */\n      0x00\n        /* \"#utility.yul\":6968:6974   */\n      dup3\n        /* \"#utility.yul\":6964:6978   */\n      add\n        /* \"#utility.yul\":6957:6994   */\n      mstore\n        /* \"#utility.yul\":6840:7001   */\n      pop\n      jump\t// out\n        /* \"#utility.yul\":7007:7373   */\n    tag_155:\n        /* \"#utility.yul\":7149:7152   */\n      0x00\n        /* \"#utility.yul\":7170:7237   */\n      tag_222\n        /* \"#utility.yul\":7234:7236   */\n      0x0b\n        /* \"#utility.yul\":7229:7232   */\n      dup4\n        /* \"#utility.yul\":7170:7237   */\n      tag_148\n      jump\t// in\n    tag_222:\n        /* \"#utility.yul\":7163:7237   */\n      swap2\n      pop\n        /* \"#utility.yul\":7246:7339   */\n      tag_223\n        /* \"#utility.yul\":7335:7338   */\n      dup3\n        /* \"#utility.yul\":7246:7339   */\n      tag_154\n      jump\t// in\n    tag_223:\n        /* \"#utility.yul\":7364:7366   */\n      0x20\n        /* \"#utility.yul\":7359:7362   */\n      dup3\n        /* \"#utility.yul\":7355:7367   */\n      add\n        /* \"#utility.yul\":7348:7367   */\n      swap1\n      pop\n        /* \"#utility.yul\":7007:7373   */\n      swap2\n      swap1\n      pop\n      jump\t// out\n        /* \"#utility.yul\":7379:7798   */\n    tag_63:\n        /* \"#utility.yul\":7545:7549   */\n      0x00\n        /* \"#utility.yul\":7583:7585   */\n      0x20\n        /* \"#utility.yul\":7572:7581   */\n      dup3\n        /* \"#utility.yul\":7568:7586   */\n      add\n        /* \"#utility.yul\":7560:7586   */\n      swap1\n      pop\n        /* \"#utility.yul\":7632:7641   */\n      dup2\n        /* \"#utility.yul\":7626:7630   */\n      dup2\n        /* \"#utility.yul\":7622:7642   */\n      sub\n        /* \"#utility.yul\":7618:7619   */\n      0x00\n        /* \"#utility.yul\":7607:7616   */\n      dup4\n        /* \"#utility.yul\":7603:7620   */\n      add\n        /* \"#utility.yul\":7596:7643   */\n      mstore\n        /* \"#utility.yul\":7660:7791   */\n      tag_225\n        /* \"#utility.yul\":7786:7790   */\n      dup2\n        /* \"#utility.yul\":7660:7791   */\n      tag_155\n      jump\t// in\n    tag_225:\n        /* \"#utility.yul\":7652:7791   */\n      swap1\n      pop\n        /* \"#utility.yul\":7379:7798   */\n      swap2\n      swap1\n      pop\n      jump\t// out\n        /* \"#utility.yul\":7804:7984   */\n    tag_156:\n        /* \"#utility.yul\":7852:7929   */\n      0x4e487b7100000000000000000000000000000000000000000000000000000000\n        /* \"#utility.yul\":7849:7850   */\n      0x00\n        /* \"#utility.yul\":7842:7930   */\n      mstore\n        /* \"#utility.yul\":7949:7953   */\n      0x12\n        /* \"#utility.yul\":7946:7947   */\n      0x04\n        /* \"#utility.yul\":7939:7954   */\n      mstore\n        /* \"#utility.yul\":7973:7977   */\n      0x24\n        /* \"#utility.yul\":7970:7971   */\n      0x00\n        /* \"#utility.yul\":7963:7978   */\n      revert\n        /* \"#utility.yul\":7990:8166   */\n    tag_67:\n        /* \"#utility.yul\":8022:8023   */\n      0x00\n        /* \"#utility.yul\":8039:8059   */\n      tag_228\n        /* \"#utility.yul\":8057:8058   */\n      dup3\n        /* \"#utility.yul\":8039:8059   */\n      tag_137\n      jump\t// in\n    tag_228:\n        /* \"#utility.yul\":8034:8059   */\n      swap2\n      pop\n        /* \"#utility.yul\":8073:8093   */\n      tag_229\n        /* \"#utility.yul\":8091:8092   */\n      dup4\n        /* \"#utility.yul\":8073:8093   */\n      tag_137\n      jump\t// in\n    tag_229:\n        /* \"#utility.yul\":8068:8093   */\n      swap3\n      pop\n        /* \"#utility.yul\":8112:8113   */\n      dup3\n        /* \"#utility.yul\":8102:8137   */\n      tag_230\n      jumpi\n        /* \"#utility.yul\":8117:8135   */\n      tag_231\n      tag_156\n      jump\t// in\n    tag_231:\n        /* \"#utility.yul\":8102:8137   */\n    tag_230:\n        /* \"#utility.yul\":8158:8159   */\n      dup3\n        /* \"#utility.yul\":8155:8156   */\n      dup3\n        /* \"#utility.yul\":8151:8160   */\n      mod\n        /* \"#utility.yul\":8146:8160   */\n      swap1\n      pop\n        /* \"#utility.yul\":7990:8166   */\n      swap3\n      swap2\n      pop\n      pop\n      jump\t// out\n        /* \"#utility.yul\":8172:8352   */\n    tag_157:\n        /* \"#utility.yul\":8220:8297   */\n      0x4e487b7100000000000000000000000000000000000000000000000000000000\n        /* \"#utility.yul\":8217:8218   */\n      0x00\n        /* \"#utility.yul\":8210:8298   */\n      mstore\n        /* \"#utility.yul\":8317:8321   */\n      0x11\n        /* \"#utility.yul\":8314:8315   */\n      0x04\n        /* \"#utility.yul\":8307:8322   */\n      mstore\n        /* \"#utility.yul\":8341:8345   */\n      0x24\n        /* \"#utility.yul\":8338:8339   */\n      0x00\n        /* \"#utility.yul\":8331:8346   */\n      revert\n        /* \"#utility.yul\":8358:8543   */\n    tag_69:\n        /* \"#utility.yul\":8398:8399   */\n      0x00\n        /* \"#utility.yul\":8415:8435   */\n      tag_234\n        /* \"#utility.yul\":8433:8434   */\n      dup3\n        /* \"#utility.yul\":8415:8435   */\n      tag_137\n      jump\t// in\n    tag_234:\n        /* \"#utility.yul\":8410:8435   */\n      swap2\n      pop\n        /* \"#utility.yul\":8449:8469   */\n      tag_235\n        /* \"#utility.yul\":8467:8468   */\n      dup4\n        /* \"#utility.yul\":8449:8469   */\n      tag_137\n      jump\t// in\n    tag_235:\n        /* \"#utility.yul\":8444:8469   */\n      swap3\n      pop\n        /* \"#utility.yul\":8488:8489   */\n      dup3\n        /* \"#utility.yul\":8478:8513   */\n      tag_236\n      jumpi\n        /* \"#utility.yul\":8493:8511   */\n      tag_237\n      tag_156\n      jump\t// in\n    tag_237:\n        /* \"#utility.yul\":8478:8513   */\n    tag_236:\n        /* \"#utility.yul\":8535:8536   */\n      dup3\n        /* \"#utility.yul\":8532:8533   */\n      dup3\n        /* \"#utility.yul\":8528:8537   */\n      div\n        /* \"#utility.yul\":8523:8537   */\n      swap1\n      pop\n        /* \"#utility.yul\":8358:8543   */\n      swap3\n      swap2\n      pop\n      pop\n      jump\t// out\n        /* \"#utility.yul\":8549:8784   */\n    tag_158:\n        /* \"#utility.yul\":8689:8723   */\n      0x446f6e6174696f6e206f6e6c7920616c6c6f776564206265747765656e20383a\n        /* \"#utility.yul\":8685:8686   */\n      0x00\n        /* \"#utility.yul\":8677:8683   */\n      dup3\n        /* \"#utility.yul\":8673:8687   */\n      add\n        /* \"#utility.yul\":8666:8724   */\n      mstore\n        /* \"#utility.yul\":8758:8776   */\n      0x303020616e642032303a30302055544300000000000000000000000000000000\n        /* \"#utility.yul\":8753:8755   */\n      0x20\n        /* \"#utility.yul\":8745:8751   */\n      dup3\n        /* \"#utility.yul\":8741:8756   */\n      add\n        /* \"#utility.yul\":8734:8777   */\n      mstore\n        /* \"#utility.yul\":8549:8784   */\n      pop\n      jump\t// out\n        /* \"#utility.yul\":8790:9156   */\n    tag_159:\n        /* \"#utility.yul\":8932:8935   */\n      0x00\n        /* \"#utility.yul\":8953:9020   */\n      tag_240\n        /* \"#utility.yul\":9017:9019   */\n      0x30\n        /* \"#utility.yul\":9012:9015   */\n      dup4\n        /* \"#utility.yul\":8953:9020   */\n      tag_148\n      jump\t// in\n    tag_240:\n        /* \"#utility.yul\":8946:9020   */\n      swap2\n      pop\n        /* \"#utility.yul\":9029:9122   */\n      tag_241\n        /* \"#utility.yul\":9118:9121   */\n      dup3\n        /* \"#utility.yul\":9029:9122   */\n      tag_158\n      jump\t// in\n    tag_241:\n        /* \"#utility.yul\":9147:9149   */\n      0x40\n        /* \"#utility.yul\":9142:9145   */\n      dup3\n        /* \"#utility.yul\":9138:9150   */\n      add\n        /* \"#utility.yul\":9131:9150   */\n      swap1\n      pop\n        /* \"#utility.yul\":8790:9156   */\n      swap2\n      swap1\n      pop\n      jump\t// out\n        /* \"#utility.yul\":9162:9581   */\n    tag_75:\n        /* \"#utility.yul\":9328:9332   */\n      0x00\n        /* \"#utility.yul\":9366:9368   */\n      0x20\n        /* \"#utility.yul\":9355:9364   */\n      dup3\n        /* \"#utility.yul\":9351:9369   */\n      add\n        /* \"#utility.yul\":9343:9369   */\n      swap1\n      pop\n        /* \"#utility.yul\":9415:9424   */\n      dup2\n        /* \"#utility.yul\":9409:9413   */\n      dup2\n        /* \"#utility.yul\":9405:9425   */\n      sub\n        /* \"#utility.yul\":9401:9402   */\n      0x00\n        /* \"#utility.yul\":9390:9399   */\n      dup4\n        /* \"#utility.yul\":9386:9403   */\n      add\n        /* \"#utility.yul\":9379:9426   */\n      mstore\n        /* \"#utility.yul\":9443:9574   */\n      tag_243\n        /* \"#utility.yul\":9569:9573   */\n      dup2\n        /* \"#utility.yul\":9443:9574   */\n      tag_159\n      jump\t// in\n    tag_243:\n        /* \"#utility.yul\":9435:9574   */\n      swap1\n      pop\n        /* \"#utility.yul\":9162:9581   */\n      swap2\n      swap1\n      pop\n      jump\t// out\n        /* \"#utility.yul\":9587:9778   */\n    tag_78:\n        /* \"#utility.yul\":9627:9630   */\n      0x00\n        /* \"#utility.yul\":9646:9666   */\n      tag_245\n        /* \"#utility.yul\":9664:9665   */\n      dup3\n        /* \"#utility.yul\":9646:9666   */\n      tag_137\n      jump\t// in\n    tag_245:\n        /* \"#utility.yul\":9641:9666   */\n      swap2\n      pop\n        /* \"#utility.yul\":9680:9700   */\n      tag_246\n        /* \"#utility.yul\":9698:9699   */\n      dup4\n        /* \"#utility.yul\":9680:9700   */\n      tag_137\n      jump\t// in\n    tag_246:\n        /* \"#utility.yul\":9675:9700   */\n      swap3\n      pop\n        /* \"#utility.yul\":9723:9724   */\n      dup3\n        /* \"#utility.yul\":9720:9721   */\n      dup3\n        /* \"#utility.yul\":9716:9725   */\n      add\n        /* \"#utility.yul\":9709:9725   */\n      swap1\n      pop\n        /* \"#utility.yul\":9744:9747   */\n      dup1\n        /* \"#utility.yul\":9741:9742   */\n      dup3\n        /* \"#utility.yul\":9738:9748   */\n      gt\n        /* \"#utility.yul\":9735:9771   */\n      iszero\n      tag_247\n      jumpi\n        /* \"#utility.yul\":9751:9769   */\n      tag_248\n      tag_157\n      jump\t// in\n    tag_248:\n        /* \"#utility.yul\":9735:9771   */\n    tag_247:\n        /* \"#utility.yul\":9587:9778   */\n      swap3\n      swap2\n      pop\n      pop\n      jump\t// out\n        /* \"#utility.yul\":9784:9902   */\n    tag_160:\n        /* \"#utility.yul\":9871:9895   */\n      tag_250\n        /* \"#utility.yul\":9889:9894   */\n      dup2\n        /* \"#utility.yul\":9871:9895   */\n      tag_134\n      jump\t// in\n    tag_250:\n        /* \"#utility.yul\":9866:9869   */\n      dup3\n        /* \"#utility.yul\":9859:9896   */\n      mstore\n        /* \"#utility.yul\":9784:9902   */\n      pop\n      pop\n      jump\t// out\n        /* \"#utility.yul\":9908:10240   */\n    tag_80:\n        /* \"#utility.yul\":10029:10033   */\n      0x00\n        /* \"#utility.yul\":10067:10069   */\n      0x40\n        /* \"#utility.yul\":10056:10065   */\n      dup3\n        /* \"#utility.yul\":10052:10070   */\n      add\n        /* \"#utility.yul\":10044:10070   */\n      swap1\n      pop\n        /* \"#utility.yul\":10080:10151   */\n      tag_252\n        /* \"#utility.yul\":10148:10149   */\n      0x00\n        /* \"#utility.yul\":10137:10146   */\n      dup4\n        /* \"#utility.yul\":10133:10150   */\n      add\n        /* \"#utility.yul\":10124:10130   */\n      dup6\n        /* \"#utility.yul\":10080:10151   */\n      tag_160\n      jump\t// in\n    tag_252:\n        /* \"#utility.yul\":10161:10233   */\n      tag_253\n        /* \"#utility.yul\":10229:10231   */\n      0x20\n        /* \"#utility.yul\":10218:10227   */\n      dup4\n        /* \"#utility.yul\":10214:10232   */\n      add\n        /* \"#utility.yul\":10205:10211   */\n      dup5\n        /* \"#utility.yul\":10161:10233   */\n      tag_138\n      jump\t// in\n    tag_253:\n        /* \"#utility.yul\":9908:10240   */\n      swap4\n      swap3\n      pop\n      pop\n      pop\n      jump\t// out\n        /* \"#utility.yul\":10246:10426   */\n    tag_92:\n        /* \"#utility.yul\":10294:10371   */\n      0x4e487b7100000000000000000000000000000000000000000000000000000000\n        /* \"#utility.yul\":10291:10292   */\n      0x00\n        /* \"#utility.yul\":10284:10372   */\n      mstore\n        /* \"#utility.yul\":10391:10395   */\n      0x32\n        /* \"#utility.yul\":10388:10389   */\n      0x04\n        /* \"#utility.yul\":10381:10396   */\n      mstore\n        /* \"#utility.yul\":10415:10419   */\n      0x24\n        /* \"#utility.yul\":10412:10413   */\n      0x00\n        /* \"#utility.yul\":10405:10420   */\n      revert\n\n    auxdata: 0xa2646970667358221220788f1c25f64e40df537a74d990012f9a041cec174aa74bfc0fd96b865c978ea564736f6c634300081e0033\n}\n",
				"bytecode": {
					"linkReferences": {},
					"object": "6080604052348015600e575f5ffd5b50335f5f6101000a81548173ffffffffffffffffffffffffffffffffffffffff021916908373ffffffffffffffffffffffffffffffffffffffff1602179055506110cb8061005b5f395ff3fe60806040526004361061007e575f3560e01c80637b072a891161004d5780637b072a8914610127578063cc6cb19a14610151578063ed88c68e1461018d578063fe706580146101ab5761007f565b80633ccfd60b14610081578063410a1d321461009757806346bd607e146100d35780635987758c146100fd5761007f565b5b005b34801561008c575f5ffd5b506100956101d5565b005b3480156100a2575f5ffd5b506100bd60048036038101906100b89190610c40565b610333565b6040516100ca9190610c83565b60405180910390f35b3480156100de575f5ffd5b506100e7610379565b6040516100f49190610c83565b60405180910390f35b348015610108575f5ffd5b5061011161039b565b60405161011e9190610c83565b60405180910390f35b348015610132575f5ffd5b5061013b6103a0565b6040516101489190610c83565b60405180910390f35b34801561015c575f5ffd5b5061017760048036038101906101729190610c40565b6103a5565b6040516101849190610c83565b60405180910390f35b6101956103ba565b6040516101a29190610c83565b60405180910390f35b3480156101b6575f5ffd5b506101bf61052d565b6040516101cc9190610d7d565b60405180910390f35b5f5f9054906101000a900473ffffffffffffffffffffffffffffffffffffffff1673ffffffffffffffffffffffffffffffffffffffff163373ffffffffffffffffffffffffffffffffffffffff1614610263576040517f08c379a000000000000000000000000000000000000000000000000000000000815260040161025a90610df0565b60405180910390fd5b5f4790505f5f5f9054906101000a900473ffffffffffffffffffffffffffffffffffffffff1673ffffffffffffffffffffffffffffffffffffffff16826040516102ac90610e3b565b5f6040518083038185875af1925050503d805f81146102e6576040519150601f19603f3d011682016040523d82523d5f602084013e6102eb565b606091505b505090508061032f576040517f08c379a000000000000000000000000000000000000000000000000000000000815260040161032690610e99565b60405180910390fd5b5050565b5f60075f8373ffffffffffffffffffffffffffffffffffffffff1673ffffffffffffffffffffffffffffffffffffffff1681526020019081526020015f20549050919050565b5f610e10620151804261038c9190610ee4565b6103969190610f41565b905090565b600881565b600881565b6007602052805f5260405f205f915090505481565b5f5f6103c4610379565b9050600881101580156103d75750600881105b610416576040517f08c379a000000000000000000000000000000000000000000000000000000000815260040161040d90610fe1565b60405180910390fd5b3460075f3373ffffffffffffffffffffffffffffffffffffffff1673ffffffffffffffffffffffffffffffffffffffff1681526020019081526020015f205f8282546104629190610fff565b925050819055507f0553260a2e46b0577270d8992db02d30856ca880144c72d6e9503760946aef13333460405161049a929190611041565b60405180910390a16104e93360075f3373ffffffffffffffffffffffffffffffffffffffff1673ffffffffffffffffffffffffffffffffffffffff1681526020019081526020015f20546105dc565b60075f3373ffffffffffffffffffffffffffffffffffffffff1673ffffffffffffffffffffffffffffffffffffffff1681526020019081526020015f205491505090565b610535610b87565b6001600380602002604051908101604052809291905f905b828210156105d3578382600202016040518060400160405290815f82015f9054906101000a900473ffffffffffffffffffffffffffffffffffffffff1673ffffffffffffffffffffffffffffffffffffffff1673ffffffffffffffffffffffffffffffffffffffff1681526020016001820154815250508152602001906001019061054d565b50505050905090565b5f60015f600381106105f1576105f0611068565b5b600202016040518060400160405290815f82015f9054906101000a900473ffffffffffffffffffffffffffffffffffffffff1673ffffffffffffffffffffffffffffffffffffffff1673ffffffffffffffffffffffffffffffffffffffff16815260200160018201548152505090508060200151821180156106a257508273ffffffffffffffffffffffffffffffffffffffff16815f015173ffffffffffffffffffffffffffffffffffffffff1614155b1561084c5760405180604001604052808473ffffffffffffffffffffffffffffffffffffffff1681526020018381525060015f600381106106e6576106e5611068565b5b600202015f820151815f015f6101000a81548173ffffffffffffffffffffffffffffffffffffffff021916908373ffffffffffffffffffffffffffffffffffffffff160217905550602082015181600101559050506001806003811061074f5761074e611068565b5b60020201600160026003811061076857610767611068565b5b600202015f82015f9054906101000a900473ffffffffffffffffffffffffffffffffffffffff16815f015f6101000a81548173ffffffffffffffffffffffffffffffffffffffff021916908373ffffffffffffffffffffffffffffffffffffffff1602179055506001820154816001015590505080600180600381106107f1576107f0611068565b5b600202015f820151815f015f6101000a81548173ffffffffffffffffffffffffffffffffffffffff021916908373ffffffffffffffffffffffffffffffffffffffff1602179055506020820151816001015590505050610b83565b5f6001806003811061086157610860611068565b5b600202016040518060400160405290815f82015f9054906101000a900473ffffffffffffffffffffffffffffffffffffffff1673ffffffffffffffffffffffffffffffffffffffff1673ffffffffffffffffffffffffffffffffffffffff168152602001600182015481525050905080602001518311801561091257508373ffffffffffffffffffffffffffffffffffffffff16815f015173ffffffffffffffffffffffffffffffffffffffff1614155b15610a1d5760405180604001604052808573ffffffffffffffffffffffffffffffffffffffff168152602001848152506001806003811061095657610955611068565b5b600202015f820151815f015f6101000a81548173ffffffffffffffffffffffffffffffffffffffff021916908373ffffffffffffffffffffffffffffffffffffffff160217905550602082015181600101559050508060016002600381106109c1576109c0611068565b5b600202015f820151815f015f6101000a81548173ffffffffffffffffffffffffffffffffffffffff021916908373ffffffffffffffffffffffffffffffffffffffff160217905550602082015181600101559050505050610b83565b5f6001600260038110610a3357610a32611068565b5b600202016040518060400160405290815f82015f9054906101000a900473ffffffffffffffffffffffffffffffffffffffff1673ffffffffffffffffffffffffffffffffffffffff1673ffffffffffffffffffffffffffffffffffffffff1681526020016001820154815250509050806020015184118015610ae457508473ffffffffffffffffffffffffffffffffffffffff16815f015173ffffffffffffffffffffffffffffffffffffffff1614155b15610b7f5760405180604001604052808673ffffffffffffffffffffffffffffffffffffffff168152602001858152506001600260038110610b2957610b28611068565b5b600202015f820151815f015f6101000a81548173ffffffffffffffffffffffffffffffffffffffff021916908373ffffffffffffffffffffffffffffffffffffffff160217905550602082015181600101559050505b5050505b5050565b60405180606001604052806003905b610b9e610bb4565b815260200190600190039081610b965790505090565b60405180604001604052805f73ffffffffffffffffffffffffffffffffffffffff1681526020015f81525090565b5f5ffd5b5f73ffffffffffffffffffffffffffffffffffffffff82169050919050565b5f610c0f82610be6565b9050919050565b610c1f81610c05565b8114610c29575f5ffd5b50565b5f81359050610c3a81610c16565b92915050565b5f60208284031215610c5557610c54610be2565b5b5f610c6284828501610c2c565b91505092915050565b5f819050919050565b610c7d81610c6b565b82525050565b5f602082019050610c965f830184610c74565b92915050565b5f60039050919050565b5f81905092915050565b5f819050919050565b610cc281610c05565b82525050565b610cd181610c6b565b82525050565b604082015f820151610ceb5f850182610cb9565b506020820151610cfe6020850182610cc8565b50505050565b5f610d0f8383610cd7565b60408301905092915050565b5f602082019050919050565b610d3081610c9c565b610d3a8184610ca6565b9250610d4582610cb0565b805f5b83811015610d75578151610d5c8782610d04565b9650610d6783610d1b565b925050600181019050610d48565b505050505050565b5f60c082019050610d905f830184610d27565b92915050565b5f82825260208201905092915050565b7f6e6f742070726976617465206f776e65720000000000000000000000000000005f82015250565b5f610dda601183610d96565b9150610de582610da6565b602082019050919050565b5f6020820190508181035f830152610e0781610dce565b9050919050565b5f81905092915050565b50565b5f610e265f83610e0e565b9150610e3182610e18565b5f82019050919050565b5f610e4582610e1b565b9150819050919050565b7f43616c6c206661696c65640000000000000000000000000000000000000000005f82015250565b5f610e83600b83610d96565b9150610e8e82610e4f565b602082019050919050565b5f6020820190508181035f830152610eb081610e77565b9050919050565b7f4e487b71000000000000000000000000000000000000000000000000000000005f52601260045260245ffd5b5f610eee82610c6b565b9150610ef983610c6b565b925082610f0957610f08610eb7565b5b828206905092915050565b7f4e487b71000000000000000000000000000000000000000000000000000000005f52601160045260245ffd5b5f610f4b82610c6b565b9150610f5683610c6b565b925082610f6657610f65610eb7565b5b828204905092915050565b7f446f6e6174696f6e206f6e6c7920616c6c6f776564206265747765656e20383a5f8201527f303020616e642032303a30302055544300000000000000000000000000000000602082015250565b5f610fcb603083610d96565b9150610fd682610f71565b604082019050919050565b5f6020820190508181035f830152610ff881610fbf565b9050919050565b5f61100982610c6b565b915061101483610c6b565b925082820190508082111561102c5761102b610f14565b5b92915050565b61103b81610c05565b82525050565b5f6040820190506110545f830185611032565b6110616020830184610c74565b9392505050565b7f4e487b71000000000000000000000000000000000000000000000000000000005f52603260045260245ffdfea2646970667358221220788f1c25f64e40df537a74d990012f9a041cec174aa74bfc0fd96b865c978ea564736f6c634300081e0033",
					"opcodes": "PUSH1 0x80 PUSH1 0x40 MSTORE CALLVALUE DUP1 ISZERO PUSH1 0xE JUMPI PUSH0 PUSH0 REVERT JUMPDEST POP CALLER PUSH0 PUSH0 PUSH2 0x100 EXP DUP2 SLOAD DUP2 PUSH20 0xFFFFFFFFFFFFFFFFFFFFFFFFFFFFFFFFFFFFFFFF MUL NOT AND SWAP1 DUP4 PUSH20 0xFFFFFFFFFFFFFFFFFFFFFFFFFFFFFFFFFFFFFFFF AND MUL OR SWAP1 SSTORE POP PUSH2 0x10CB DUP1 PUSH2 0x5B PUSH0 CODECOPY PUSH0 RETURN INVALID PUSH1 0x80 PUSH1 0x40 MSTORE PUSH1 0x4 CALLDATASIZE LT PUSH2 0x7E JUMPI PUSH0 CALLDATALOAD PUSH1 0xE0 SHR DUP1 PUSH4 0x7B072A89 GT PUSH2 0x4D JUMPI DUP1 PUSH4 0x7B072A89 EQ PUSH2 0x127 JUMPI DUP1 PUSH4 0xCC6CB19A EQ PUSH2 0x151 JUMPI DUP1 PUSH4 0xED88C68E EQ PUSH2 0x18D JUMPI DUP1 PUSH4 0xFE706580 EQ PUSH2 0x1AB JUMPI PUSH2 0x7F JUMP JUMPDEST DUP1 PUSH4 0x3CCFD60B EQ PUSH2 0x81 JUMPI DUP1 PUSH4 0x410A1D32 EQ PUSH2 0x97 JUMPI DUP1 PUSH4 0x46BD607E EQ PUSH2 0xD3 JUMPI DUP1 PUSH4 0x5987758C EQ PUSH2 0xFD JUMPI PUSH2 0x7F JUMP JUMPDEST JUMPDEST STOP JUMPDEST CALLVALUE DUP1 ISZERO PUSH2 0x8C JUMPI PUSH0 PUSH0 REVERT JUMPDEST POP PUSH2 0x95 PUSH2 0x1D5 JUMP JUMPDEST STOP JUMPDEST CALLVALUE DUP1 ISZERO PUSH2 0xA2 JUMPI PUSH0 PUSH0 REVERT JUMPDEST POP PUSH2 0xBD PUSH1 0x4 DUP1 CALLDATASIZE SUB DUP2 ADD SWAP1 PUSH2 0xB8 SWAP2 SWAP1 PUSH2 0xC40 JUMP JUMPDEST PUSH2 0x333 JUMP JUMPDEST PUSH1 0x40 MLOAD PUSH2 0xCA SWAP2 SWAP1 PUSH2 0xC83 JUMP JUMPDEST PUSH1 0x40 MLOAD DUP1 SWAP2 SUB SWAP1 RETURN JUMPDEST CALLVALUE DUP1 ISZERO PUSH2 0xDE JUMPI PUSH0 PUSH0 REVERT JUMPDEST POP PUSH2 0xE7 PUSH2 0x379 JUMP JUMPDEST PUSH1 0x40 MLOAD PUSH2 0xF4 SWAP2 SWAP1 PUSH2 0xC83 JUMP JUMPDEST PUSH1 0x40 MLOAD DUP1 SWAP2 SUB SWAP1 RETURN JUMPDEST CALLVALUE DUP1 ISZERO PUSH2 0x108 JUMPI PUSH0 PUSH0 REVERT JUMPDEST POP PUSH2 0x111 PUSH2 0x39B JUMP JUMPDEST PUSH1 0x40 MLOAD PUSH2 0x11E SWAP2 SWAP1 PUSH2 0xC83 JUMP JUMPDEST PUSH1 0x40 MLOAD DUP1 SWAP2 SUB SWAP1 RETURN JUMPDEST CALLVALUE DUP1 ISZERO PUSH2 0x132 JUMPI PUSH0 PUSH0 REVERT JUMPDEST POP PUSH2 0x13B PUSH2 0x3A0 JUMP JUMPDEST PUSH1 0x40 MLOAD PUSH2 0x148 SWAP2 SWAP1 PUSH2 0xC83 JUMP JUMPDEST PUSH1 0x40 MLOAD DUP1 SWAP2 SUB SWAP1 RETURN JUMPDEST CALLVALUE DUP1 ISZERO PUSH2 0x15C JUMPI PUSH0 PUSH0 REVERT JUMPDEST POP PUSH2 0x177 PUSH1 0x4 DUP1 CALLDATASIZE SUB DUP2 ADD SWAP1 PUSH2 0x172 SWAP2 SWAP1 PUSH2 0xC40 JUMP JUMPDEST PUSH2 0x3A5 JUMP JUMPDEST PUSH1 0x40 MLOAD PUSH2 0x184 SWAP2 SWAP1 PUSH2 0xC83 JUMP JUMPDEST PUSH1 0x40 MLOAD DUP1 SWAP2 SUB SWAP1 RETURN JUMPDEST PUSH2 0x195 PUSH2 0x3BA JUMP JUMPDEST PUSH1 0x40 MLOAD PUSH2 0x1A2 SWAP2 SWAP1 PUSH2 0xC83 JUMP JUMPDEST PUSH1 0x40 MLOAD DUP1 SWAP2 SUB SWAP1 RETURN JUMPDEST CALLVALUE DUP1 ISZERO PUSH2 0x1B6 JUMPI PUSH0 PUSH0 REVERT JUMPDEST POP PUSH2 0x1BF PUSH2 0x52D JUMP JUMPDEST PUSH1 0x40 MLOAD PUSH2 0x1CC SWAP2 SWAP1 PUSH2 0xD7D JUMP JUMPDEST PUSH1 0x40 MLOAD DUP1 SWAP2 SUB SWAP1 RETURN JUMPDEST PUSH0 PUSH0 SWAP1 SLOAD SWAP1 PUSH2 0x100 EXP SWAP1 DIV PUSH20 0xFFFFFFFFFFFFFFFFFFFFFFFFFFFFFFFFFFFFFFFF AND PUSH20 0xFFFFFFFFFFFFFFFFFFFFFFFFFFFFFFFFFFFFFFFF AND CALLER PUSH20 0xFFFFFFFFFFFFFFFFFFFFFFFFFFFFFFFFFFFFFFFF AND EQ PUSH2 0x263 JUMPI PUSH1 0x40 MLOAD PUSH32 0x8C379A000000000000000000000000000000000000000000000000000000000 DUP2 MSTORE PUSH1 0x4 ADD PUSH2 0x25A SWAP1 PUSH2 0xDF0 JUMP JUMPDEST PUSH1 0x40 MLOAD DUP1 SWAP2 SUB SWAP1 REVERT JUMPDEST PUSH0 SELFBALANCE SWAP1 POP PUSH0 PUSH0 PUSH0 SWAP1 SLOAD SWAP1 PUSH2 0x100 EXP SWAP1 DIV PUSH20 0xFFFFFFFFFFFFFFFFFFFFFFFFFFFFFFFFFFFFFFFF AND PUSH20 0xFFFFFFFFFFFFFFFFFFFFFFFFFFFFFFFFFFFFFFFF AND DUP3 PUSH1 0x40 MLOAD PUSH2 0x2AC SWAP1 PUSH2 0xE3B JUMP JUMPDEST PUSH0 PUSH1 0x40 MLOAD DUP1 DUP4 SUB DUP2 DUP6 DUP8 GAS CALL SWAP3 POP POP POP RETURNDATASIZE DUP1 PUSH0 DUP2 EQ PUSH2 0x2E6 JUMPI PUSH1 0x40 MLOAD SWAP2 POP PUSH1 0x1F NOT PUSH1 0x3F RETURNDATASIZE ADD AND DUP3 ADD PUSH1 0x40 MSTORE RETURNDATASIZE DUP3 MSTORE RETURNDATASIZE PUSH0 PUSH1 0x20 DUP5 ADD RETURNDATACOPY PUSH2 0x2EB JUMP JUMPDEST PUSH1 0x60 SWAP2 POP JUMPDEST POP POP SWAP1 POP DUP1 PUSH2 0x32F JUMPI PUSH1 0x40 MLOAD PUSH32 0x8C379A000000000000000000000000000000000000000000000000000000000 DUP2 MSTORE PUSH1 0x4 ADD PUSH2 0x326 SWAP1 PUSH2 0xE99 JUMP JUMPDEST PUSH1 0x40 MLOAD DUP1 SWAP2 SUB SWAP1 REVERT JUMPDEST POP POP JUMP JUMPDEST PUSH0 PUSH1 0x7 PUSH0 DUP4 PUSH20 0xFFFFFFFFFFFFFFFFFFFFFFFFFFFFFFFFFFFFFFFF AND PUSH20 0xFFFFFFFFFFFFFFFFFFFFFFFFFFFFFFFFFFFFFFFF AND DUP2 MSTORE PUSH1 0x20 ADD SWAP1 DUP2 MSTORE PUSH1 0x20 ADD PUSH0 KECCAK256 SLOAD SWAP1 POP SWAP2 SWAP1 POP JUMP JUMPDEST PUSH0 PUSH2 0xE10 PUSH3 0x15180 TIMESTAMP PUSH2 0x38C SWAP2 SWAP1 PUSH2 0xEE4 JUMP JUMPDEST PUSH2 0x396 SWAP2 SWAP1 PUSH2 0xF41 JUMP JUMPDEST SWAP1 POP SWAP1 JUMP JUMPDEST PUSH1 0x8 DUP2 JUMP JUMPDEST PUSH1 0x8 DUP2 JUMP JUMPDEST PUSH1 0x7 PUSH1 0x20 MSTORE DUP1 PUSH0 MSTORE PUSH1 0x40 PUSH0 KECCAK256 PUSH0 SWAP2 POP SWAP1 POP SLOAD DUP2 JUMP JUMPDEST PUSH0 PUSH0 PUSH2 0x3C4 PUSH2 0x379 JUMP JUMPDEST SWAP1 POP PUSH1 0x8 DUP2 LT ISZERO DUP1 ISZERO PUSH2 0x3D7 JUMPI POP PUSH1 0x8 DUP2 LT JUMPDEST PUSH2 0x416 JUMPI PUSH1 0x40 MLOAD PUSH32 0x8C379A000000000000000000000000000000000000000000000000000000000 DUP2 MSTORE PUSH1 0x4 ADD PUSH2 0x40D SWAP1 PUSH2 0xFE1 JUMP JUMPDEST PUSH1 0x40 MLOAD DUP1 SWAP2 SUB SWAP1 REVERT JUMPDEST CALLVALUE PUSH1 0x7 PUSH0 CALLER PUSH20 0xFFFFFFFFFFFFFFFFFFFFFFFFFFFFFFFFFFFFFFFF AND PUSH20 0xFFFFFFFFFFFFFFFFFFFFFFFFFFFFFFFFFFFFFFFF AND DUP2 MSTORE PUSH1 0x20 ADD SWAP1 DUP2 MSTORE PUSH1 0x20 ADD PUSH0 KECCAK256 PUSH0 DUP3 DUP3 SLOAD PUSH2 0x462 SWAP2 SWAP1 PUSH2 0xFFF JUMP JUMPDEST SWAP3 POP POP DUP2 SWAP1 SSTORE POP PUSH32 0x553260A2E46B0577270D8992DB02D30856CA880144C72D6E9503760946AEF13 CALLER CALLVALUE PUSH1 0x40 MLOAD PUSH2 0x49A SWAP3 SWAP2 SWAP1 PUSH2 0x1041 JUMP JUMPDEST PUSH1 0x40 MLOAD DUP1 SWAP2 SUB SWAP1 LOG1 PUSH2 0x4E9 CALLER PUSH1 0x7 PUSH0 CALLER PUSH20 0xFFFFFFFFFFFFFFFFFFFFFFFFFFFFFFFFFFFFFFFF AND PUSH20 0xFFFFFFFFFFFFFFFFFFFFFFFFFFFFFFFFFFFFFFFF AND DUP2 MSTORE PUSH1 0x20 ADD SWAP1 DUP2 MSTORE PUSH1 0x20 ADD PUSH0 KECCAK256 SLOAD PUSH2 0x5DC JUMP JUMPDEST PUSH1 0x7 PUSH0 CALLER PUSH20 0xFFFFFFFFFFFFFFFFFFFFFFFFFFFFFFFFFFFFFFFF AND PUSH20 0xFFFFFFFFFFFFFFFFFFFFFFFFFFFFFFFFFFFFFFFF AND DUP2 MSTORE PUSH1 0x20 ADD SWAP1 DUP2 MSTORE PUSH1 0x20 ADD PUSH0 KECCAK256 SLOAD SWAP2 POP POP SWAP1 JUMP JUMPDEST PUSH2 0x535 PUSH2 0xB87 JUMP JUMPDEST PUSH1 0x1 PUSH1 0x3 DUP1 PUSH1 0x20 MUL PUSH1 0x40 MLOAD SWAP1 DUP2 ADD PUSH1 0x40 MSTORE DUP1 SWAP3 SWAP2 SWAP1 PUSH0 SWAP1 JUMPDEST DUP3 DUP3 LT ISZERO PUSH2 0x5D3 JUMPI DUP4 DUP3 PUSH1 0x2 MUL ADD PUSH1 0x40 MLOAD DUP1 PUSH1 0x40 ADD PUSH1 0x40 MSTORE SWAP1 DUP2 PUSH0 DUP3 ADD PUSH0 SWAP1 SLOAD SWAP1 PUSH2 0x100 EXP SWAP1 DIV PUSH20 0xFFFFFFFFFFFFFFFFFFFFFFFFFFFFFFFFFFFFFFFF AND PUSH20 0xFFFFFFFFFFFFFFFFFFFFFFFFFFFFFFFFFFFFFFFF AND PUSH20 0xFFFFFFFFFFFFFFFFFFFFFFFFFFFFFFFFFFFFFFFF AND DUP2 MSTORE PUSH1 0x20 ADD PUSH1 0x1 DUP3 ADD SLOAD DUP2 MSTORE POP POP DUP2 MSTORE PUSH1 0x20 ADD SWAP1 PUSH1 0x1 ADD SWAP1 PUSH2 0x54D JUMP JUMPDEST POP POP POP POP SWAP1 POP SWAP1 JUMP JUMPDEST PUSH0 PUSH1 0x1 PUSH0 PUSH1 0x3 DUP2 LT PUSH2 0x5F1 JUMPI PUSH2 0x5F0 PUSH2 0x1068 JUMP JUMPDEST JUMPDEST PUSH1 0x2 MUL ADD PUSH1 0x40 MLOAD DUP1 PUSH1 0x40 ADD PUSH1 0x40 MSTORE SWAP1 DUP2 PUSH0 DUP3 ADD PUSH0 SWAP1 SLOAD SWAP1 PUSH2 0x100 EXP SWAP1 DIV PUSH20 0xFFFFFFFFFFFFFFFFFFFFFFFFFFFFFFFFFFFFFFFF AND PUSH20 0xFFFFFFFFFFFFFFFFFFFFFFFFFFFFFFFFFFFFFFFF AND PUSH20 0xFFFFFFFFFFFFFFFFFFFFFFFFFFFFFFFFFFFFFFFF AND DUP2 MSTORE PUSH1 0x20 ADD PUSH1 0x1 DUP3 ADD SLOAD DUP2 MSTORE POP POP SWAP1 POP DUP1 PUSH1 0x20 ADD MLOAD DUP3 GT DUP1 ISZERO PUSH2 0x6A2 JUMPI POP DUP3 PUSH20 0xFFFFFFFFFFFFFFFFFFFFFFFFFFFFFFFFFFFFFFFF AND DUP2 PUSH0 ADD MLOAD PUSH20 0xFFFFFFFFFFFFFFFFFFFFFFFFFFFFFFFFFFFFFFFF AND EQ ISZERO JUMPDEST ISZERO PUSH2 0x84C JUMPI PUSH1 0x40 MLOAD DUP1 PUSH1 0x40 ADD PUSH1 0x40 MSTORE DUP1 DUP5 PUSH20 0xFFFFFFFFFFFFFFFFFFFFFFFFFFFFFFFFFFFFFFFF AND DUP2 MSTORE PUSH1 0x20 ADD DUP4 DUP2 MSTORE POP PUSH1 0x1 PUSH0 PUSH1 0x3 DUP2 LT PUSH2 0x6E6 JUMPI PUSH2 0x6E5 PUSH2 0x1068 JUMP JUMPDEST JUMPDEST PUSH1 0x2 MUL ADD PUSH0 DUP3 ADD MLOAD DUP2 PUSH0 ADD PUSH0 PUSH2 0x100 EXP DUP2 SLOAD DUP2 PUSH20 0xFFFFFFFFFFFFFFFFFFFFFFFFFFFFFFFFFFFFFFFF MUL NOT AND SWAP1 DUP4 PUSH20 0xFFFFFFFFFFFFFFFFFFFFFFFFFFFFFFFFFFFFFFFF AND MUL OR SWAP1 SSTORE POP PUSH1 0x20 DUP3 ADD MLOAD DUP2 PUSH1 0x1 ADD SSTORE SWAP1 POP POP PUSH1 0x1 DUP1 PUSH1 0x3 DUP2 LT PUSH2 0x74F JUMPI PUSH2 0x74E PUSH2 0x1068 JUMP JUMPDEST JUMPDEST PUSH1 0x2 MUL ADD PUSH1 0x1 PUSH1 0x2 PUSH1 0x3 DUP2 LT PUSH2 0x768 JUMPI PUSH2 0x767 PUSH2 0x1068 JUMP JUMPDEST JUMPDEST PUSH1 0x2 MUL ADD PUSH0 DUP3 ADD PUSH0 SWAP1 SLOAD SWAP1 PUSH2 0x100 EXP SWAP1 DIV PUSH20 0xFFFFFFFFFFFFFFFFFFFFFFFFFFFFFFFFFFFFFFFF AND DUP2 PUSH0 ADD PUSH0 PUSH2 0x100 EXP DUP2 SLOAD DUP2 PUSH20 0xFFFFFFFFFFFFFFFFFFFFFFFFFFFFFFFFFFFFFFFF MUL NOT AND SWAP1 DUP4 PUSH20 0xFFFFFFFFFFFFFFFFFFFFFFFFFFFFFFFFFFFFFFFF AND MUL OR SWAP1 SSTORE POP PUSH1 0x1 DUP3 ADD SLOAD DUP2 PUSH1 0x1 ADD SSTORE SWAP1 POP POP DUP1 PUSH1 0x1 DUP1 PUSH1 0x3 DUP2 LT PUSH2 0x7F1 JUMPI PUSH2 0x7F0 PUSH2 0x1068 JUMP JUMPDEST JUMPDEST PUSH1 0x2 MUL ADD PUSH0 DUP3 ADD MLOAD DUP2 PUSH0 ADD PUSH0 PUSH2 0x100 EXP DUP2 SLOAD DUP2 PUSH20 0xFFFFFFFFFFFFFFFFFFFFFFFFFFFFFFFFFFFFFFFF MUL NOT AND SWAP1 DUP4 PUSH20 0xFFFFFFFFFFFFFFFFFFFFFFFFFFFFFFFFFFFFFFFF AND MUL OR SWAP1 SSTORE POP PUSH1 0x20 DUP3 ADD MLOAD DUP2 PUSH1 0x1 ADD SSTORE SWAP1 POP POP POP PUSH2 0xB83 JUMP JUMPDEST PUSH0 PUSH1 0x1 DUP1 PUSH1 0x3 DUP2 LT PUSH2 0x861 JUMPI PUSH2 0x860 PUSH2 0x1068 JUMP JUMPDEST JUMPDEST PUSH1 0x2 MUL ADD PUSH1 0x40 MLOAD DUP1 PUSH1 0x40 ADD PUSH1 0x40 MSTORE SWAP1 DUP2 PUSH0 DUP3 ADD PUSH0 SWAP1 SLOAD SWAP1 PUSH2 0x100 EXP SWAP1 DIV PUSH20 0xFFFFFFFFFFFFFFFFFFFFFFFFFFFFFFFFFFFFFFFF AND PUSH20 0xFFFFFFFFFFFFFFFFFFFFFFFFFFFFFFFFFFFFFFFF AND PUSH20 0xFFFFFFFFFFFFFFFFFFFFFFFFFFFFFFFFFFFFFFFF AND DUP2 MSTORE PUSH1 0x20 ADD PUSH1 0x1 DUP3 ADD SLOAD DUP2 MSTORE POP POP SWAP1 POP DUP1 PUSH1 0x20 ADD MLOAD DUP4 GT DUP1 ISZERO PUSH2 0x912 JUMPI POP DUP4 PUSH20 0xFFFFFFFFFFFFFFFFFFFFFFFFFFFFFFFFFFFFFFFF AND DUP2 PUSH0 ADD MLOAD PUSH20 0xFFFFFFFFFFFFFFFFFFFFFFFFFFFFFFFFFFFFFFFF AND EQ ISZERO JUMPDEST ISZERO PUSH2 0xA1D JUMPI PUSH1 0x40 MLOAD DUP1 PUSH1 0x40 ADD PUSH1 0x40 MSTORE DUP1 DUP6 PUSH20 0xFFFFFFFFFFFFFFFFFFFFFFFFFFFFFFFFFFFFFFFF AND DUP2 MSTORE PUSH1 0x20 ADD DUP5 DUP2 MSTORE POP PUSH1 0x1 DUP1 PUSH1 0x3 DUP2 LT PUSH2 0x956 JUMPI PUSH2 0x955 PUSH2 0x1068 JUMP JUMPDEST JUMPDEST PUSH1 0x2 MUL ADD PUSH0 DUP3 ADD MLOAD DUP2 PUSH0 ADD PUSH0 PUSH2 0x100 EXP DUP2 SLOAD DUP2 PUSH20 0xFFFFFFFFFFFFFFFFFFFFFFFFFFFFFFFFFFFFFFFF MUL NOT AND SWAP1 DUP4 PUSH20 0xFFFFFFFFFFFFFFFFFFFFFFFFFFFFFFFFFFFFFFFF AND MUL OR SWAP1 SSTORE POP PUSH1 0x20 DUP3 ADD MLOAD DUP2 PUSH1 0x1 ADD SSTORE SWAP1 POP POP DUP1 PUSH1 0x1 PUSH1 0x2 PUSH1 0x3 DUP2 LT PUSH2 0x9C1 JUMPI PUSH2 0x9C0 PUSH2 0x1068 JUMP JUMPDEST JUMPDEST PUSH1 0x2 MUL ADD PUSH0 DUP3 ADD MLOAD DUP2 PUSH0 ADD PUSH0 PUSH2 0x100 EXP DUP2 SLOAD DUP2 PUSH20 0xFFFFFFFFFFFFFFFFFFFFFFFFFFFFFFFFFFFFFFFF MUL NOT AND SWAP1 DUP4 PUSH20 0xFFFFFFFFFFFFFFFFFFFFFFFFFFFFFFFFFFFFFFFF AND MUL OR SWAP1 SSTORE POP PUSH1 0x20 DUP3 ADD MLOAD DUP2 PUSH1 0x1 ADD SSTORE SWAP1 POP POP POP POP PUSH2 0xB83 JUMP JUMPDEST PUSH0 PUSH1 0x1 PUSH1 0x2 PUSH1 0x3 DUP2 LT PUSH2 0xA33 JUMPI PUSH2 0xA32 PUSH2 0x1068 JUMP JUMPDEST JUMPDEST PUSH1 0x2 MUL ADD PUSH1 0x40 MLOAD DUP1 PUSH1 0x40 ADD PUSH1 0x40 MSTORE SWAP1 DUP2 PUSH0 DUP3 ADD PUSH0 SWAP1 SLOAD SWAP1 PUSH2 0x100 EXP SWAP1 DIV PUSH20 0xFFFFFFFFFFFFFFFFFFFFFFFFFFFFFFFFFFFFFFFF AND PUSH20 0xFFFFFFFFFFFFFFFFFFFFFFFFFFFFFFFFFFFFFFFF AND PUSH20 0xFFFFFFFFFFFFFFFFFFFFFFFFFFFFFFFFFFFFFFFF AND DUP2 MSTORE PUSH1 0x20 ADD PUSH1 0x1 DUP3 ADD SLOAD DUP2 MSTORE POP POP SWAP1 POP DUP1 PUSH1 0x20 ADD MLOAD DUP5 GT DUP1 ISZERO PUSH2 0xAE4 JUMPI POP DUP5 PUSH20 0xFFFFFFFFFFFFFFFFFFFFFFFFFFFFFFFFFFFFFFFF AND DUP2 PUSH0 ADD MLOAD PUSH20 0xFFFFFFFFFFFFFFFFFFFFFFFFFFFFFFFFFFFFFFFF AND EQ ISZERO JUMPDEST ISZERO PUSH2 0xB7F JUMPI PUSH1 0x40 MLOAD DUP1 PUSH1 0x40 ADD PUSH1 0x40 MSTORE DUP1 DUP7 PUSH20 0xFFFFFFFFFFFFFFFFFFFFFFFFFFFFFFFFFFFFFFFF AND DUP2 MSTORE PUSH1 0x20 ADD DUP6 DUP2 MSTORE POP PUSH1 0x1 PUSH1 0x2 PUSH1 0x3 DUP2 LT PUSH2 0xB29 JUMPI PUSH2 0xB28 PUSH2 0x1068 JUMP JUMPDEST JUMPDEST PUSH1 0x2 MUL ADD PUSH0 DUP3 ADD MLOAD DUP2 PUSH0 ADD PUSH0 PUSH2 0x100 EXP DUP2 SLOAD DUP2 PUSH20 0xFFFFFFFFFFFFFFFFFFFFFFFFFFFFFFFFFFFFFFFF MUL NOT AND SWAP1 DUP4 PUSH20 0xFFFFFFFFFFFFFFFFFFFFFFFFFFFFFFFFFFFFFFFF AND MUL OR SWAP1 SSTORE POP PUSH1 0x20 DUP3 ADD MLOAD DUP2 PUSH1 0x1 ADD SSTORE SWAP1 POP POP JUMPDEST POP POP POP JUMPDEST POP POP JUMP JUMPDEST PUSH1 0x40 MLOAD DUP1 PUSH1 0x60 ADD PUSH1 0x40 MSTORE DUP1 PUSH1 0x3 SWAP1 JUMPDEST PUSH2 0xB9E PUSH2 0xBB4 JUMP JUMPDEST DUP2 MSTORE PUSH1 0x20 ADD SWAP1 PUSH1 0x1 SWAP1 SUB SWAP1 DUP2 PUSH2 0xB96 JUMPI SWAP1 POP POP SWAP1 JUMP JUMPDEST PUSH1 0x40 MLOAD DUP1 PUSH1 0x40 ADD PUSH1 0x40 MSTORE DUP1 PUSH0 PUSH20 0xFFFFFFFFFFFFFFFFFFFFFFFFFFFFFFFFFFFFFFFF AND DUP2 MSTORE PUSH1 0x20 ADD PUSH0 DUP2 MSTORE POP SWAP1 JUMP JUMPDEST PUSH0 PUSH0 REVERT JUMPDEST PUSH0 PUSH20 0xFFFFFFFFFFFFFFFFFFFFFFFFFFFFFFFFFFFFFFFF DUP3 AND SWAP1 POP SWAP2 SWAP1 POP JUMP JUMPDEST PUSH0 PUSH2 0xC0F DUP3 PUSH2 0xBE6 JUMP JUMPDEST SWAP1 POP SWAP2 SWAP1 POP JUMP JUMPDEST PUSH2 0xC1F DUP2 PUSH2 0xC05 JUMP JUMPDEST DUP2 EQ PUSH2 0xC29 JUMPI PUSH0 PUSH0 REVERT JUMPDEST POP JUMP JUMPDEST PUSH0 DUP2 CALLDATALOAD SWAP1 POP PUSH2 0xC3A DUP2 PUSH2 0xC16 JUMP JUMPDEST SWAP3 SWAP2 POP POP JUMP JUMPDEST PUSH0 PUSH1 0x20 DUP3 DUP5 SUB SLT ISZERO PUSH2 0xC55 JUMPI PUSH2 0xC54 PUSH2 0xBE2 JUMP JUMPDEST JUMPDEST PUSH0 PUSH2 0xC62 DUP5 DUP3 DUP6 ADD PUSH2 0xC2C JUMP JUMPDEST SWAP2 POP POP SWAP3 SWAP2 POP POP JUMP JUMPDEST PUSH0 DUP2 SWAP1 POP SWAP2 SWAP1 POP JUMP JUMPDEST PUSH2 0xC7D DUP2 PUSH2 0xC6B JUMP JUMPDEST DUP3 MSTORE POP POP JUMP JUMPDEST PUSH0 PUSH1 0x20 DUP3 ADD SWAP1 POP PUSH2 0xC96 PUSH0 DUP4 ADD DUP5 PUSH2 0xC74 JUMP JUMPDEST SWAP3 SWAP2 POP POP JUMP JUMPDEST PUSH0 PUSH1 0x3 SWAP1 POP SWAP2 SWAP1 POP JUMP JUMPDEST PUSH0 DUP2 SWAP1 POP SWAP3 SWAP2 POP POP JUMP JUMPDEST PUSH0 DUP2 SWAP1 POP SWAP2 SWAP1 POP JUMP JUMPDEST PUSH2 0xCC2 DUP2 PUSH2 0xC05 JUMP JUMPDEST DUP3 MSTORE POP POP JUMP JUMPDEST PUSH2 0xCD1 DUP2 PUSH2 0xC6B JUMP JUMPDEST DUP3 MSTORE POP POP JUMP JUMPDEST PUSH1 0x40 DUP3 ADD PUSH0 DUP3 ADD MLOAD PUSH2 0xCEB PUSH0 DUP6 ADD DUP3 PUSH2 0xCB9 JUMP JUMPDEST POP PUSH1 0x20 DUP3 ADD MLOAD PUSH2 0xCFE PUSH1 0x20 DUP6 ADD DUP3 PUSH2 0xCC8 JUMP JUMPDEST POP POP POP POP JUMP JUMPDEST PUSH0 PUSH2 0xD0F DUP4 DUP4 PUSH2 0xCD7 JUMP JUMPDEST PUSH1 0x40 DUP4 ADD SWAP1 POP SWAP3 SWAP2 POP POP JUMP JUMPDEST PUSH0 PUSH1 0x20 DUP3 ADD SWAP1 POP SWAP2 SWAP1 POP JUMP JUMPDEST PUSH2 0xD30 DUP2 PUSH2 0xC9C JUMP JUMPDEST PUSH2 0xD3A DUP2 DUP5 PUSH2 0xCA6 JUMP JUMPDEST SWAP3 POP PUSH2 0xD45 DUP3 PUSH2 0xCB0 JUMP JUMPDEST DUP1 PUSH0 JUMPDEST DUP4 DUP2 LT ISZERO PUSH2 0xD75 JUMPI DUP2 MLOAD PUSH2 0xD5C DUP8 DUP3 PUSH2 0xD04 JUMP JUMPDEST SWAP7 POP PUSH2 0xD67 DUP4 PUSH2 0xD1B JUMP JUMPDEST SWAP3 POP POP PUSH1 0x1 DUP2 ADD SWAP1 POP PUSH2 0xD48 JUMP JUMPDEST POP POP POP POP POP POP JUMP JUMPDEST PUSH0 PUSH1 0xC0 DUP3 ADD SWAP1 POP PUSH2 0xD90 PUSH0 DUP4 ADD DUP5 PUSH2 0xD27 JUMP JUMPDEST SWAP3 SWAP2 POP POP JUMP JUMPDEST PUSH0 DUP3 DUP3 MSTORE PUSH1 0x20 DUP3 ADD SWAP1 POP SWAP3 SWAP2 POP POP JUMP JUMPDEST PUSH32 0x6E6F742070726976617465206F776E6572000000000000000000000000000000 PUSH0 DUP3 ADD MSTORE POP JUMP JUMPDEST PUSH0 PUSH2 0xDDA PUSH1 0x11 DUP4 PUSH2 0xD96 JUMP JUMPDEST SWAP2 POP PUSH2 0xDE5 DUP3 PUSH2 0xDA6 JUMP JUMPDEST PUSH1 0x20 DUP3 ADD SWAP1 POP SWAP2 SWAP1 POP JUMP JUMPDEST PUSH0 PUSH1 0x20 DUP3 ADD SWAP1 POP DUP2 DUP2 SUB PUSH0 DUP4 ADD MSTORE PUSH2 0xE07 DUP2 PUSH2 0xDCE JUMP JUMPDEST SWAP1 POP SWAP2 SWAP1 POP JUMP JUMPDEST PUSH0 DUP2 SWAP1 POP SWAP3 SWAP2 POP POP JUMP JUMPDEST POP JUMP JUMPDEST PUSH0 PUSH2 0xE26 PUSH0 DUP4 PUSH2 0xE0E JUMP JUMPDEST SWAP2 POP PUSH2 0xE31 DUP3 PUSH2 0xE18 JUMP JUMPDEST PUSH0 DUP3 ADD SWAP1 POP SWAP2 SWAP1 POP JUMP JUMPDEST PUSH0 PUSH2 0xE45 DUP3 PUSH2 0xE1B JUMP JUMPDEST SWAP2 POP DUP2 SWAP1 POP SWAP2 SWAP1 POP JUMP JUMPDEST PUSH32 0x43616C6C206661696C6564000000000000000000000000000000000000000000 PUSH0 DUP3 ADD MSTORE POP JUMP JUMPDEST PUSH0 PUSH2 0xE83 PUSH1 0xB DUP4 PUSH2 0xD96 JUMP JUMPDEST SWAP2 POP PUSH2 0xE8E DUP3 PUSH2 0xE4F JUMP JUMPDEST PUSH1 0x20 DUP3 ADD SWAP1 POP SWAP2 SWAP1 POP JUMP JUMPDEST PUSH0 PUSH1 0x20 DUP3 ADD SWAP1 POP DUP2 DUP2 SUB PUSH0 DUP4 ADD MSTORE PUSH2 0xEB0 DUP2 PUSH2 0xE77 JUMP JUMPDEST SWAP1 POP SWAP2 SWAP1 POP JUMP JUMPDEST PUSH32 0x4E487B7100000000000000000000000000000000000000000000000000000000 PUSH0 MSTORE PUSH1 0x12 PUSH1 0x4 MSTORE PUSH1 0x24 PUSH0 REVERT JUMPDEST PUSH0 PUSH2 0xEEE DUP3 PUSH2 0xC6B JUMP JUMPDEST SWAP2 POP PUSH2 0xEF9 DUP4 PUSH2 0xC6B JUMP JUMPDEST SWAP3 POP DUP3 PUSH2 0xF09 JUMPI PUSH2 0xF08 PUSH2 0xEB7 JUMP JUMPDEST JUMPDEST DUP3 DUP3 MOD SWAP1 POP SWAP3 SWAP2 POP POP JUMP JUMPDEST PUSH32 0x4E487B7100000000000000000000000000000000000000000000000000000000 PUSH0 MSTORE PUSH1 0x11 PUSH1 0x4 MSTORE PUSH1 0x24 PUSH0 REVERT JUMPDEST PUSH0 PUSH2 0xF4B DUP3 PUSH2 0xC6B JUMP JUMPDEST SWAP2 POP PUSH2 0xF56 DUP4 PUSH2 0xC6B JUMP JUMPDEST SWAP3 POP DUP3 PUSH2 0xF66 JUMPI PUSH2 0xF65 PUSH2 0xEB7 JUMP JUMPDEST JUMPDEST DUP3 DUP3 DIV SWAP1 POP SWAP3 SWAP2 POP POP JUMP JUMPDEST PUSH32 0x446F6E6174696F6E206F6E6C7920616C6C6F776564206265747765656E20383A PUSH0 DUP3 ADD MSTORE PUSH32 0x303020616E642032303A30302055544300000000000000000000000000000000 PUSH1 0x20 DUP3 ADD MSTORE POP JUMP JUMPDEST PUSH0 PUSH2 0xFCB PUSH1 0x30 DUP4 PUSH2 0xD96 JUMP JUMPDEST SWAP2 POP PUSH2 0xFD6 DUP3 PUSH2 0xF71 JUMP JUMPDEST PUSH1 0x40 DUP3 ADD SWAP1 POP SWAP2 SWAP1 POP JUMP JUMPDEST PUSH0 PUSH1 0x20 DUP3 ADD SWAP1 POP DUP2 DUP2 SUB PUSH0 DUP4 ADD MSTORE PUSH2 0xFF8 DUP2 PUSH2 0xFBF JUMP JUMPDEST SWAP1 POP SWAP2 SWAP1 POP JUMP JUMPDEST PUSH0 PUSH2 0x1009 DUP3 PUSH2 0xC6B JUMP JUMPDEST SWAP2 POP PUSH2 0x1014 DUP4 PUSH2 0xC6B JUMP JUMPDEST SWAP3 POP DUP3 DUP3 ADD SWAP1 POP DUP1 DUP3 GT ISZERO PUSH2 0x102C JUMPI PUSH2 0x102B PUSH2 0xF14 JUMP JUMPDEST JUMPDEST SWAP3 SWAP2 POP POP JUMP JUMPDEST PUSH2 0x103B DUP2 PUSH2 0xC05 JUMP JUMPDEST DUP3 MSTORE POP POP JUMP JUMPDEST PUSH0 PUSH1 0x40 DUP3 ADD SWAP1 POP PUSH2 0x1054 PUSH0 DUP4 ADD DUP6 PUSH2 0x1032 JUMP JUMPDEST PUSH2 0x1061 PUSH1 0x20 DUP4 ADD DUP5 PUSH2 0xC74 JUMP JUMPDEST SWAP4 SWAP3 POP POP POP JUMP JUMPDEST PUSH32 0x4E487B7100000000000000000000000000000000000000000000000000000000 PUSH0 MSTORE PUSH1 0x32 PUSH1 0x4 MSTORE PUSH1 0x24 PUSH0 REVERT INVALID LOG2 PUSH5 0x6970667358 0x22 SLT KECCAK256 PUSH25 0x8F1C25F64E40DF537A74D990012F9A041CEC174AA74BFC0FD9 PUSH12 0x865C978EA564736F6C634300 ADDMOD 0x1E STOP CALLER "
				},
				"gasEstimates": {
					"creation": {
						"codeDepositCost": "859800",
						"executionCost": "25158",
						"totalCost": "884958"
					},
					"external": {
						"": "173",
						"END_HOUR()": "325",
						"START_HOUR()": "392",
						"donate()": "infinite",
						"donationRank()": "infinite",
						"donations(address)": "2824",
						"getDonation(address)": "2852",
						"getUTCHour()": "infinite",
						"withdraw()": "infinite"
					},
					"internal": {
						"updateRank(address,uint256)": "infinite"
					}
				},
				"methodIdentifiers": {
					"END_HOUR()": "7b072a89",
					"START_HOUR()": "5987758c",
					"donate()": "ed88c68e",
					"donationRank()": "fe706580",
					"donations(address)": "cc6cb19a",
					"getDonation(address)": "410a1d32",
					"getUTCHour()": "46bd607e",
					"withdraw()": "3ccfd60b"
				}
			},
			"storageLayout": {
				"storage": [
					{
						"astId": 9,
						"contract": "Begging/Begging.sol:Begging",
						"label": "owner",
						"offset": 0,
						"slot": "0",
						"type": "t_address"
					},
					{
						"astId": 19,
						"contract": "Begging/Begging.sol:Begging",
						"label": "rankList",
						"offset": 0,
						"slot": "1",
						"type": "t_array(t_struct(RankInfo)14_storage)3_storage"
					},
					{
						"astId": 32,
						"contract": "Begging/Begging.sol:Begging",
						"label": "donations",
						"offset": 0,
						"slot": "7",
						"type": "t_mapping(t_address,t_uint256)"
					}
				],
				"types": {
					"t_address": {
						"encoding": "inplace",
						"label": "address",
						"numberOfBytes": "20"
					},
					"t_array(t_struct(RankInfo)14_storage)3_storage": {
						"base": "t_struct(RankInfo)14_storage",
						"encoding": "inplace",
						"label": "struct Begging.RankInfo[3]",
						"numberOfBytes": "192"
					},
					"t_mapping(t_address,t_uint256)": {
						"encoding": "mapping",
						"key": "t_address",
						"label": "mapping(address => uint256)",
						"numberOfBytes": "32",
						"value": "t_uint256"
					},
					"t_struct(RankInfo)14_storage": {
						"encoding": "inplace",
						"label": "struct Begging.RankInfo",
						"members": [
							{
								"astId": 11,
								"contract": "Begging/Begging.sol:Begging",
								"label": "account",
								"offset": 0,
								"slot": "0",
								"type": "t_address"
							},
							{
								"astId": 13,
								"contract": "Begging/Begging.sol:Begging",
								"label": "amount",
								"offset": 0,
								"slot": "1",
								"type": "t_uint256"
							}
						],
						"numberOfBytes": "64"
					},
					"t_uint256": {
						"encoding": "inplace",
						"label": "uint256",
						"numberOfBytes": "32"
					}
				}
			},
			"userdoc": {
				"kind": "user",
				"methods": {},
				"version": 1
			}
		}
	}
}