{
	"RomanToInt.sol": {
		"RomanToInt": {
			"abi": [
				{
					"inputs": [
						{
							"internalType": "uint32",
							"name": "num",
							"type": "uint32"
						}
					],
					"name": "intToRoman",
					"outputs": [
						{
							"internalType": "string",
							"name": "",
							"type": "string"
						}
					],
					"stateMutability": "pure",
					"type": "function"
				},
				{
					"inputs": [
						{
							"internalType": "string",
							"name": "roman",
							"type": "string"
						}
					],
					"name": "romanToInt",
					"outputs": [
						{
							"internalType": "uint64",
							"name": "",
							"type": "uint64"
						}
					],
					"stateMutability": "pure",
					"type": "function"
				}
			],
			"devdoc": {
				"kind": "dev",
				"methods": {},
				"version": 1
			},
			"evm": {
				"assembly": "    /* \"RomanToInt.sol\":1063:3584  contract RomanToInt {... */\n  mstore(0x40, 0x80)\n  callvalue\n  dup1\n  iszero\n  tag_1\n  jumpi\n  revert(0x00, 0x00)\ntag_1:\n  pop\n  dataSize(sub_0)\n  dup1\n  dataOffset(sub_0)\n  0x00\n  codecopy\n  0x00\n  return\nstop\n\nsub_0: assembly {\n        /* \"RomanToInt.sol\":1063:3584  contract RomanToInt {... */\n      mstore(0x40, 0x80)\n      callvalue\n      dup1\n      iszero\n      tag_1\n      jumpi\n      revert(0x00, 0x00)\n    tag_1:\n      pop\n      jumpi(tag_2, lt(calldatasize, 0x04))\n      shr(0xe0, calldataload(0x00))\n      dup1\n      0xcb159dfe\n      eq\n      tag_3\n      jumpi\n      dup1\n      0xfb3b7896\n      eq\n      tag_4\n      jumpi\n    tag_2:\n      revert(0x00, 0x00)\n        /* \"RomanToInt.sol\":2330:3581  function romanToInt(string memory roman) public pure returns (uint64) {... */\n    tag_3:\n      tag_5\n      0x04\n      dup1\n      calldatasize\n      sub\n      dup2\n      add\n      swap1\n      tag_6\n      swap2\n      swap1\n      tag_7\n      jump\t// in\n    tag_6:\n      tag_8\n      jump\t// in\n    tag_5:\n      mload(0x40)\n      tag_9\n      swap2\n      swap1\n      tag_10\n      jump\t// in\n    tag_9:\n      mload(0x40)\n      dup1\n      swap2\n      sub\n      swap1\n      return\n        /* \"RomanToInt.sol\":1090:2321  function intToRoman(uint32 num) public pure returns (string memory) {... */\n    tag_4:\n      tag_11\n      0x04\n      dup1\n      calldatasize\n      sub\n      dup2\n      add\n      swap1\n      tag_12\n      swap2\n      swap1\n      tag_13\n      jump\t// in\n    tag_12:\n      tag_14\n      jump\t// in\n    tag_11:\n      mload(0x40)\n      tag_15\n      swap2\n      swap1\n      tag_16\n      jump\t// in\n    tag_15:\n      mload(0x40)\n      dup1\n      swap2\n      sub\n      swap1\n      return\n        /* \"RomanToInt.sol\":2330:3581  function romanToInt(string memory roman) public pure returns (uint64) {... */\n    tag_8:\n        /* \"RomanToInt.sol\":2392:2398  uint64 */\n      0x00\n        /* \"RomanToInt.sol\":2411:2433  bytes memory romanByte */\n      0x00\n        /* \"RomanToInt.sol\":2442:2447  roman */\n      dup3\n        /* \"RomanToInt.sol\":2411:2448  bytes memory romanByte = bytes(roman) */\n      swap1\n      pop\n        /* \"RomanToInt.sol\":2459:2473  bytes32 keckak */\n      0x00\n        /* \"RomanToInt.sol\":2503:2508  roman */\n      dup4\n        /* \"RomanToInt.sol\":2486:2509  abi.encodePacked(roman) */\n      add(0x20, mload(0x40))\n      tag_18\n      swap2\n      swap1\n      tag_19\n      jump\t// in\n    tag_18:\n      mload(0x40)\n      0x20\n      dup2\n      dup4\n      sub\n      sub\n      dup2\n      mstore\n      swap1\n      0x40\n      mstore\n        /* \"RomanToInt.sol\":2476:2510  keccak256(abi.encodePacked(roman)) */\n      dup1\n      mload\n      swap1\n      0x20\n      add\n      keccak256\n        /* \"RomanToInt.sol\":2459:2510  bytes32 keckak = keccak256(abi.encodePacked(roman)) */\n      swap1\n      pop\n        /* \"RomanToInt.sol\":2545:2567  abi.encodePacked(\"IV\") */\n      add(0x20, mload(0x40))\n      tag_20\n      swap1\n      tag_21\n      jump\t// in\n    tag_20:\n      mload(0x40)\n      0x20\n      dup2\n      dup4\n      sub\n      sub\n      dup2\n      mstore\n      swap1\n      0x40\n      mstore\n        /* \"RomanToInt.sol\":2535:2568  keccak256(abi.encodePacked(\"IV\")) */\n      dup1\n      mload\n      swap1\n      0x20\n      add\n      keccak256\n        /* \"RomanToInt.sol\":2525:2531  keckak */\n      dup2\n        /* \"RomanToInt.sol\":2525:2568  keckak == keccak256(abi.encodePacked(\"IV\")) */\n      sub\n        /* \"RomanToInt.sol\":2521:2581  if (keckak == keccak256(abi.encodePacked(\"IV\"))) {return 4;} */\n      tag_22\n      jumpi\n        /* \"RomanToInt.sol\":2578:2579  4 */\n      0x04\n        /* \"RomanToInt.sol\":2571:2579  return 4 */\n      swap3\n      pop\n      pop\n      pop\n      jump(tag_17)\n        /* \"RomanToInt.sol\":2521:2581  if (keckak == keccak256(abi.encodePacked(\"IV\"))) {return 4;} */\n    tag_22:\n        /* \"RomanToInt.sol\":2615:2637  abi.encodePacked(\"IX\") */\n      add(0x20, mload(0x40))\n      tag_23\n      swap1\n      tag_24\n      jump\t// in\n    tag_23:\n      mload(0x40)\n      0x20\n      dup2\n      dup4\n      sub\n      sub\n      dup2\n      mstore\n      swap1\n      0x40\n      mstore\n        /* \"RomanToInt.sol\":2605:2638  keccak256(abi.encodePacked(\"IX\")) */\n      dup1\n      mload\n      swap1\n      0x20\n      add\n      keccak256\n        /* \"RomanToInt.sol\":2595:2601  keckak */\n      dup2\n        /* \"RomanToInt.sol\":2595:2638  keckak == keccak256(abi.encodePacked(\"IX\")) */\n      sub\n        /* \"RomanToInt.sol\":2591:2651  if (keckak == keccak256(abi.encodePacked(\"IX\"))) {return 9;} */\n      tag_25\n      jumpi\n        /* \"RomanToInt.sol\":2648:2649  9 */\n      0x09\n        /* \"RomanToInt.sol\":2641:2649  return 9 */\n      swap3\n      pop\n      pop\n      pop\n      jump(tag_17)\n        /* \"RomanToInt.sol\":2591:2651  if (keckak == keccak256(abi.encodePacked(\"IX\"))) {return 9;} */\n    tag_25:\n        /* \"RomanToInt.sol\":2685:2707  abi.encodePacked(\"XL\") */\n      add(0x20, mload(0x40))\n      tag_26\n      swap1\n      tag_27\n      jump\t// in\n    tag_26:\n      mload(0x40)\n      0x20\n      dup2\n      dup4\n      sub\n      sub\n      dup2\n      mstore\n      swap1\n      0x40\n      mstore\n        /* \"RomanToInt.sol\":2675:2708  keccak256(abi.encodePacked(\"XL\")) */\n      dup1\n      mload\n      swap1\n      0x20\n      add\n      keccak256\n        /* \"RomanToInt.sol\":2665:2671  keckak */\n      dup2\n        /* \"RomanToInt.sol\":2665:2708  keckak == keccak256(abi.encodePacked(\"XL\")) */\n      sub\n        /* \"RomanToInt.sol\":2661:2722  if (keckak == keccak256(abi.encodePacked(\"XL\"))) {return 40;} */\n      tag_28\n      jumpi\n        /* \"RomanToInt.sol\":2718:2720  40 */\n      0x28\n        /* \"RomanToInt.sol\":2711:2720  return 40 */\n      swap3\n      pop\n      pop\n      pop\n      jump(tag_17)\n        /* \"RomanToInt.sol\":2661:2722  if (keckak == keccak256(abi.encodePacked(\"XL\"))) {return 40;} */\n    tag_28:\n        /* \"RomanToInt.sol\":2756:2778  abi.encodePacked(\"XC\") */\n      add(0x20, mload(0x40))\n      tag_29\n      swap1\n      tag_30\n      jump\t// in\n    tag_29:\n      mload(0x40)\n      0x20\n      dup2\n      dup4\n      sub\n      sub\n      dup2\n      mstore\n      swap1\n      0x40\n      mstore\n        /* \"RomanToInt.sol\":2746:2779  keccak256(abi.encodePacked(\"XC\")) */\n      dup1\n      mload\n      swap1\n      0x20\n      add\n      keccak256\n        /* \"RomanToInt.sol\":2736:2742  keckak */\n      dup2\n        /* \"RomanToInt.sol\":2736:2779  keckak == keccak256(abi.encodePacked(\"XC\")) */\n      sub\n        /* \"RomanToInt.sol\":2732:2793  if (keckak == keccak256(abi.encodePacked(\"XC\"))) {return 90;} */\n      tag_31\n      jumpi\n        /* \"RomanToInt.sol\":2789:2791  90 */\n      0x5a\n        /* \"RomanToInt.sol\":2782:2791  return 90 */\n      swap3\n      pop\n      pop\n      pop\n      jump(tag_17)\n        /* \"RomanToInt.sol\":2732:2793  if (keckak == keccak256(abi.encodePacked(\"XC\"))) {return 90;} */\n    tag_31:\n        /* \"RomanToInt.sol\":2827:2849  abi.encodePacked(\"CD\") */\n      add(0x20, mload(0x40))\n      tag_32\n      swap1\n      tag_33\n      jump\t// in\n    tag_32:\n      mload(0x40)\n      0x20\n      dup2\n      dup4\n      sub\n      sub\n      dup2\n      mstore\n      swap1\n      0x40\n      mstore\n        /* \"RomanToInt.sol\":2817:2850  keccak256(abi.encodePacked(\"CD\")) */\n      dup1\n      mload\n      swap1\n      0x20\n      add\n      keccak256\n        /* \"RomanToInt.sol\":2807:2813  keckak */\n      dup2\n        /* \"RomanToInt.sol\":2807:2850  keckak == keccak256(abi.encodePacked(\"CD\")) */\n      sub\n        /* \"RomanToInt.sol\":2803:2865  if (keckak == keccak256(abi.encodePacked(\"CD\"))) {return 400;} */\n      tag_34\n      jumpi\n        /* \"RomanToInt.sol\":2860:2863  400 */\n      0x0190\n        /* \"RomanToInt.sol\":2853:2863  return 400 */\n      swap3\n      pop\n      pop\n      pop\n      jump(tag_17)\n        /* \"RomanToInt.sol\":2803:2865  if (keckak == keccak256(abi.encodePacked(\"CD\"))) {return 400;} */\n    tag_34:\n        /* \"RomanToInt.sol\":2899:2921  abi.encodePacked(\"CM\") */\n      add(0x20, mload(0x40))\n      tag_35\n      swap1\n      tag_36\n      jump\t// in\n    tag_35:\n      mload(0x40)\n      0x20\n      dup2\n      dup4\n      sub\n      sub\n      dup2\n      mstore\n      swap1\n      0x40\n      mstore\n        /* \"RomanToInt.sol\":2889:2922  keccak256(abi.encodePacked(\"CM\")) */\n      dup1\n      mload\n      swap1\n      0x20\n      add\n      keccak256\n        /* \"RomanToInt.sol\":2879:2885  keckak */\n      dup2\n        /* \"RomanToInt.sol\":2879:2922  keckak == keccak256(abi.encodePacked(\"CM\")) */\n      sub\n        /* \"RomanToInt.sol\":2875:2937  if (keckak == keccak256(abi.encodePacked(\"CM\"))) {return 900;} */\n      tag_37\n      jumpi\n        /* \"RomanToInt.sol\":2932:2935  900 */\n      0x0384\n        /* \"RomanToInt.sol\":2925:2935  return 900 */\n      swap3\n      pop\n      pop\n      pop\n      jump(tag_17)\n        /* \"RomanToInt.sol\":2875:2937  if (keckak == keccak256(abi.encodePacked(\"CM\"))) {return 900;} */\n    tag_37:\n        /* \"RomanToInt.sol\":2949:2959  uint64 num */\n      0x00\n        /* \"RomanToInt.sol\":2962:2963  0 */\n      0x00\n        /* \"RomanToInt.sol\":2949:2963  uint64 num = 0 */\n      swap1\n      pop\n        /* \"RomanToInt.sol\":2979:2987  uint32 i */\n      0x00\n        /* \"RomanToInt.sol\":2990:2991  0 */\n      0x00\n        /* \"RomanToInt.sol\":2979:2991  uint32 i = 0 */\n      swap1\n      pop\n        /* \"RomanToInt.sol\":2974:3551  for (uint32 i = 0; i < romanByte.length; i++) {... */\n    tag_38:\n        /* \"RomanToInt.sol\":2997:3006  romanByte */\n      dup4\n        /* \"RomanToInt.sol\":2997:3013  romanByte.length */\n      mload\n        /* \"RomanToInt.sol\":2993:2994  i */\n      dup2\n        /* \"RomanToInt.sol\":2993:3013  i < romanByte.length */\n      0xffffffff\n      and\n      lt\n        /* \"RomanToInt.sol\":2974:3551  for (uint32 i = 0; i < romanByte.length; i++) {... */\n      iszero\n      tag_39\n      jumpi\n        /* \"RomanToInt.sol\":3039:3058  romanByte[i] == 'M' */\n      0x4d00000000000000000000000000000000000000000000000000000000000000\n        /* \"RomanToInt.sol\":3039:3048  romanByte */\n      dup5\n        /* \"RomanToInt.sol\":3049:3050  i */\n      dup3\n        /* \"RomanToInt.sol\":3039:3051  romanByte[i] */\n      0xffffffff\n      and\n      dup2\n      mload\n      dup2\n      lt\n      tag_41\n      jumpi\n      tag_42\n      tag_43\n      jump\t// in\n    tag_42:\n    tag_41:\n      0x20\n      add\n      add\n      mload\n      0xf8\n      shr\n      0xf8\n      shl\n        /* \"RomanToInt.sol\":3039:3058  romanByte[i] == 'M' */\n      not(0xffffffffffffffffffffffffffffffffffffffffffffffffffffffffffffff)\n      and\n      sub\n        /* \"RomanToInt.sol\":3035:3540  if (romanByte[i] == 'M') {... */\n      tag_44\n      jumpi\n        /* \"RomanToInt.sol\":3086:3090  1000 */\n      0x03e8\n        /* \"RomanToInt.sol\":3079:3090  num += 1000 */\n      dup3\n      tag_45\n      swap2\n      swap1\n      tag_46\n      jump\t// in\n    tag_45:\n      swap2\n      pop\n        /* \"RomanToInt.sol\":3035:3540  if (romanByte[i] == 'M') {... */\n      jump(tag_47)\n    tag_44:\n        /* \"RomanToInt.sol\":3116:3135  romanByte[i] == 'D' */\n      0x4400000000000000000000000000000000000000000000000000000000000000\n        /* \"RomanToInt.sol\":3116:3125  romanByte */\n      dup5\n        /* \"RomanToInt.sol\":3126:3127  i */\n      dup3\n        /* \"RomanToInt.sol\":3116:3128  romanByte[i] */\n      0xffffffff\n      and\n      dup2\n      mload\n      dup2\n      lt\n      tag_48\n      jumpi\n      tag_49\n      tag_43\n      jump\t// in\n    tag_49:\n    tag_48:\n      0x20\n      add\n      add\n      mload\n      0xf8\n      shr\n      0xf8\n      shl\n        /* \"RomanToInt.sol\":3116:3135  romanByte[i] == 'D' */\n      not(0xffffffffffffffffffffffffffffffffffffffffffffffffffffffffffffff)\n      and\n      sub\n        /* \"RomanToInt.sol\":3112:3540  if (romanByte[i] == 'D') {... */\n      tag_50\n      jumpi\n        /* \"RomanToInt.sol\":3163:3166  500 */\n      0x01f4\n        /* \"RomanToInt.sol\":3156:3166  num += 500 */\n      dup3\n      tag_51\n      swap2\n      swap1\n      tag_46\n      jump\t// in\n    tag_51:\n      swap2\n      pop\n        /* \"RomanToInt.sol\":3112:3540  if (romanByte[i] == 'D') {... */\n      jump(tag_52)\n    tag_50:\n        /* \"RomanToInt.sol\":3192:3211  romanByte[i] == 'C' */\n      0x4300000000000000000000000000000000000000000000000000000000000000\n        /* \"RomanToInt.sol\":3192:3201  romanByte */\n      dup5\n        /* \"RomanToInt.sol\":3202:3203  i */\n      dup3\n        /* \"RomanToInt.sol\":3192:3204  romanByte[i] */\n      0xffffffff\n      and\n      dup2\n      mload\n      dup2\n      lt\n      tag_53\n      jumpi\n      tag_54\n      tag_43\n      jump\t// in\n    tag_54:\n    tag_53:\n      0x20\n      add\n      add\n      mload\n      0xf8\n      shr\n      0xf8\n      shl\n        /* \"RomanToInt.sol\":3192:3211  romanByte[i] == 'C' */\n      not(0xffffffffffffffffffffffffffffffffffffffffffffffffffffffffffffff)\n      and\n      sub\n        /* \"RomanToInt.sol\":3188:3540  if (romanByte[i] == 'C') {... */\n      tag_55\n      jumpi\n        /* \"RomanToInt.sol\":3239:3242  100 */\n      0x64\n        /* \"RomanToInt.sol\":3232:3242  num += 100 */\n      dup3\n      tag_56\n      swap2\n      swap1\n      tag_46\n      jump\t// in\n    tag_56:\n      swap2\n      pop\n        /* \"RomanToInt.sol\":3188:3540  if (romanByte[i] == 'C') {... */\n      jump(tag_57)\n    tag_55:\n        /* \"RomanToInt.sol\":3269:3288  romanByte[i] == 'L' */\n      0x4c00000000000000000000000000000000000000000000000000000000000000\n        /* \"RomanToInt.sol\":3269:3278  romanByte */\n      dup5\n        /* \"RomanToInt.sol\":3279:3280  i */\n      dup3\n        /* \"RomanToInt.sol\":3269:3281  romanByte[i] */\n      0xffffffff\n      and\n      dup2\n      mload\n      dup2\n      lt\n      tag_58\n      jumpi\n      tag_59\n      tag_43\n      jump\t// in\n    tag_59:\n    tag_58:\n      0x20\n      add\n      add\n      mload\n      0xf8\n      shr\n      0xf8\n      shl\n        /* \"RomanToInt.sol\":3269:3288  romanByte[i] == 'L' */\n      not(0xffffffffffffffffffffffffffffffffffffffffffffffffffffffffffffff)\n      and\n      sub\n        /* \"RomanToInt.sol\":3265:3540  if (romanByte[i] == 'L') {... */\n      tag_60\n      jumpi\n        /* \"RomanToInt.sol\":3316:3318  50 */\n      0x32\n        /* \"RomanToInt.sol\":3309:3318  num += 50 */\n      dup3\n      tag_61\n      swap2\n      swap1\n      tag_46\n      jump\t// in\n    tag_61:\n      swap2\n      pop\n        /* \"RomanToInt.sol\":3265:3540  if (romanByte[i] == 'L') {... */\n      jump(tag_62)\n    tag_60:\n        /* \"RomanToInt.sol\":3346:3365  romanByte[i] == 'X' */\n      0x5800000000000000000000000000000000000000000000000000000000000000\n        /* \"RomanToInt.sol\":3346:3355  romanByte */\n      dup5\n        /* \"RomanToInt.sol\":3356:3357  i */\n      dup3\n        /* \"RomanToInt.sol\":3346:3358  romanByte[i] */\n      0xffffffff\n      and\n      dup2\n      mload\n      dup2\n      lt\n      tag_63\n      jumpi\n      tag_64\n      tag_43\n      jump\t// in\n    tag_64:\n    tag_63:\n      0x20\n      add\n      add\n      mload\n      0xf8\n      shr\n      0xf8\n      shl\n        /* \"RomanToInt.sol\":3346:3365  romanByte[i] == 'X' */\n      not(0xffffffffffffffffffffffffffffffffffffffffffffffffffffffffffffff)\n      and\n      sub\n        /* \"RomanToInt.sol\":3342:3540  if (romanByte[i] == 'X') {... */\n      tag_65\n      jumpi\n        /* \"RomanToInt.sol\":3393:3395  10 */\n      0x0a\n        /* \"RomanToInt.sol\":3386:3395  num += 10 */\n      dup3\n      tag_66\n      swap2\n      swap1\n      tag_46\n      jump\t// in\n    tag_66:\n      swap2\n      pop\n        /* \"RomanToInt.sol\":3342:3540  if (romanByte[i] == 'X') {... */\n      jump(tag_67)\n    tag_65:\n        /* \"RomanToInt.sol\":3425:3444  romanByte[i] == 'V' */\n      0x5600000000000000000000000000000000000000000000000000000000000000\n        /* \"RomanToInt.sol\":3425:3434  romanByte */\n      dup5\n        /* \"RomanToInt.sol\":3435:3436  i */\n      dup3\n        /* \"RomanToInt.sol\":3425:3437  romanByte[i] */\n      0xffffffff\n      and\n      dup2\n      mload\n      dup2\n      lt\n      tag_68\n      jumpi\n      tag_69\n      tag_43\n      jump\t// in\n    tag_69:\n    tag_68:\n      0x20\n      add\n      add\n      mload\n      0xf8\n      shr\n      0xf8\n      shl\n        /* \"RomanToInt.sol\":3425:3444  romanByte[i] == 'V' */\n      not(0xffffffffffffffffffffffffffffffffffffffffffffffffffffffffffffff)\n      and\n      sub\n        /* \"RomanToInt.sol\":3421:3540  if (romanByte[i] == 'V') {... */\n      tag_70\n      jumpi\n        /* \"RomanToInt.sol\":3472:3473  5 */\n      0x05\n        /* \"RomanToInt.sol\":3465:3473  num += 5 */\n      dup3\n      tag_71\n      swap2\n      swap1\n      tag_46\n      jump\t// in\n    tag_71:\n      swap2\n      pop\n        /* \"RomanToInt.sol\":3421:3540  if (romanByte[i] == 'V') {... */\n      jump(tag_72)\n    tag_70:\n        /* \"RomanToInt.sol\":3523:3524  1 */\n      0x01\n        /* \"RomanToInt.sol\":3516:3524  num += 1 */\n      dup3\n      tag_73\n      swap2\n      swap1\n      tag_46\n      jump\t// in\n    tag_73:\n      swap2\n      pop\n        /* \"RomanToInt.sol\":3421:3540  if (romanByte[i] == 'V') {... */\n    tag_72:\n        /* \"RomanToInt.sol\":3342:3540  if (romanByte[i] == 'X') {... */\n    tag_67:\n        /* \"RomanToInt.sol\":3265:3540  if (romanByte[i] == 'L') {... */\n    tag_62:\n        /* \"RomanToInt.sol\":3188:3540  if (romanByte[i] == 'C') {... */\n    tag_57:\n        /* \"RomanToInt.sol\":3112:3540  if (romanByte[i] == 'D') {... */\n    tag_52:\n        /* \"RomanToInt.sol\":3035:3540  if (romanByte[i] == 'M') {... */\n    tag_47:\n        /* \"RomanToInt.sol\":3015:3018  i++ */\n      dup1\n      dup1\n      tag_74\n      swap1\n      tag_75\n      jump\t// in\n    tag_74:\n      swap2\n      pop\n      pop\n        /* \"RomanToInt.sol\":2974:3551  for (uint32 i = 0; i < romanByte.length; i++) {... */\n      jump(tag_38)\n    tag_39:\n      pop\n        /* \"RomanToInt.sol\":3570:3573  num */\n      dup1\n        /* \"RomanToInt.sol\":3563:3573  return num */\n      swap4\n      pop\n      pop\n      pop\n      pop\n        /* \"RomanToInt.sol\":2330:3581  function romanToInt(string memory roman) public pure returns (uint64) {... */\n    tag_17:\n      swap2\n      swap1\n      pop\n      jump\t// out\n        /* \"RomanToInt.sol\":1090:2321  function intToRoman(uint32 num) public pure returns (string memory) {... */\n    tag_14:\n        /* \"RomanToInt.sol\":1143:1156  string memory */\n      0x60\n        /* \"RomanToInt.sol\":1180:1181  4 */\n      0x04\n        /* \"RomanToInt.sol\":1173:1176  num */\n      dup3\n        /* \"RomanToInt.sol\":1173:1181  num == 4 */\n      0xffffffff\n      and\n      sub\n        /* \"RomanToInt.sol\":1169:1197  if (num == 4) {return \"IV\";} */\n      tag_77\n      jumpi\n        /* \"RomanToInt.sol\":1184:1195  return \"IV\" */\n      mload(0x40)\n      dup1\n      0x40\n      add\n      0x40\n      mstore\n      dup1\n      0x02\n      dup2\n      mstore\n      0x20\n      add\n      0x4956000000000000000000000000000000000000000000000000000000000000\n      dup2\n      mstore\n      pop\n      swap1\n      pop\n      jump(tag_76)\n        /* \"RomanToInt.sol\":1169:1197  if (num == 4) {return \"IV\";} */\n    tag_77:\n        /* \"RomanToInt.sol\":1218:1219  9 */\n      0x09\n        /* \"RomanToInt.sol\":1211:1214  num */\n      dup3\n        /* \"RomanToInt.sol\":1211:1219  num == 9 */\n      0xffffffff\n      and\n      sub\n        /* \"RomanToInt.sol\":1207:1235  if (num == 9) {return \"IX\";} */\n      tag_78\n      jumpi\n        /* \"RomanToInt.sol\":1222:1233  return \"IX\" */\n      mload(0x40)\n      dup1\n      0x40\n      add\n      0x40\n      mstore\n      dup1\n      0x02\n      dup2\n      mstore\n      0x20\n      add\n      0x4958000000000000000000000000000000000000000000000000000000000000\n      dup2\n      mstore\n      pop\n      swap1\n      pop\n      jump(tag_76)\n        /* \"RomanToInt.sol\":1207:1235  if (num == 9) {return \"IX\";} */\n    tag_78:\n        /* \"RomanToInt.sol\":1256:1258  40 */\n      0x28\n        /* \"RomanToInt.sol\":1249:1252  num */\n      dup3\n        /* \"RomanToInt.sol\":1249:1258  num == 40 */\n      0xffffffff\n      and\n      sub\n        /* \"RomanToInt.sol\":1245:1274  if (num == 40) {return \"XL\";} */\n      tag_79\n      jumpi\n        /* \"RomanToInt.sol\":1261:1272  return \"XL\" */\n      mload(0x40)\n      dup1\n      0x40\n      add\n      0x40\n      mstore\n      dup1\n      0x02\n      dup2\n      mstore\n      0x20\n      add\n      0x584c000000000000000000000000000000000000000000000000000000000000\n      dup2\n      mstore\n      pop\n      swap1\n      pop\n      jump(tag_76)\n        /* \"RomanToInt.sol\":1245:1274  if (num == 40) {return \"XL\";} */\n    tag_79:\n        /* \"RomanToInt.sol\":1295:1297  90 */\n      0x5a\n        /* \"RomanToInt.sol\":1288:1291  num */\n      dup3\n        /* \"RomanToInt.sol\":1288:1297  num == 90 */\n      0xffffffff\n      and\n      sub\n        /* \"RomanToInt.sol\":1284:1313  if (num == 90) {return \"XC\";} */\n      tag_80\n      jumpi\n        /* \"RomanToInt.sol\":1300:1311  return \"XC\" */\n      mload(0x40)\n      dup1\n      0x40\n      add\n      0x40\n      mstore\n      dup1\n      0x02\n      dup2\n      mstore\n      0x20\n      add\n      0x5843000000000000000000000000000000000000000000000000000000000000\n      dup2\n      mstore\n      pop\n      swap1\n      pop\n      jump(tag_76)\n        /* \"RomanToInt.sol\":1284:1313  if (num == 90) {return \"XC\";} */\n    tag_80:\n        /* \"RomanToInt.sol\":1334:1337  400 */\n      0x0190\n        /* \"RomanToInt.sol\":1327:1330  num */\n      dup3\n        /* \"RomanToInt.sol\":1327:1337  num == 400 */\n      0xffffffff\n      and\n      sub\n        /* \"RomanToInt.sol\":1323:1353  if (num == 400) {return \"CD\";} */\n      tag_81\n      jumpi\n        /* \"RomanToInt.sol\":1340:1351  return \"CD\" */\n      mload(0x40)\n      dup1\n      0x40\n      add\n      0x40\n      mstore\n      dup1\n      0x02\n      dup2\n      mstore\n      0x20\n      add\n      0x4344000000000000000000000000000000000000000000000000000000000000\n      dup2\n      mstore\n      pop\n      swap1\n      pop\n      jump(tag_76)\n        /* \"RomanToInt.sol\":1323:1353  if (num == 400) {return \"CD\";} */\n    tag_81:\n        /* \"RomanToInt.sol\":1374:1377  900 */\n      0x0384\n        /* \"RomanToInt.sol\":1367:1370  num */\n      dup3\n        /* \"RomanToInt.sol\":1367:1377  num == 900 */\n      0xffffffff\n      and\n      sub\n        /* \"RomanToInt.sol\":1363:1393  if (num == 900) {return \"CM\";} */\n      tag_82\n      jumpi\n        /* \"RomanToInt.sol\":1380:1391  return \"CM\" */\n      mload(0x40)\n      dup1\n      0x40\n      add\n      0x40\n      mstore\n      dup1\n      0x02\n      dup2\n      mstore\n      0x20\n      add\n      0x434d000000000000000000000000000000000000000000000000000000000000\n      dup2\n      mstore\n      pop\n      swap1\n      pop\n      jump(tag_76)\n        /* \"RomanToInt.sol\":1363:1393  if (num == 900) {return \"CM\";} */\n    tag_82:\n        /* \"RomanToInt.sol\":1405:1424  string memory roman */\n      0x00\n        /* \"RomanToInt.sol\":1405:1429  string memory roman = \"\" */\n      mload(0x40)\n      dup1\n      0x20\n      add\n      0x40\n      mstore\n      dup1\n      0x00\n      dup2\n      mstore\n      pop\n      swap1\n      pop\n        /* \"RomanToInt.sol\":1440:2289  while (num > 0) {... */\n    tag_83:\n        /* \"RomanToInt.sol\":1453:1454  0 */\n      0x00\n        /* \"RomanToInt.sol\":1447:1450  num */\n      dup4\n        /* \"RomanToInt.sol\":1447:1454  num > 0 */\n      0xffffffff\n      and\n      gt\n        /* \"RomanToInt.sol\":1440:2289  while (num > 0) {... */\n      iszero\n      tag_84\n      jumpi\n        /* \"RomanToInt.sol\":1482:1486  1000 */\n      0x03e8\n        /* \"RomanToInt.sol\":1475:1478  num */\n      dup4\n        /* \"RomanToInt.sol\":1475:1486  num >= 1000 */\n      0xffffffff\n      and\n      lt\n        /* \"RomanToInt.sol\":1471:2278  if (num >= 1000) {... */\n      tag_85\n      jumpi\n        /* \"RomanToInt.sol\":1529:1534  roman */\n      dup1\n        /* \"RomanToInt.sol\":1515:1540  string.concat(roman, \"M\") */\n      add(0x20, mload(0x40))\n      tag_86\n      swap2\n      swap1\n      tag_87\n      jump\t// in\n    tag_86:\n      mload(0x40)\n      0x20\n      dup2\n      dup4\n      sub\n      sub\n      dup2\n      mstore\n      swap1\n      0x40\n      mstore\n        /* \"RomanToInt.sol\":1507:1540  roman = string.concat(roman, \"M\") */\n      swap1\n      pop\n        /* \"RomanToInt.sol\":1566:1570  1000 */\n      0x03e8\n        /* \"RomanToInt.sol\":1559:1570  num -= 1000 */\n      dup4\n      tag_88\n      swap2\n      swap1\n      tag_89\n      jump\t// in\n    tag_88:\n      swap3\n      pop\n        /* \"RomanToInt.sol\":1471:2278  if (num >= 1000) {... */\n      jump(tag_90)\n    tag_85:\n        /* \"RomanToInt.sol\":1607:1610  500 */\n      0x01f4\n        /* \"RomanToInt.sol\":1600:1603  num */\n      dup4\n        /* \"RomanToInt.sol\":1600:1610  num >= 500 */\n      0xffffffff\n      and\n      lt\n        /* \"RomanToInt.sol\":1596:2278  if (num >= 500) {... */\n      tag_91\n      jumpi\n        /* \"RomanToInt.sol\":1653:1658  roman */\n      dup1\n        /* \"RomanToInt.sol\":1639:1664  string.concat(roman, \"D\") */\n      add(0x20, mload(0x40))\n      tag_92\n      swap2\n      swap1\n      tag_93\n      jump\t// in\n    tag_92:\n      mload(0x40)\n      0x20\n      dup2\n      dup4\n      sub\n      sub\n      dup2\n      mstore\n      swap1\n      0x40\n      mstore\n        /* \"RomanToInt.sol\":1631:1664  roman = string.concat(roman, \"D\") */\n      swap1\n      pop\n        /* \"RomanToInt.sol\":1690:1693  500 */\n      0x01f4\n        /* \"RomanToInt.sol\":1683:1693  num -= 500 */\n      dup4\n      tag_94\n      swap2\n      swap1\n      tag_89\n      jump\t// in\n    tag_94:\n      swap3\n      pop\n        /* \"RomanToInt.sol\":1596:2278  if (num >= 500) {... */\n      jump(tag_95)\n    tag_91:\n        /* \"RomanToInt.sol\":1726:1729  100 */\n      0x64\n        /* \"RomanToInt.sol\":1719:1722  num */\n      dup4\n        /* \"RomanToInt.sol\":1719:1729  num >= 100 */\n      0xffffffff\n      and\n      lt\n        /* \"RomanToInt.sol\":1715:2278  if (num >= 100) {... */\n      tag_96\n      jumpi\n        /* \"RomanToInt.sol\":1772:1777  roman */\n      dup1\n        /* \"RomanToInt.sol\":1758:1783  string.concat(roman, \"C\") */\n      add(0x20, mload(0x40))\n      tag_97\n      swap2\n      swap1\n      tag_98\n      jump\t// in\n    tag_97:\n      mload(0x40)\n      0x20\n      dup2\n      dup4\n      sub\n      sub\n      dup2\n      mstore\n      swap1\n      0x40\n      mstore\n        /* \"RomanToInt.sol\":1750:1783  roman = string.concat(roman, \"C\") */\n      swap1\n      pop\n        /* \"RomanToInt.sol\":1809:1812  100 */\n      0x64\n        /* \"RomanToInt.sol\":1802:1812  num -= 100 */\n      dup4\n      tag_99\n      swap2\n      swap1\n      tag_89\n      jump\t// in\n    tag_99:\n      swap3\n      pop\n        /* \"RomanToInt.sol\":1715:2278  if (num >= 100) {... */\n      jump(tag_100)\n    tag_96:\n        /* \"RomanToInt.sol\":1845:1847  50 */\n      0x32\n        /* \"RomanToInt.sol\":1838:1841  num */\n      dup4\n        /* \"RomanToInt.sol\":1838:1847  num >= 50 */\n      0xffffffff\n      and\n      lt\n        /* \"RomanToInt.sol\":1834:2278  if (num >= 50) {... */\n      tag_101\n      jumpi\n        /* \"RomanToInt.sol\":1890:1895  roman */\n      dup1\n        /* \"RomanToInt.sol\":1876:1901  string.concat(roman, \"L\") */\n      add(0x20, mload(0x40))\n      tag_102\n      swap2\n      swap1\n      tag_103\n      jump\t// in\n    tag_102:\n      mload(0x40)\n      0x20\n      dup2\n      dup4\n      sub\n      sub\n      dup2\n      mstore\n      swap1\n      0x40\n      mstore\n        /* \"RomanToInt.sol\":1868:1901  roman = string.concat(roman, \"L\") */\n      swap1\n      pop\n        /* \"RomanToInt.sol\":1927:1929  50 */\n      0x32\n        /* \"RomanToInt.sol\":1920:1929  num -= 50 */\n      dup4\n      tag_104\n      swap2\n      swap1\n      tag_89\n      jump\t// in\n    tag_104:\n      swap3\n      pop\n        /* \"RomanToInt.sol\":1834:2278  if (num >= 50) {... */\n      jump(tag_105)\n    tag_101:\n        /* \"RomanToInt.sol\":1962:1964  10 */\n      0x0a\n        /* \"RomanToInt.sol\":1955:1958  num */\n      dup4\n        /* \"RomanToInt.sol\":1955:1964  num >= 10 */\n      0xffffffff\n      and\n      lt\n        /* \"RomanToInt.sol\":1951:2278  if (num >= 10) {... */\n      tag_106\n      jumpi\n        /* \"RomanToInt.sol\":2007:2012  roman */\n      dup1\n        /* \"RomanToInt.sol\":1993:2018  string.concat(roman, \"X\") */\n      add(0x20, mload(0x40))\n      tag_107\n      swap2\n      swap1\n      tag_108\n      jump\t// in\n    tag_107:\n      mload(0x40)\n      0x20\n      dup2\n      dup4\n      sub\n      sub\n      dup2\n      mstore\n      swap1\n      0x40\n      mstore\n        /* \"RomanToInt.sol\":1985:2018  roman = string.concat(roman, \"X\") */\n      swap1\n      pop\n        /* \"RomanToInt.sol\":2044:2046  10 */\n      0x0a\n        /* \"RomanToInt.sol\":2037:2046  num -= 10 */\n      dup4\n      tag_109\n      swap2\n      swap1\n      tag_89\n      jump\t// in\n    tag_109:\n      swap3\n      pop\n        /* \"RomanToInt.sol\":1951:2278  if (num >= 10) {... */\n      jump(tag_110)\n    tag_106:\n        /* \"RomanToInt.sol\":2079:2080  5 */\n      0x05\n        /* \"RomanToInt.sol\":2072:2075  num */\n      dup4\n        /* \"RomanToInt.sol\":2072:2080  num >= 5 */\n      0xffffffff\n      and\n      lt\n        /* \"RomanToInt.sol\":2068:2278  if (num >= 5) {... */\n      tag_111\n      jumpi\n        /* \"RomanToInt.sol\":2123:2128  roman */\n      dup1\n        /* \"RomanToInt.sol\":2109:2134  string.concat(roman, \"V\") */\n      add(0x20, mload(0x40))\n      tag_112\n      swap2\n      swap1\n      tag_113\n      jump\t// in\n    tag_112:\n      mload(0x40)\n      0x20\n      dup2\n      dup4\n      sub\n      sub\n      dup2\n      mstore\n      swap1\n      0x40\n      mstore\n        /* \"RomanToInt.sol\":2101:2134  roman = string.concat(roman, \"V\") */\n      swap1\n      pop\n        /* \"RomanToInt.sol\":2160:2161  5 */\n      0x05\n        /* \"RomanToInt.sol\":2153:2161  num -= 5 */\n      dup4\n      tag_114\n      swap2\n      swap1\n      tag_89\n      jump\t// in\n    tag_114:\n      swap3\n      pop\n        /* \"RomanToInt.sol\":2068:2278  if (num >= 5) {... */\n      jump(tag_115)\n    tag_111:\n        /* \"RomanToInt.sol\":2224:2229  roman */\n      dup1\n        /* \"RomanToInt.sol\":2210:2235  string.concat(roman, \"I\") */\n      add(0x20, mload(0x40))\n      tag_116\n      swap2\n      swap1\n      tag_117\n      jump\t// in\n    tag_116:\n      mload(0x40)\n      0x20\n      dup2\n      dup4\n      sub\n      sub\n      dup2\n      mstore\n      swap1\n      0x40\n      mstore\n        /* \"RomanToInt.sol\":2202:2235  roman = string.concat(roman, \"I\") */\n      swap1\n      pop\n        /* \"RomanToInt.sol\":2261:2262  1 */\n      0x01\n        /* \"RomanToInt.sol\":2254:2262  num -= 1 */\n      dup4\n      tag_118\n      swap2\n      swap1\n      tag_89\n      jump\t// in\n    tag_118:\n      swap3\n      pop\n        /* \"RomanToInt.sol\":2068:2278  if (num >= 5) {... */\n    tag_115:\n        /* \"RomanToInt.sol\":1951:2278  if (num >= 10) {... */\n    tag_110:\n        /* \"RomanToInt.sol\":1834:2278  if (num >= 50) {... */\n    tag_105:\n        /* \"RomanToInt.sol\":1715:2278  if (num >= 100) {... */\n    tag_100:\n        /* \"RomanToInt.sol\":1596:2278  if (num >= 500) {... */\n    tag_95:\n        /* \"RomanToInt.sol\":1471:2278  if (num >= 1000) {... */\n    tag_90:\n        /* \"RomanToInt.sol\":1440:2289  while (num > 0) {... */\n      jump(tag_83)\n    tag_84:\n        /* \"RomanToInt.sol\":2308:2313  roman */\n      dup1\n        /* \"RomanToInt.sol\":2301:2313  return roman */\n      swap2\n      pop\n      pop\n        /* \"RomanToInt.sol\":1090:2321  function intToRoman(uint32 num) public pure returns (string memory) {... */\n    tag_76:\n      swap2\n      swap1\n      pop\n      jump\t// out\n        /* \"#utility.yul\":7:82   */\n    tag_119:\n        /* \"#utility.yul\":40:46   */\n      0x00\n        /* \"#utility.yul\":73:75   */\n      0x40\n        /* \"#utility.yul\":67:76   */\n      mload\n        /* \"#utility.yul\":57:76   */\n      swap1\n      pop\n        /* \"#utility.yul\":7:82   */\n      swap1\n      jump\t// out\n        /* \"#utility.yul\":88:205   */\n    tag_120:\n        /* \"#utility.yul\":197:198   */\n      0x00\n        /* \"#utility.yul\":194:195   */\n      0x00\n        /* \"#utility.yul\":187:199   */\n      revert\n        /* \"#utility.yul\":211:328   */\n    tag_121:\n        /* \"#utility.yul\":320:321   */\n      0x00\n        /* \"#utility.yul\":317:318   */\n      0x00\n        /* \"#utility.yul\":310:322   */\n      revert\n        /* \"#utility.yul\":334:451   */\n    tag_122:\n        /* \"#utility.yul\":443:444   */\n      0x00\n        /* \"#utility.yul\":440:441   */\n      0x00\n        /* \"#utility.yul\":433:445   */\n      revert\n        /* \"#utility.yul\":457:574   */\n    tag_123:\n        /* \"#utility.yul\":566:567   */\n      0x00\n        /* \"#utility.yul\":563:564   */\n      0x00\n        /* \"#utility.yul\":556:568   */\n      revert\n        /* \"#utility.yul\":580:682   */\n    tag_124:\n        /* \"#utility.yul\":621:627   */\n      0x00\n        /* \"#utility.yul\":672:674   */\n      0x1f\n        /* \"#utility.yul\":668:675   */\n      not\n        /* \"#utility.yul\":663:665   */\n      0x1f\n        /* \"#utility.yul\":656:661   */\n      dup4\n        /* \"#utility.yul\":652:666   */\n      add\n        /* \"#utility.yul\":648:676   */\n      and\n        /* \"#utility.yul\":638:676   */\n      swap1\n      pop\n        /* \"#utility.yul\":580:682   */\n      swap2\n      swap1\n      pop\n      jump\t// out\n        /* \"#utility.yul\":688:868   */\n    tag_125:\n        /* \"#utility.yul\":736:813   */\n      0x4e487b7100000000000000000000000000000000000000000000000000000000\n        /* \"#utility.yul\":733:734   */\n      0x00\n        /* \"#utility.yul\":726:814   */\n      mstore\n        /* \"#utility.yul\":833:837   */\n      0x41\n        /* \"#utility.yul\":830:831   */\n      0x04\n        /* \"#utility.yul\":823:838   */\n      mstore\n        /* \"#utility.yul\":857:861   */\n      0x24\n        /* \"#utility.yul\":854:855   */\n      0x00\n        /* \"#utility.yul\":847:862   */\n      revert\n        /* \"#utility.yul\":874:1155   */\n    tag_126:\n        /* \"#utility.yul\":957:984   */\n      tag_172\n        /* \"#utility.yul\":979:983   */\n      dup3\n        /* \"#utility.yul\":957:984   */\n      tag_124\n      jump\t// in\n    tag_172:\n        /* \"#utility.yul\":949:955   */\n      dup2\n        /* \"#utility.yul\":945:985   */\n      add\n        /* \"#utility.yul\":1087:1093   */\n      dup2\n        /* \"#utility.yul\":1075:1085   */\n      dup2\n        /* \"#utility.yul\":1072:1094   */\n      lt\n        /* \"#utility.yul\":1051:1069   */\n      0xffffffffffffffff\n        /* \"#utility.yul\":1039:1049   */\n      dup3\n        /* \"#utility.yul\":1036:1070   */\n      gt\n        /* \"#utility.yul\":1033:1095   */\n      or\n        /* \"#utility.yul\":1030:1118   */\n      iszero\n      tag_173\n      jumpi\n        /* \"#utility.yul\":1098:1116   */\n      tag_174\n      tag_125\n      jump\t// in\n    tag_174:\n        /* \"#utility.yul\":1030:1118   */\n    tag_173:\n        /* \"#utility.yul\":1138:1148   */\n      dup1\n        /* \"#utility.yul\":1134:1136   */\n      0x40\n        /* \"#utility.yul\":1127:1149   */\n      mstore\n        /* \"#utility.yul\":917:1155   */\n      pop\n        /* \"#utility.yul\":874:1155   */\n      pop\n      pop\n      jump\t// out\n        /* \"#utility.yul\":1161:1290   */\n    tag_127:\n        /* \"#utility.yul\":1195:1201   */\n      0x00\n        /* \"#utility.yul\":1222:1242   */\n      tag_176\n      tag_119\n      jump\t// in\n    tag_176:\n        /* \"#utility.yul\":1212:1242   */\n      swap1\n      pop\n        /* \"#utility.yul\":1251:1284   */\n      tag_177\n        /* \"#utility.yul\":1279:1283   */\n      dup3\n        /* \"#utility.yul\":1271:1277   */\n      dup3\n        /* \"#utility.yul\":1251:1284   */\n      tag_126\n      jump\t// in\n    tag_177:\n        /* \"#utility.yul\":1161:1290   */\n      swap2\n      swap1\n      pop\n      jump\t// out\n        /* \"#utility.yul\":1296:1604   */\n    tag_128:\n        /* \"#utility.yul\":1358:1362   */\n      0x00\n        /* \"#utility.yul\":1448:1466   */\n      0xffffffffffffffff\n        /* \"#utility.yul\":1440:1446   */\n      dup3\n        /* \"#utility.yul\":1437:1467   */\n      gt\n        /* \"#utility.yul\":1434:1490   */\n      iszero\n      tag_179\n      jumpi\n        /* \"#utility.yul\":1470:1488   */\n      tag_180\n      tag_125\n      jump\t// in\n    tag_180:\n        /* \"#utility.yul\":1434:1490   */\n    tag_179:\n        /* \"#utility.yul\":1508:1537   */\n      tag_181\n        /* \"#utility.yul\":1530:1536   */\n      dup3\n        /* \"#utility.yul\":1508:1537   */\n      tag_124\n      jump\t// in\n    tag_181:\n        /* \"#utility.yul\":1500:1537   */\n      swap1\n      pop\n        /* \"#utility.yul\":1592:1596   */\n      0x20\n        /* \"#utility.yul\":1586:1590   */\n      dup2\n        /* \"#utility.yul\":1582:1597   */\n      add\n        /* \"#utility.yul\":1574:1597   */\n      swap1\n      pop\n        /* \"#utility.yul\":1296:1604   */\n      swap2\n      swap1\n      pop\n      jump\t// out\n        /* \"#utility.yul\":1610:1758   */\n    tag_129:\n        /* \"#utility.yul\":1708:1714   */\n      dup3\n        /* \"#utility.yul\":1703:1706   */\n      dup2\n        /* \"#utility.yul\":1698:1701   */\n      dup4\n        /* \"#utility.yul\":1685:1715   */\n      calldatacopy\n        /* \"#utility.yul\":1749:1750   */\n      0x00\n        /* \"#utility.yul\":1740:1746   */\n      dup4\n        /* \"#utility.yul\":1735:1738   */\n      dup4\n        /* \"#utility.yul\":1731:1747   */\n      add\n        /* \"#utility.yul\":1724:1751   */\n      mstore\n        /* \"#utility.yul\":1610:1758   */\n      pop\n      pop\n      pop\n      jump\t// out\n        /* \"#utility.yul\":1764:2189   */\n    tag_130:\n        /* \"#utility.yul\":1842:1847   */\n      0x00\n        /* \"#utility.yul\":1867:1933   */\n      tag_184\n        /* \"#utility.yul\":1883:1932   */\n      tag_185\n        /* \"#utility.yul\":1925:1931   */\n      dup5\n        /* \"#utility.yul\":1883:1932   */\n      tag_128\n      jump\t// in\n    tag_185:\n        /* \"#utility.yul\":1867:1933   */\n      tag_127\n      jump\t// in\n    tag_184:\n        /* \"#utility.yul\":1858:1933   */\n      swap1\n      pop\n        /* \"#utility.yul\":1956:1962   */\n      dup3\n        /* \"#utility.yul\":1949:1954   */\n      dup2\n        /* \"#utility.yul\":1942:1963   */\n      mstore\n        /* \"#utility.yul\":1994:1998   */\n      0x20\n        /* \"#utility.yul\":1987:1992   */\n      dup2\n        /* \"#utility.yul\":1983:1999   */\n      add\n        /* \"#utility.yul\":2032:2035   */\n      dup5\n        /* \"#utility.yul\":2023:2029   */\n      dup5\n        /* \"#utility.yul\":2018:2021   */\n      dup5\n        /* \"#utility.yul\":2014:2030   */\n      add\n        /* \"#utility.yul\":2011:2036   */\n      gt\n        /* \"#utility.yul\":2008:2120   */\n      iszero\n      tag_186\n      jumpi\n        /* \"#utility.yul\":2039:2118   */\n      tag_187\n      tag_123\n      jump\t// in\n    tag_187:\n        /* \"#utility.yul\":2008:2120   */\n    tag_186:\n        /* \"#utility.yul\":2129:2183   */\n      tag_188\n        /* \"#utility.yul\":2176:2182   */\n      dup5\n        /* \"#utility.yul\":2171:2174   */\n      dup3\n        /* \"#utility.yul\":2166:2169   */\n      dup6\n        /* \"#utility.yul\":2129:2183   */\n      tag_129\n      jump\t// in\n    tag_188:\n        /* \"#utility.yul\":1848:2189   */\n      pop\n        /* \"#utility.yul\":1764:2189   */\n      swap4\n      swap3\n      pop\n      pop\n      pop\n      jump\t// out\n        /* \"#utility.yul\":2209:2549   */\n    tag_131:\n        /* \"#utility.yul\":2265:2270   */\n      0x00\n        /* \"#utility.yul\":2314:2317   */\n      dup3\n        /* \"#utility.yul\":2307:2311   */\n      0x1f\n        /* \"#utility.yul\":2299:2305   */\n      dup4\n        /* \"#utility.yul\":2295:2312   */\n      add\n        /* \"#utility.yul\":2291:2318   */\n      slt\n        /* \"#utility.yul\":2281:2403   */\n      tag_190\n      jumpi\n        /* \"#utility.yul\":2322:2401   */\n      tag_191\n      tag_122\n      jump\t// in\n    tag_191:\n        /* \"#utility.yul\":2281:2403   */\n    tag_190:\n        /* \"#utility.yul\":2439:2445   */\n      dup2\n        /* \"#utility.yul\":2426:2446   */\n      calldataload\n        /* \"#utility.yul\":2464:2543   */\n      tag_192\n        /* \"#utility.yul\":2539:2542   */\n      dup5\n        /* \"#utility.yul\":2531:2537   */\n      dup3\n        /* \"#utility.yul\":2524:2528   */\n      0x20\n        /* \"#utility.yul\":2516:2522   */\n      dup7\n        /* \"#utility.yul\":2512:2529   */\n      add\n        /* \"#utility.yul\":2464:2543   */\n      tag_130\n      jump\t// in\n    tag_192:\n        /* \"#utility.yul\":2455:2543   */\n      swap2\n      pop\n        /* \"#utility.yul\":2271:2549   */\n      pop\n        /* \"#utility.yul\":2209:2549   */\n      swap3\n      swap2\n      pop\n      pop\n      jump\t// out\n        /* \"#utility.yul\":2555:3064   */\n    tag_7:\n        /* \"#utility.yul\":2624:2630   */\n      0x00\n        /* \"#utility.yul\":2673:2675   */\n      0x20\n        /* \"#utility.yul\":2661:2670   */\n      dup3\n        /* \"#utility.yul\":2652:2659   */\n      dup5\n        /* \"#utility.yul\":2648:2671   */\n      sub\n        /* \"#utility.yul\":2644:2676   */\n      slt\n        /* \"#utility.yul\":2641:2760   */\n      iszero\n      tag_194\n      jumpi\n        /* \"#utility.yul\":2679:2758   */\n      tag_195\n      tag_120\n      jump\t// in\n    tag_195:\n        /* \"#utility.yul\":2641:2760   */\n    tag_194:\n        /* \"#utility.yul\":2827:2828   */\n      0x00\n        /* \"#utility.yul\":2816:2825   */\n      dup3\n        /* \"#utility.yul\":2812:2829   */\n      add\n        /* \"#utility.yul\":2799:2830   */\n      calldataload\n        /* \"#utility.yul\":2857:2875   */\n      0xffffffffffffffff\n        /* \"#utility.yul\":2849:2855   */\n      dup2\n        /* \"#utility.yul\":2846:2876   */\n      gt\n        /* \"#utility.yul\":2843:2960   */\n      iszero\n      tag_196\n      jumpi\n        /* \"#utility.yul\":2879:2958   */\n      tag_197\n      tag_121\n      jump\t// in\n    tag_197:\n        /* \"#utility.yul\":2843:2960   */\n    tag_196:\n        /* \"#utility.yul\":2984:3047   */\n      tag_198\n        /* \"#utility.yul\":3039:3046   */\n      dup5\n        /* \"#utility.yul\":3030:3036   */\n      dup3\n        /* \"#utility.yul\":3019:3028   */\n      dup6\n        /* \"#utility.yul\":3015:3037   */\n      add\n        /* \"#utility.yul\":2984:3047   */\n      tag_131\n      jump\t// in\n    tag_198:\n        /* \"#utility.yul\":2974:3047   */\n      swap2\n      pop\n        /* \"#utility.yul\":2770:3057   */\n      pop\n        /* \"#utility.yul\":2555:3064   */\n      swap3\n      swap2\n      pop\n      pop\n      jump\t// out\n        /* \"#utility.yul\":3070:3171   */\n    tag_132:\n        /* \"#utility.yul\":3106:3113   */\n      0x00\n        /* \"#utility.yul\":3146:3164   */\n      0xffffffffffffffff\n        /* \"#utility.yul\":3139:3144   */\n      dup3\n        /* \"#utility.yul\":3135:3165   */\n      and\n        /* \"#utility.yul\":3124:3165   */\n      swap1\n      pop\n        /* \"#utility.yul\":3070:3171   */\n      swap2\n      swap1\n      pop\n      jump\t// out\n        /* \"#utility.yul\":3177:3292   */\n    tag_133:\n        /* \"#utility.yul\":3262:3285   */\n      tag_201\n        /* \"#utility.yul\":3279:3284   */\n      dup2\n        /* \"#utility.yul\":3262:3285   */\n      tag_132\n      jump\t// in\n    tag_201:\n        /* \"#utility.yul\":3257:3260   */\n      dup3\n        /* \"#utility.yul\":3250:3286   */\n      mstore\n        /* \"#utility.yul\":3177:3292   */\n      pop\n      pop\n      jump\t// out\n        /* \"#utility.yul\":3298:3516   */\n    tag_10:\n        /* \"#utility.yul\":3389:3393   */\n      0x00\n        /* \"#utility.yul\":3427:3429   */\n      0x20\n        /* \"#utility.yul\":3416:3425   */\n      dup3\n        /* \"#utility.yul\":3412:3430   */\n      add\n        /* \"#utility.yul\":3404:3430   */\n      swap1\n      pop\n        /* \"#utility.yul\":3440:3509   */\n      tag_203\n        /* \"#utility.yul\":3506:3507   */\n      0x00\n        /* \"#utility.yul\":3495:3504   */\n      dup4\n        /* \"#utility.yul\":3491:3508   */\n      add\n        /* \"#utility.yul\":3482:3488   */\n      dup5\n        /* \"#utility.yul\":3440:3509   */\n      tag_133\n      jump\t// in\n    tag_203:\n        /* \"#utility.yul\":3298:3516   */\n      swap3\n      swap2\n      pop\n      pop\n      jump\t// out\n        /* \"#utility.yul\":3522:3615   */\n    tag_134:\n        /* \"#utility.yul\":3558:3565   */\n      0x00\n        /* \"#utility.yul\":3598:3608   */\n      0xffffffff\n        /* \"#utility.yul\":3591:3596   */\n      dup3\n        /* \"#utility.yul\":3587:3609   */\n      and\n        /* \"#utility.yul\":3576:3609   */\n      swap1\n      pop\n        /* \"#utility.yul\":3522:3615   */\n      swap2\n      swap1\n      pop\n      jump\t// out\n        /* \"#utility.yul\":3621:3741   */\n    tag_135:\n        /* \"#utility.yul\":3693:3716   */\n      tag_206\n        /* \"#utility.yul\":3710:3715   */\n      dup2\n        /* \"#utility.yul\":3693:3716   */\n      tag_134\n      jump\t// in\n    tag_206:\n        /* \"#utility.yul\":3686:3691   */\n      dup2\n        /* \"#utility.yul\":3683:3717   */\n      eq\n        /* \"#utility.yul\":3673:3735   */\n      tag_207\n      jumpi\n        /* \"#utility.yul\":3731:3732   */\n      0x00\n        /* \"#utility.yul\":3728:3729   */\n      0x00\n        /* \"#utility.yul\":3721:3733   */\n      revert\n        /* \"#utility.yul\":3673:3735   */\n    tag_207:\n        /* \"#utility.yul\":3621:3741   */\n      pop\n      jump\t// out\n        /* \"#utility.yul\":3747:3884   */\n    tag_136:\n        /* \"#utility.yul\":3792:3797   */\n      0x00\n        /* \"#utility.yul\":3830:3836   */\n      dup2\n        /* \"#utility.yul\":3817:3837   */\n      calldataload\n        /* \"#utility.yul\":3808:3837   */\n      swap1\n      pop\n        /* \"#utility.yul\":3846:3878   */\n      tag_209\n        /* \"#utility.yul\":3872:3877   */\n      dup2\n        /* \"#utility.yul\":3846:3878   */\n      tag_135\n      jump\t// in\n    tag_209:\n        /* \"#utility.yul\":3747:3884   */\n      swap3\n      swap2\n      pop\n      pop\n      jump\t// out\n        /* \"#utility.yul\":3890:4217   */\n    tag_13:\n        /* \"#utility.yul\":3948:3954   */\n      0x00\n        /* \"#utility.yul\":3997:3999   */\n      0x20\n        /* \"#utility.yul\":3985:3994   */\n      dup3\n        /* \"#utility.yul\":3976:3983   */\n      dup5\n        /* \"#utility.yul\":3972:3995   */\n      sub\n        /* \"#utility.yul\":3968:4000   */\n      slt\n        /* \"#utility.yul\":3965:4084   */\n      iszero\n      tag_211\n      jumpi\n        /* \"#utility.yul\":4003:4082   */\n      tag_212\n      tag_120\n      jump\t// in\n    tag_212:\n        /* \"#utility.yul\":3965:4084   */\n    tag_211:\n        /* \"#utility.yul\":4123:4124   */\n      0x00\n        /* \"#utility.yul\":4148:4200   */\n      tag_213\n        /* \"#utility.yul\":4192:4199   */\n      dup5\n        /* \"#utility.yul\":4183:4189   */\n      dup3\n        /* \"#utility.yul\":4172:4181   */\n      dup6\n        /* \"#utility.yul\":4168:4190   */\n      add\n        /* \"#utility.yul\":4148:4200   */\n      tag_136\n      jump\t// in\n    tag_213:\n        /* \"#utility.yul\":4138:4200   */\n      swap2\n      pop\n        /* \"#utility.yul\":4094:4210   */\n      pop\n        /* \"#utility.yul\":3890:4217   */\n      swap3\n      swap2\n      pop\n      pop\n      jump\t// out\n        /* \"#utility.yul\":4223:4322   */\n    tag_137:\n        /* \"#utility.yul\":4275:4281   */\n      0x00\n        /* \"#utility.yul\":4309:4314   */\n      dup2\n        /* \"#utility.yul\":4303:4315   */\n      mload\n        /* \"#utility.yul\":4293:4315   */\n      swap1\n      pop\n        /* \"#utility.yul\":4223:4322   */\n      swap2\n      swap1\n      pop\n      jump\t// out\n        /* \"#utility.yul\":4328:4497   */\n    tag_138:\n        /* \"#utility.yul\":4412:4423   */\n      0x00\n        /* \"#utility.yul\":4446:4452   */\n      dup3\n        /* \"#utility.yul\":4441:4444   */\n      dup3\n        /* \"#utility.yul\":4434:4453   */\n      mstore\n        /* \"#utility.yul\":4486:4490   */\n      0x20\n        /* \"#utility.yul\":4481:4484   */\n      dup3\n        /* \"#utility.yul\":4477:4491   */\n      add\n        /* \"#utility.yul\":4462:4491   */\n      swap1\n      pop\n        /* \"#utility.yul\":4328:4497   */\n      swap3\n      swap2\n      pop\n      pop\n      jump\t// out\n        /* \"#utility.yul\":4503:4642   */\n    tag_139:\n        /* \"#utility.yul\":4592:4598   */\n      dup3\n        /* \"#utility.yul\":4587:4590   */\n      dup2\n        /* \"#utility.yul\":4582:4585   */\n      dup4\n        /* \"#utility.yul\":4576:4599   */\n      mcopy\n        /* \"#utility.yul\":4633:4634   */\n      0x00\n        /* \"#utility.yul\":4624:4630   */\n      dup4\n        /* \"#utility.yul\":4619:4622   */\n      dup4\n        /* \"#utility.yul\":4615:4631   */\n      add\n        /* \"#utility.yul\":4608:4635   */\n      mstore\n        /* \"#utility.yul\":4503:4642   */\n      pop\n      pop\n      pop\n      jump\t// out\n        /* \"#utility.yul\":4648:5025   */\n    tag_140:\n        /* \"#utility.yul\":4736:4739   */\n      0x00\n        /* \"#utility.yul\":4764:4803   */\n      tag_218\n        /* \"#utility.yul\":4797:4802   */\n      dup3\n        /* \"#utility.yul\":4764:4803   */\n      tag_137\n      jump\t// in\n    tag_218:\n        /* \"#utility.yul\":4819:4890   */\n      tag_219\n        /* \"#utility.yul\":4883:4889   */\n      dup2\n        /* \"#utility.yul\":4878:4881   */\n      dup6\n        /* \"#utility.yul\":4819:4890   */\n      tag_138\n      jump\t// in\n    tag_219:\n        /* \"#utility.yul\":4812:4890   */\n      swap4\n      pop\n        /* \"#utility.yul\":4899:4964   */\n      tag_220\n        /* \"#utility.yul\":4957:4963   */\n      dup2\n        /* \"#utility.yul\":4952:4955   */\n      dup6\n        /* \"#utility.yul\":4945:4949   */\n      0x20\n        /* \"#utility.yul\":4938:4943   */\n      dup7\n        /* \"#utility.yul\":4934:4950   */\n      add\n        /* \"#utility.yul\":4899:4964   */\n      tag_139\n      jump\t// in\n    tag_220:\n        /* \"#utility.yul\":4989:5018   */\n      tag_221\n        /* \"#utility.yul\":5011:5017   */\n      dup2\n        /* \"#utility.yul\":4989:5018   */\n      tag_124\n      jump\t// in\n    tag_221:\n        /* \"#utility.yul\":4984:4987   */\n      dup5\n        /* \"#utility.yul\":4980:5019   */\n      add\n        /* \"#utility.yul\":4973:5019   */\n      swap2\n      pop\n        /* \"#utility.yul\":4740:5025   */\n      pop\n        /* \"#utility.yul\":4648:5025   */\n      swap3\n      swap2\n      pop\n      pop\n      jump\t// out\n        /* \"#utility.yul\":5031:5344   */\n    tag_16:\n        /* \"#utility.yul\":5144:5148   */\n      0x00\n        /* \"#utility.yul\":5182:5184   */\n      0x20\n        /* \"#utility.yul\":5171:5180   */\n      dup3\n        /* \"#utility.yul\":5167:5185   */\n      add\n        /* \"#utility.yul\":5159:5185   */\n      swap1\n      pop\n        /* \"#utility.yul\":5231:5240   */\n      dup2\n        /* \"#utility.yul\":5225:5229   */\n      dup2\n        /* \"#utility.yul\":5221:5241   */\n      sub\n        /* \"#utility.yul\":5217:5218   */\n      0x00\n        /* \"#utility.yul\":5206:5215   */\n      dup4\n        /* \"#utility.yul\":5202:5219   */\n      add\n        /* \"#utility.yul\":5195:5242   */\n      mstore\n        /* \"#utility.yul\":5259:5337   */\n      tag_223\n        /* \"#utility.yul\":5332:5336   */\n      dup2\n        /* \"#utility.yul\":5323:5329   */\n      dup5\n        /* \"#utility.yul\":5259:5337   */\n      tag_140\n      jump\t// in\n    tag_223:\n        /* \"#utility.yul\":5251:5337   */\n      swap1\n      pop\n        /* \"#utility.yul\":5031:5344   */\n      swap3\n      swap2\n      pop\n      pop\n      jump\t// out\n        /* \"#utility.yul\":5350:5498   */\n    tag_141:\n        /* \"#utility.yul\":5452:5463   */\n      0x00\n        /* \"#utility.yul\":5489:5492   */\n      dup2\n        /* \"#utility.yul\":5474:5492   */\n      swap1\n      pop\n        /* \"#utility.yul\":5350:5498   */\n      swap3\n      swap2\n      pop\n      pop\n      jump\t// out\n        /* \"#utility.yul\":5504:5894   */\n    tag_142:\n        /* \"#utility.yul\":5610:5613   */\n      0x00\n        /* \"#utility.yul\":5638:5677   */\n      tag_226\n        /* \"#utility.yul\":5671:5676   */\n      dup3\n        /* \"#utility.yul\":5638:5677   */\n      tag_137\n      jump\t// in\n    tag_226:\n        /* \"#utility.yul\":5693:5782   */\n      tag_227\n        /* \"#utility.yul\":5775:5781   */\n      dup2\n        /* \"#utility.yul\":5770:5773   */\n      dup6\n        /* \"#utility.yul\":5693:5782   */\n      tag_141\n      jump\t// in\n    tag_227:\n        /* \"#utility.yul\":5686:5782   */\n      swap4\n      pop\n        /* \"#utility.yul\":5791:5856   */\n      tag_228\n        /* \"#utility.yul\":5849:5855   */\n      dup2\n        /* \"#utility.yul\":5844:5847   */\n      dup6\n        /* \"#utility.yul\":5837:5841   */\n      0x20\n        /* \"#utility.yul\":5830:5835   */\n      dup7\n        /* \"#utility.yul\":5826:5842   */\n      add\n        /* \"#utility.yul\":5791:5856   */\n      tag_139\n      jump\t// in\n    tag_228:\n        /* \"#utility.yul\":5881:5887   */\n      dup1\n        /* \"#utility.yul\":5876:5879   */\n      dup5\n        /* \"#utility.yul\":5872:5888   */\n      add\n        /* \"#utility.yul\":5865:5888   */\n      swap2\n      pop\n        /* \"#utility.yul\":5614:5894   */\n      pop\n        /* \"#utility.yul\":5504:5894   */\n      swap3\n      swap2\n      pop\n      pop\n      jump\t// out\n        /* \"#utility.yul\":5900:6175   */\n    tag_19:\n        /* \"#utility.yul\":6032:6035   */\n      0x00\n        /* \"#utility.yul\":6054:6149   */\n      tag_230\n        /* \"#utility.yul\":6145:6148   */\n      dup3\n        /* \"#utility.yul\":6136:6142   */\n      dup5\n        /* \"#utility.yul\":6054:6149   */\n      tag_142\n      jump\t// in\n    tag_230:\n        /* \"#utility.yul\":6047:6149   */\n      swap2\n      pop\n        /* \"#utility.yul\":6166:6169   */\n      dup2\n        /* \"#utility.yul\":6159:6169   */\n      swap1\n      pop\n        /* \"#utility.yul\":5900:6175   */\n      swap3\n      swap2\n      pop\n      pop\n      jump\t// out\n        /* \"#utility.yul\":6181:6333   */\n    tag_143:\n        /* \"#utility.yul\":6321:6325   */\n      0x4956000000000000000000000000000000000000000000000000000000000000\n        /* \"#utility.yul\":6317:6318   */\n      0x00\n        /* \"#utility.yul\":6309:6315   */\n      dup3\n        /* \"#utility.yul\":6305:6319   */\n      add\n        /* \"#utility.yul\":6298:6326   */\n      mstore\n        /* \"#utility.yul\":6181:6333   */\n      pop\n      jump\t// out\n        /* \"#utility.yul\":6339:6739   */\n    tag_144:\n        /* \"#utility.yul\":6499:6502   */\n      0x00\n        /* \"#utility.yul\":6520:6604   */\n      tag_233\n        /* \"#utility.yul\":6602:6603   */\n      0x02\n        /* \"#utility.yul\":6597:6600   */\n      dup4\n        /* \"#utility.yul\":6520:6604   */\n      tag_141\n      jump\t// in\n    tag_233:\n        /* \"#utility.yul\":6513:6604   */\n      swap2\n      pop\n        /* \"#utility.yul\":6613:6706   */\n      tag_234\n        /* \"#utility.yul\":6702:6705   */\n      dup3\n        /* \"#utility.yul\":6613:6706   */\n      tag_143\n      jump\t// in\n    tag_234:\n        /* \"#utility.yul\":6731:6732   */\n      0x02\n        /* \"#utility.yul\":6726:6729   */\n      dup3\n        /* \"#utility.yul\":6722:6733   */\n      add\n        /* \"#utility.yul\":6715:6733   */\n      swap1\n      pop\n        /* \"#utility.yul\":6339:6739   */\n      swap2\n      swap1\n      pop\n      jump\t// out\n        /* \"#utility.yul\":6745:7126   */\n    tag_21:\n        /* \"#utility.yul\":6930:6933   */\n      0x00\n        /* \"#utility.yul\":6952:7100   */\n      tag_236\n        /* \"#utility.yul\":7096:7099   */\n      dup3\n        /* \"#utility.yul\":6952:7100   */\n      tag_144\n      jump\t// in\n    tag_236:\n        /* \"#utility.yul\":6945:7100   */\n      swap2\n      pop\n        /* \"#utility.yul\":7117:7120   */\n      dup2\n        /* \"#utility.yul\":7110:7120   */\n      swap1\n      pop\n        /* \"#utility.yul\":6745:7126   */\n      swap2\n      swap1\n      pop\n      jump\t// out\n        /* \"#utility.yul\":7132:7284   */\n    tag_145:\n        /* \"#utility.yul\":7272:7276   */\n      0x4958000000000000000000000000000000000000000000000000000000000000\n        /* \"#utility.yul\":7268:7269   */\n      0x00\n        /* \"#utility.yul\":7260:7266   */\n      dup3\n        /* \"#utility.yul\":7256:7270   */\n      add\n        /* \"#utility.yul\":7249:7277   */\n      mstore\n        /* \"#utility.yul\":7132:7284   */\n      pop\n      jump\t// out\n        /* \"#utility.yul\":7290:7690   */\n    tag_146:\n        /* \"#utility.yul\":7450:7453   */\n      0x00\n        /* \"#utility.yul\":7471:7555   */\n      tag_239\n        /* \"#utility.yul\":7553:7554   */\n      0x02\n        /* \"#utility.yul\":7548:7551   */\n      dup4\n        /* \"#utility.yul\":7471:7555   */\n      tag_141\n      jump\t// in\n    tag_239:\n        /* \"#utility.yul\":7464:7555   */\n      swap2\n      pop\n        /* \"#utility.yul\":7564:7657   */\n      tag_240\n        /* \"#utility.yul\":7653:7656   */\n      dup3\n        /* \"#utility.yul\":7564:7657   */\n      tag_145\n      jump\t// in\n    tag_240:\n        /* \"#utility.yul\":7682:7683   */\n      0x02\n        /* \"#utility.yul\":7677:7680   */\n      dup3\n        /* \"#utility.yul\":7673:7684   */\n      add\n        /* \"#utility.yul\":7666:7684   */\n      swap1\n      pop\n        /* \"#utility.yul\":7290:7690   */\n      swap2\n      swap1\n      pop\n      jump\t// out\n        /* \"#utility.yul\":7696:8077   */\n    tag_24:\n        /* \"#utility.yul\":7881:7884   */\n      0x00\n        /* \"#utility.yul\":7903:8051   */\n      tag_242\n        /* \"#utility.yul\":8047:8050   */\n      dup3\n        /* \"#utility.yul\":7903:8051   */\n      tag_146\n      jump\t// in\n    tag_242:\n        /* \"#utility.yul\":7896:8051   */\n      swap2\n      pop\n        /* \"#utility.yul\":8068:8071   */\n      dup2\n        /* \"#utility.yul\":8061:8071   */\n      swap1\n      pop\n        /* \"#utility.yul\":7696:8077   */\n      swap2\n      swap1\n      pop\n      jump\t// out\n        /* \"#utility.yul\":8083:8235   */\n    tag_147:\n        /* \"#utility.yul\":8223:8227   */\n      0x584c000000000000000000000000000000000000000000000000000000000000\n        /* \"#utility.yul\":8219:8220   */\n      0x00\n        /* \"#utility.yul\":8211:8217   */\n      dup3\n        /* \"#utility.yul\":8207:8221   */\n      add\n        /* \"#utility.yul\":8200:8228   */\n      mstore\n        /* \"#utility.yul\":8083:8235   */\n      pop\n      jump\t// out\n        /* \"#utility.yul\":8241:8641   */\n    tag_148:\n        /* \"#utility.yul\":8401:8404   */\n      0x00\n        /* \"#utility.yul\":8422:8506   */\n      tag_245\n        /* \"#utility.yul\":8504:8505   */\n      0x02\n        /* \"#utility.yul\":8499:8502   */\n      dup4\n        /* \"#utility.yul\":8422:8506   */\n      tag_141\n      jump\t// in\n    tag_245:\n        /* \"#utility.yul\":8415:8506   */\n      swap2\n      pop\n        /* \"#utility.yul\":8515:8608   */\n      tag_246\n        /* \"#utility.yul\":8604:8607   */\n      dup3\n        /* \"#utility.yul\":8515:8608   */\n      tag_147\n      jump\t// in\n    tag_246:\n        /* \"#utility.yul\":8633:8634   */\n      0x02\n        /* \"#utility.yul\":8628:8631   */\n      dup3\n        /* \"#utility.yul\":8624:8635   */\n      add\n        /* \"#utility.yul\":8617:8635   */\n      swap1\n      pop\n        /* \"#utility.yul\":8241:8641   */\n      swap2\n      swap1\n      pop\n      jump\t// out\n        /* \"#utility.yul\":8647:9028   */\n    tag_27:\n        /* \"#utility.yul\":8832:8835   */\n      0x00\n        /* \"#utility.yul\":8854:9002   */\n      tag_248\n        /* \"#utility.yul\":8998:9001   */\n      dup3\n        /* \"#utility.yul\":8854:9002   */\n      tag_148\n      jump\t// in\n    tag_248:\n        /* \"#utility.yul\":8847:9002   */\n      swap2\n      pop\n        /* \"#utility.yul\":9019:9022   */\n      dup2\n        /* \"#utility.yul\":9012:9022   */\n      swap1\n      pop\n        /* \"#utility.yul\":8647:9028   */\n      swap2\n      swap1\n      pop\n      jump\t// out\n        /* \"#utility.yul\":9034:9186   */\n    tag_149:\n        /* \"#utility.yul\":9174:9178   */\n      0x5843000000000000000000000000000000000000000000000000000000000000\n        /* \"#utility.yul\":9170:9171   */\n      0x00\n        /* \"#utility.yul\":9162:9168   */\n      dup3\n        /* \"#utility.yul\":9158:9172   */\n      add\n        /* \"#utility.yul\":9151:9179   */\n      mstore\n        /* \"#utility.yul\":9034:9186   */\n      pop\n      jump\t// out\n        /* \"#utility.yul\":9192:9592   */\n    tag_150:\n        /* \"#utility.yul\":9352:9355   */\n      0x00\n        /* \"#utility.yul\":9373:9457   */\n      tag_251\n        /* \"#utility.yul\":9455:9456   */\n      0x02\n        /* \"#utility.yul\":9450:9453   */\n      dup4\n        /* \"#utility.yul\":9373:9457   */\n      tag_141\n      jump\t// in\n    tag_251:\n        /* \"#utility.yul\":9366:9457   */\n      swap2\n      pop\n        /* \"#utility.yul\":9466:9559   */\n      tag_252\n        /* \"#utility.yul\":9555:9558   */\n      dup3\n        /* \"#utility.yul\":9466:9559   */\n      tag_149\n      jump\t// in\n    tag_252:\n        /* \"#utility.yul\":9584:9585   */\n      0x02\n        /* \"#utility.yul\":9579:9582   */\n      dup3\n        /* \"#utility.yul\":9575:9586   */\n      add\n        /* \"#utility.yul\":9568:9586   */\n      swap1\n      pop\n        /* \"#utility.yul\":9192:9592   */\n      swap2\n      swap1\n      pop\n      jump\t// out\n        /* \"#utility.yul\":9598:9979   */\n    tag_30:\n        /* \"#utility.yul\":9783:9786   */\n      0x00\n        /* \"#utility.yul\":9805:9953   */\n      tag_254\n        /* \"#utility.yul\":9949:9952   */\n      dup3\n        /* \"#utility.yul\":9805:9953   */\n      tag_150\n      jump\t// in\n    tag_254:\n        /* \"#utility.yul\":9798:9953   */\n      swap2\n      pop\n        /* \"#utility.yul\":9970:9973   */\n      dup2\n        /* \"#utility.yul\":9963:9973   */\n      swap1\n      pop\n        /* \"#utility.yul\":9598:9979   */\n      swap2\n      swap1\n      pop\n      jump\t// out\n        /* \"#utility.yul\":9985:10137   */\n    tag_151:\n        /* \"#utility.yul\":10125:10129   */\n      0x4344000000000000000000000000000000000000000000000000000000000000\n        /* \"#utility.yul\":10121:10122   */\n      0x00\n        /* \"#utility.yul\":10113:10119   */\n      dup3\n        /* \"#utility.yul\":10109:10123   */\n      add\n        /* \"#utility.yul\":10102:10130   */\n      mstore\n        /* \"#utility.yul\":9985:10137   */\n      pop\n      jump\t// out\n        /* \"#utility.yul\":10143:10543   */\n    tag_152:\n        /* \"#utility.yul\":10303:10306   */\n      0x00\n        /* \"#utility.yul\":10324:10408   */\n      tag_257\n        /* \"#utility.yul\":10406:10407   */\n      0x02\n        /* \"#utility.yul\":10401:10404   */\n      dup4\n        /* \"#utility.yul\":10324:10408   */\n      tag_141\n      jump\t// in\n    tag_257:\n        /* \"#utility.yul\":10317:10408   */\n      swap2\n      pop\n        /* \"#utility.yul\":10417:10510   */\n      tag_258\n        /* \"#utility.yul\":10506:10509   */\n      dup3\n        /* \"#utility.yul\":10417:10510   */\n      tag_151\n      jump\t// in\n    tag_258:\n        /* \"#utility.yul\":10535:10536   */\n      0x02\n        /* \"#utility.yul\":10530:10533   */\n      dup3\n        /* \"#utility.yul\":10526:10537   */\n      add\n        /* \"#utility.yul\":10519:10537   */\n      swap1\n      pop\n        /* \"#utility.yul\":10143:10543   */\n      swap2\n      swap1\n      pop\n      jump\t// out\n        /* \"#utility.yul\":10549:10930   */\n    tag_33:\n        /* \"#utility.yul\":10734:10737   */\n      0x00\n        /* \"#utility.yul\":10756:10904   */\n      tag_260\n        /* \"#utility.yul\":10900:10903   */\n      dup3\n        /* \"#utility.yul\":10756:10904   */\n      tag_152\n      jump\t// in\n    tag_260:\n        /* \"#utility.yul\":10749:10904   */\n      swap2\n      pop\n        /* \"#utility.yul\":10921:10924   */\n      dup2\n        /* \"#utility.yul\":10914:10924   */\n      swap1\n      pop\n        /* \"#utility.yul\":10549:10930   */\n      swap2\n      swap1\n      pop\n      jump\t// out\n        /* \"#utility.yul\":10936:11088   */\n    tag_153:\n        /* \"#utility.yul\":11076:11080   */\n      0x434d000000000000000000000000000000000000000000000000000000000000\n        /* \"#utility.yul\":11072:11073   */\n      0x00\n        /* \"#utility.yul\":11064:11070   */\n      dup3\n        /* \"#utility.yul\":11060:11074   */\n      add\n        /* \"#utility.yul\":11053:11081   */\n      mstore\n        /* \"#utility.yul\":10936:11088   */\n      pop\n      jump\t// out\n        /* \"#utility.yul\":11094:11494   */\n    tag_154:\n        /* \"#utility.yul\":11254:11257   */\n      0x00\n        /* \"#utility.yul\":11275:11359   */\n      tag_263\n        /* \"#utility.yul\":11357:11358   */\n      0x02\n        /* \"#utility.yul\":11352:11355   */\n      dup4\n        /* \"#utility.yul\":11275:11359   */\n      tag_141\n      jump\t// in\n    tag_263:\n        /* \"#utility.yul\":11268:11359   */\n      swap2\n      pop\n        /* \"#utility.yul\":11368:11461   */\n      tag_264\n        /* \"#utility.yul\":11457:11460   */\n      dup3\n        /* \"#utility.yul\":11368:11461   */\n      tag_153\n      jump\t// in\n    tag_264:\n        /* \"#utility.yul\":11486:11487   */\n      0x02\n        /* \"#utility.yul\":11481:11484   */\n      dup3\n        /* \"#utility.yul\":11477:11488   */\n      add\n        /* \"#utility.yul\":11470:11488   */\n      swap1\n      pop\n        /* \"#utility.yul\":11094:11494   */\n      swap2\n      swap1\n      pop\n      jump\t// out\n        /* \"#utility.yul\":11500:11881   */\n    tag_36:\n        /* \"#utility.yul\":11685:11688   */\n      0x00\n        /* \"#utility.yul\":11707:11855   */\n      tag_266\n        /* \"#utility.yul\":11851:11854   */\n      dup3\n        /* \"#utility.yul\":11707:11855   */\n      tag_154\n      jump\t// in\n    tag_266:\n        /* \"#utility.yul\":11700:11855   */\n      swap2\n      pop\n        /* \"#utility.yul\":11872:11875   */\n      dup2\n        /* \"#utility.yul\":11865:11875   */\n      swap1\n      pop\n        /* \"#utility.yul\":11500:11881   */\n      swap2\n      swap1\n      pop\n      jump\t// out\n        /* \"#utility.yul\":11887:12067   */\n    tag_43:\n        /* \"#utility.yul\":11935:12012   */\n      0x4e487b7100000000000000000000000000000000000000000000000000000000\n        /* \"#utility.yul\":11932:11933   */\n      0x00\n        /* \"#utility.yul\":11925:12013   */\n      mstore\n        /* \"#utility.yul\":12032:12036   */\n      0x32\n        /* \"#utility.yul\":12029:12030   */\n      0x04\n        /* \"#utility.yul\":12022:12037   */\n      mstore\n        /* \"#utility.yul\":12056:12060   */\n      0x24\n        /* \"#utility.yul\":12053:12054   */\n      0x00\n        /* \"#utility.yul\":12046:12061   */\n      revert\n        /* \"#utility.yul\":12073:12253   */\n    tag_155:\n        /* \"#utility.yul\":12121:12198   */\n      0x4e487b7100000000000000000000000000000000000000000000000000000000\n        /* \"#utility.yul\":12118:12119   */\n      0x00\n        /* \"#utility.yul\":12111:12199   */\n      mstore\n        /* \"#utility.yul\":12218:12222   */\n      0x11\n        /* \"#utility.yul\":12215:12216   */\n      0x04\n        /* \"#utility.yul\":12208:12223   */\n      mstore\n        /* \"#utility.yul\":12242:12246   */\n      0x24\n        /* \"#utility.yul\":12239:12240   */\n      0x00\n        /* \"#utility.yul\":12232:12247   */\n      revert\n        /* \"#utility.yul\":12259:12464   */\n    tag_46:\n        /* \"#utility.yul\":12298:12301   */\n      0x00\n        /* \"#utility.yul\":12317:12336   */\n      tag_270\n        /* \"#utility.yul\":12334:12335   */\n      dup3\n        /* \"#utility.yul\":12317:12336   */\n      tag_132\n      jump\t// in\n    tag_270:\n        /* \"#utility.yul\":12312:12336   */\n      swap2\n      pop\n        /* \"#utility.yul\":12350:12369   */\n      tag_271\n        /* \"#utility.yul\":12367:12368   */\n      dup4\n        /* \"#utility.yul\":12350:12369   */\n      tag_132\n      jump\t// in\n    tag_271:\n        /* \"#utility.yul\":12345:12369   */\n      swap3\n      pop\n        /* \"#utility.yul\":12392:12393   */\n      dup3\n        /* \"#utility.yul\":12389:12390   */\n      dup3\n        /* \"#utility.yul\":12385:12394   */\n      add\n        /* \"#utility.yul\":12378:12394   */\n      swap1\n      pop\n        /* \"#utility.yul\":12415:12433   */\n      0xffffffffffffffff\n        /* \"#utility.yul\":12410:12413   */\n      dup2\n        /* \"#utility.yul\":12407:12434   */\n      gt\n        /* \"#utility.yul\":12404:12457   */\n      iszero\n      tag_272\n      jumpi\n        /* \"#utility.yul\":12437:12455   */\n      tag_273\n      tag_155\n      jump\t// in\n    tag_273:\n        /* \"#utility.yul\":12404:12457   */\n    tag_272:\n        /* \"#utility.yul\":12259:12464   */\n      swap3\n      swap2\n      pop\n      pop\n      jump\t// out\n        /* \"#utility.yul\":12470:12645   */\n    tag_75:\n        /* \"#utility.yul\":12508:12511   */\n      0x00\n        /* \"#utility.yul\":12531:12554   */\n      tag_275\n        /* \"#utility.yul\":12548:12553   */\n      dup3\n        /* \"#utility.yul\":12531:12554   */\n      tag_134\n      jump\t// in\n    tag_275:\n        /* \"#utility.yul\":12522:12554   */\n      swap2\n      pop\n        /* \"#utility.yul\":12576:12586   */\n      0xffffffff\n        /* \"#utility.yul\":12569:12574   */\n      dup3\n        /* \"#utility.yul\":12566:12587   */\n      sub\n        /* \"#utility.yul\":12563:12610   */\n      tag_276\n      jumpi\n        /* \"#utility.yul\":12590:12608   */\n      tag_277\n      tag_155\n      jump\t// in\n    tag_277:\n        /* \"#utility.yul\":12563:12610   */\n    tag_276:\n        /* \"#utility.yul\":12637:12638   */\n      0x01\n        /* \"#utility.yul\":12630:12635   */\n      dup3\n        /* \"#utility.yul\":12626:12639   */\n      add\n        /* \"#utility.yul\":12619:12639   */\n      swap1\n      pop\n        /* \"#utility.yul\":12470:12645   */\n      swap2\n      swap1\n      pop\n      jump\t// out\n        /* \"#utility.yul\":12651:12829   */\n    tag_156:\n        /* \"#utility.yul\":12819:12822   */\n      0x4d00000000000000000000000000000000000000000000000000000000000000\n        /* \"#utility.yul\":12814:12817   */\n      dup2\n        /* \"#utility.yul\":12807:12823   */\n      mstore\n        /* \"#utility.yul\":12651:12829   */\n      pop\n      jump\t// out\n        /* \"#utility.yul\":12835:13374   */\n    tag_87:\n        /* \"#utility.yul\":13057:13060   */\n      0x00\n        /* \"#utility.yul\":13079:13174   */\n      tag_280\n        /* \"#utility.yul\":13170:13173   */\n      dup3\n        /* \"#utility.yul\":13161:13167   */\n      dup5\n        /* \"#utility.yul\":13079:13174   */\n      tag_142\n      jump\t// in\n    tag_280:\n        /* \"#utility.yul\":13072:13174   */\n      swap2\n      pop\n        /* \"#utility.yul\":13184:13321   */\n      tag_281\n        /* \"#utility.yul\":13317:13320   */\n      dup3\n        /* \"#utility.yul\":13184:13321   */\n      tag_156\n      jump\t// in\n    tag_281:\n        /* \"#utility.yul\":13346:13347   */\n      0x01\n        /* \"#utility.yul\":13341:13344   */\n      dup3\n        /* \"#utility.yul\":13337:13348   */\n      add\n        /* \"#utility.yul\":13330:13348   */\n      swap2\n      pop\n        /* \"#utility.yul\":13365:13368   */\n      dup2\n        /* \"#utility.yul\":13358:13368   */\n      swap1\n      pop\n        /* \"#utility.yul\":12835:13374   */\n      swap3\n      swap2\n      pop\n      pop\n      jump\t// out\n        /* \"#utility.yul\":13380:13580   */\n    tag_89:\n        /* \"#utility.yul\":13419:13423   */\n      0x00\n        /* \"#utility.yul\":13439:13458   */\n      tag_283\n        /* \"#utility.yul\":13456:13457   */\n      dup3\n        /* \"#utility.yul\":13439:13458   */\n      tag_134\n      jump\t// in\n    tag_283:\n        /* \"#utility.yul\":13434:13458   */\n      swap2\n      pop\n        /* \"#utility.yul\":13472:13491   */\n      tag_284\n        /* \"#utility.yul\":13489:13490   */\n      dup4\n        /* \"#utility.yul\":13472:13491   */\n      tag_134\n      jump\t// in\n    tag_284:\n        /* \"#utility.yul\":13467:13491   */\n      swap3\n      pop\n        /* \"#utility.yul\":13515:13516   */\n      dup3\n        /* \"#utility.yul\":13512:13513   */\n      dup3\n        /* \"#utility.yul\":13508:13517   */\n      sub\n        /* \"#utility.yul\":13500:13517   */\n      swap1\n      pop\n        /* \"#utility.yul\":13539:13549   */\n      0xffffffff\n        /* \"#utility.yul\":13533:13537   */\n      dup2\n        /* \"#utility.yul\":13530:13550   */\n      gt\n        /* \"#utility.yul\":13527:13573   */\n      iszero\n      tag_285\n      jumpi\n        /* \"#utility.yul\":13553:13571   */\n      tag_286\n      tag_155\n      jump\t// in\n    tag_286:\n        /* \"#utility.yul\":13527:13573   */\n    tag_285:\n        /* \"#utility.yul\":13380:13580   */\n      swap3\n      swap2\n      pop\n      pop\n      jump\t// out\n        /* \"#utility.yul\":13586:13764   */\n    tag_157:\n        /* \"#utility.yul\":13754:13757   */\n      0x4400000000000000000000000000000000000000000000000000000000000000\n        /* \"#utility.yul\":13749:13752   */\n      dup2\n        /* \"#utility.yul\":13742:13758   */\n      mstore\n        /* \"#utility.yul\":13586:13764   */\n      pop\n      jump\t// out\n        /* \"#utility.yul\":13770:14309   */\n    tag_93:\n        /* \"#utility.yul\":13992:13995   */\n      0x00\n        /* \"#utility.yul\":14014:14109   */\n      tag_289\n        /* \"#utility.yul\":14105:14108   */\n      dup3\n        /* \"#utility.yul\":14096:14102   */\n      dup5\n        /* \"#utility.yul\":14014:14109   */\n      tag_142\n      jump\t// in\n    tag_289:\n        /* \"#utility.yul\":14007:14109   */\n      swap2\n      pop\n        /* \"#utility.yul\":14119:14256   */\n      tag_290\n        /* \"#utility.yul\":14252:14255   */\n      dup3\n        /* \"#utility.yul\":14119:14256   */\n      tag_157\n      jump\t// in\n    tag_290:\n        /* \"#utility.yul\":14281:14282   */\n      0x01\n        /* \"#utility.yul\":14276:14279   */\n      dup3\n        /* \"#utility.yul\":14272:14283   */\n      add\n        /* \"#utility.yul\":14265:14283   */\n      swap2\n      pop\n        /* \"#utility.yul\":14300:14303   */\n      dup2\n        /* \"#utility.yul\":14293:14303   */\n      swap1\n      pop\n        /* \"#utility.yul\":13770:14309   */\n      swap3\n      swap2\n      pop\n      pop\n      jump\t// out\n        /* \"#utility.yul\":14315:14493   */\n    tag_158:\n        /* \"#utility.yul\":14483:14486   */\n      0x4300000000000000000000000000000000000000000000000000000000000000\n        /* \"#utility.yul\":14478:14481   */\n      dup2\n        /* \"#utility.yul\":14471:14487   */\n      mstore\n        /* \"#utility.yul\":14315:14493   */\n      pop\n      jump\t// out\n        /* \"#utility.yul\":14499:15038   */\n    tag_98:\n        /* \"#utility.yul\":14721:14724   */\n      0x00\n        /* \"#utility.yul\":14743:14838   */\n      tag_293\n        /* \"#utility.yul\":14834:14837   */\n      dup3\n        /* \"#utility.yul\":14825:14831   */\n      dup5\n        /* \"#utility.yul\":14743:14838   */\n      tag_142\n      jump\t// in\n    tag_293:\n        /* \"#utility.yul\":14736:14838   */\n      swap2\n      pop\n        /* \"#utility.yul\":14848:14985   */\n      tag_294\n        /* \"#utility.yul\":14981:14984   */\n      dup3\n        /* \"#utility.yul\":14848:14985   */\n      tag_158\n      jump\t// in\n    tag_294:\n        /* \"#utility.yul\":15010:15011   */\n      0x01\n        /* \"#utility.yul\":15005:15008   */\n      dup3\n        /* \"#utility.yul\":15001:15012   */\n      add\n        /* \"#utility.yul\":14994:15012   */\n      swap2\n      pop\n        /* \"#utility.yul\":15029:15032   */\n      dup2\n        /* \"#utility.yul\":15022:15032   */\n      swap1\n      pop\n        /* \"#utility.yul\":14499:15038   */\n      swap3\n      swap2\n      pop\n      pop\n      jump\t// out\n        /* \"#utility.yul\":15044:15222   */\n    tag_159:\n        /* \"#utility.yul\":15212:15215   */\n      0x4c00000000000000000000000000000000000000000000000000000000000000\n        /* \"#utility.yul\":15207:15210   */\n      dup2\n        /* \"#utility.yul\":15200:15216   */\n      mstore\n        /* \"#utility.yul\":15044:15222   */\n      pop\n      jump\t// out\n        /* \"#utility.yul\":15228:15767   */\n    tag_103:\n        /* \"#utility.yul\":15450:15453   */\n      0x00\n        /* \"#utility.yul\":15472:15567   */\n      tag_297\n        /* \"#utility.yul\":15563:15566   */\n      dup3\n        /* \"#utility.yul\":15554:15560   */\n      dup5\n        /* \"#utility.yul\":15472:15567   */\n      tag_142\n      jump\t// in\n    tag_297:\n        /* \"#utility.yul\":15465:15567   */\n      swap2\n      pop\n        /* \"#utility.yul\":15577:15714   */\n      tag_298\n        /* \"#utility.yul\":15710:15713   */\n      dup3\n        /* \"#utility.yul\":15577:15714   */\n      tag_159\n      jump\t// in\n    tag_298:\n        /* \"#utility.yul\":15739:15740   */\n      0x01\n        /* \"#utility.yul\":15734:15737   */\n      dup3\n        /* \"#utility.yul\":15730:15741   */\n      add\n        /* \"#utility.yul\":15723:15741   */\n      swap2\n      pop\n        /* \"#utility.yul\":15758:15761   */\n      dup2\n        /* \"#utility.yul\":15751:15761   */\n      swap1\n      pop\n        /* \"#utility.yul\":15228:15767   */\n      swap3\n      swap2\n      pop\n      pop\n      jump\t// out\n        /* \"#utility.yul\":15773:15951   */\n    tag_160:\n        /* \"#utility.yul\":15941:15944   */\n      0x5800000000000000000000000000000000000000000000000000000000000000\n        /* \"#utility.yul\":15936:15939   */\n      dup2\n        /* \"#utility.yul\":15929:15945   */\n      mstore\n        /* \"#utility.yul\":15773:15951   */\n      pop\n      jump\t// out\n        /* \"#utility.yul\":15957:16496   */\n    tag_108:\n        /* \"#utility.yul\":16179:16182   */\n      0x00\n        /* \"#utility.yul\":16201:16296   */\n      tag_301\n        /* \"#utility.yul\":16292:16295   */\n      dup3\n        /* \"#utility.yul\":16283:16289   */\n      dup5\n        /* \"#utility.yul\":16201:16296   */\n      tag_142\n      jump\t// in\n    tag_301:\n        /* \"#utility.yul\":16194:16296   */\n      swap2\n      pop\n        /* \"#utility.yul\":16306:16443   */\n      tag_302\n        /* \"#utility.yul\":16439:16442   */\n      dup3\n        /* \"#utility.yul\":16306:16443   */\n      tag_160\n      jump\t// in\n    tag_302:\n        /* \"#utility.yul\":16468:16469   */\n      0x01\n        /* \"#utility.yul\":16463:16466   */\n      dup3\n        /* \"#utility.yul\":16459:16470   */\n      add\n        /* \"#utility.yul\":16452:16470   */\n      swap2\n      pop\n        /* \"#utility.yul\":16487:16490   */\n      dup2\n        /* \"#utility.yul\":16480:16490   */\n      swap1\n      pop\n        /* \"#utility.yul\":15957:16496   */\n      swap3\n      swap2\n      pop\n      pop\n      jump\t// out\n        /* \"#utility.yul\":16502:16680   */\n    tag_161:\n        /* \"#utility.yul\":16670:16673   */\n      0x5600000000000000000000000000000000000000000000000000000000000000\n        /* \"#utility.yul\":16665:16668   */\n      dup2\n        /* \"#utility.yul\":16658:16674   */\n      mstore\n        /* \"#utility.yul\":16502:16680   */\n      pop\n      jump\t// out\n        /* \"#utility.yul\":16686:17225   */\n    tag_113:\n        /* \"#utility.yul\":16908:16911   */\n      0x00\n        /* \"#utility.yul\":16930:17025   */\n      tag_305\n        /* \"#utility.yul\":17021:17024   */\n      dup3\n        /* \"#utility.yul\":17012:17018   */\n      dup5\n        /* \"#utility.yul\":16930:17025   */\n      tag_142\n      jump\t// in\n    tag_305:\n        /* \"#utility.yul\":16923:17025   */\n      swap2\n      pop\n        /* \"#utility.yul\":17035:17172   */\n      tag_306\n        /* \"#utility.yul\":17168:17171   */\n      dup3\n        /* \"#utility.yul\":17035:17172   */\n      tag_161\n      jump\t// in\n    tag_306:\n        /* \"#utility.yul\":17197:17198   */\n      0x01\n        /* \"#utility.yul\":17192:17195   */\n      dup3\n        /* \"#utility.yul\":17188:17199   */\n      add\n        /* \"#utility.yul\":17181:17199   */\n      swap2\n      pop\n        /* \"#utility.yul\":17216:17219   */\n      dup2\n        /* \"#utility.yul\":17209:17219   */\n      swap1\n      pop\n        /* \"#utility.yul\":16686:17225   */\n      swap3\n      swap2\n      pop\n      pop\n      jump\t// out\n        /* \"#utility.yul\":17231:17409   */\n    tag_162:\n        /* \"#utility.yul\":17399:17402   */\n      0x4900000000000000000000000000000000000000000000000000000000000000\n        /* \"#utility.yul\":17394:17397   */\n      dup2\n        /* \"#utility.yul\":17387:17403   */\n      mstore\n        /* \"#utility.yul\":17231:17409   */\n      pop\n      jump\t// out\n        /* \"#utility.yul\":17415:17954   */\n    tag_117:\n        /* \"#utility.yul\":17637:17640   */\n      0x00\n        /* \"#utility.yul\":17659:17754   */\n      tag_309\n        /* \"#utility.yul\":17750:17753   */\n      dup3\n        /* \"#utility.yul\":17741:17747   */\n      dup5\n        /* \"#utility.yul\":17659:17754   */\n      tag_142\n      jump\t// in\n    tag_309:\n        /* \"#utility.yul\":17652:17754   */\n      swap2\n      pop\n        /* \"#utility.yul\":17764:17901   */\n      tag_310\n        /* \"#utility.yul\":17897:17900   */\n      dup3\n        /* \"#utility.yul\":17764:17901   */\n      tag_162\n      jump\t// in\n    tag_310:\n        /* \"#utility.yul\":17926:17927   */\n      0x01\n        /* \"#utility.yul\":17921:17924   */\n      dup3\n        /* \"#utility.yul\":17917:17928   */\n      add\n        /* \"#utility.yul\":17910:17928   */\n      swap2\n      pop\n        /* \"#utility.yul\":17945:17948   */\n      dup2\n        /* \"#utility.yul\":17938:17948   */\n      swap1\n      pop\n        /* \"#utility.yul\":17415:17954   */\n      swap3\n      swap2\n      pop\n      pop\n      jump\t// out\n\n    auxdata: 0xa26469706673582212206ea1173d362da2cae4fd8c159bfacfb6d10954806e47a06ac873b048d831ae6564736f6c634300081e0033\n}\n",
				"bytecode": {
					"linkReferences": {},
					"object": "6080604052348015600e575f5ffd5b506111968061001c5f395ff3fe608060405234801561000f575f5ffd5b5060043610610034575f3560e01c8063cb159dfe14610038578063fb3b789614610068575b5f5ffd5b610052600480360381019061004d9190610a72565b610098565b60405161005f9190610adb565b60405180910390f35b610082600480360381019061007d9190610b2d565b61055c565b60405161008f9190610bb8565b60405180910390f35b5f5f8290505f836040516020016100af9190610c12565b6040516020818303038152906040528051906020012090506040516020016100d690610c72565b6040516020818303038152906040528051906020012081036100fd57600492505050610557565b60405160200161010c90610cd0565b60405160208183030381529060405280519060200120810361013357600992505050610557565b60405160200161014290610d2e565b60405160208183030381529060405280519060200120810361016957602892505050610557565b60405160200161017890610d8c565b60405160208183030381529060405280519060200120810361019f57605a92505050610557565b6040516020016101ae90610dea565b6040516020818303038152906040528051906020012081036101d65761019092505050610557565b6040516020016101e590610e48565b60405160208183030381529060405280519060200120810361020d5761038492505050610557565b5f5f90505f5f90505b83518163ffffffff16101561054f577f4d00000000000000000000000000000000000000000000000000000000000000848263ffffffff168151811061025f5761025e610e5c565b5b602001015160f81c60f81b7effffffffffffffffffffffffffffffffffffffffffffffffffffffffffffff1916036102a6576103e88261029f9190610eb6565b915061053c565b7f4400000000000000000000000000000000000000000000000000000000000000848263ffffffff16815181106102e0576102df610e5c565b5b602001015160f81c60f81b7effffffffffffffffffffffffffffffffffffffffffffffffffffffffffffff191603610327576101f4826103209190610eb6565b915061053b565b7f4300000000000000000000000000000000000000000000000000000000000000848263ffffffff168151811061036157610360610e5c565b5b602001015160f81c60f81b7effffffffffffffffffffffffffffffffffffffffffffffffffffffffffffff1916036103a7576064826103a09190610eb6565b915061053a565b7f4c00000000000000000000000000000000000000000000000000000000000000848263ffffffff16815181106103e1576103e0610e5c565b5b602001015160f81c60f81b7effffffffffffffffffffffffffffffffffffffffffffffffffffffffffffff191603610427576032826104209190610eb6565b9150610539565b7f5800000000000000000000000000000000000000000000000000000000000000848263ffffffff168151811061046157610460610e5c565b5b602001015160f81c60f81b7effffffffffffffffffffffffffffffffffffffffffffffffffffffffffffff1916036104a757600a826104a09190610eb6565b9150610538565b7f5600000000000000000000000000000000000000000000000000000000000000848263ffffffff16815181106104e1576104e0610e5c565b5b602001015160f81c60f81b7effffffffffffffffffffffffffffffffffffffffffffffffffffffffffffff191603610527576005826105209190610eb6565b9150610537565b6001826105349190610eb6565b91505b5b5b5b5b5b808061054790610ef1565b915050610216565b508093505050505b919050565b606060048263ffffffff16036105a9576040518060400160405280600281526020017f49560000000000000000000000000000000000000000000000000000000000008152509050610920565b60098263ffffffff16036105f4576040518060400160405280600281526020017f49580000000000000000000000000000000000000000000000000000000000008152509050610920565b60288263ffffffff160361063f576040518060400160405280600281526020017f584c0000000000000000000000000000000000000000000000000000000000008152509050610920565b605a8263ffffffff160361068a576040518060400160405280600281526020017f58430000000000000000000000000000000000000000000000000000000000008152509050610920565b6101908263ffffffff16036106d6576040518060400160405280600281526020017f43440000000000000000000000000000000000000000000000000000000000008152509050610920565b6103848263ffffffff1603610722576040518060400160405280600281526020017f434d0000000000000000000000000000000000000000000000000000000000008152509050610920565b5f60405180602001604052805f81525090505b5f8363ffffffff16111561091b576103e88363ffffffff161061078957806040516020016107639190610f42565b60405160208183030381529060405290506103e8836107829190610f67565b9250610916565b6101f48363ffffffff16106107cf57806040516020016107a99190610fc4565b60405160208183030381529060405290506101f4836107c89190610f67565b9250610915565b60648363ffffffff161061081357806040516020016107ee919061100f565b604051602081830303815290604052905060648361080c9190610f67565b9250610914565b60328363ffffffff16106108575780604051602001610832919061105a565b60405160208183030381529060405290506032836108509190610f67565b9250610913565b600a8363ffffffff161061089b578060405160200161087691906110a5565b6040516020818303038152906040529050600a836108949190610f67565b9250610912565b60058363ffffffff16106108df57806040516020016108ba91906110f0565b60405160208183030381529060405290506005836108d89190610f67565b9250610911565b806040516020016108f0919061113b565b604051602081830303815290604052905060018361090e9190610f67565b92505b5b5b5b5b5b610735565b809150505b919050565b5f604051905090565b5f5ffd5b5f5ffd5b5f5ffd5b5f5ffd5b5f601f19601f8301169050919050565b7f4e487b71000000000000000000000000000000000000000000000000000000005f52604160045260245ffd5b6109848261093e565b810181811067ffffffffffffffff821117156109a3576109a261094e565b5b80604052505050565b5f6109b5610925565b90506109c1828261097b565b919050565b5f67ffffffffffffffff8211156109e0576109df61094e565b5b6109e98261093e565b9050602081019050919050565b828183375f83830152505050565b5f610a16610a11846109c6565b6109ac565b905082815260208101848484011115610a3257610a3161093a565b5b610a3d8482856109f6565b509392505050565b5f82601f830112610a5957610a58610936565b5b8135610a69848260208601610a04565b91505092915050565b5f60208284031215610a8757610a8661092e565b5b5f82013567ffffffffffffffff811115610aa457610aa3610932565b5b610ab084828501610a45565b91505092915050565b5f67ffffffffffffffff82169050919050565b610ad581610ab9565b82525050565b5f602082019050610aee5f830184610acc565b92915050565b5f63ffffffff82169050919050565b610b0c81610af4565b8114610b16575f5ffd5b50565b5f81359050610b2781610b03565b92915050565b5f60208284031215610b4257610b4161092e565b5b5f610b4f84828501610b19565b91505092915050565b5f81519050919050565b5f82825260208201905092915050565b8281835e5f83830152505050565b5f610b8a82610b58565b610b948185610b62565b9350610ba4818560208601610b72565b610bad8161093e565b840191505092915050565b5f6020820190508181035f830152610bd08184610b80565b905092915050565b5f81905092915050565b5f610bec82610b58565b610bf68185610bd8565b9350610c06818560208601610b72565b80840191505092915050565b5f610c1d8284610be2565b915081905092915050565b7f49560000000000000000000000000000000000000000000000000000000000005f82015250565b5f610c5c600283610bd8565b9150610c6782610c28565b600282019050919050565b5f610c7c82610c50565b9150819050919050565b7f49580000000000000000000000000000000000000000000000000000000000005f82015250565b5f610cba600283610bd8565b9150610cc582610c86565b600282019050919050565b5f610cda82610cae565b9150819050919050565b7f584c0000000000000000000000000000000000000000000000000000000000005f82015250565b5f610d18600283610bd8565b9150610d2382610ce4565b600282019050919050565b5f610d3882610d0c565b9150819050919050565b7f58430000000000000000000000000000000000000000000000000000000000005f82015250565b5f610d76600283610bd8565b9150610d8182610d42565b600282019050919050565b5f610d9682610d6a565b9150819050919050565b7f43440000000000000000000000000000000000000000000000000000000000005f82015250565b5f610dd4600283610bd8565b9150610ddf82610da0565b600282019050919050565b5f610df482610dc8565b9150819050919050565b7f434d0000000000000000000000000000000000000000000000000000000000005f82015250565b5f610e32600283610bd8565b9150610e3d82610dfe565b600282019050919050565b5f610e5282610e26565b9150819050919050565b7f4e487b71000000000000000000000000000000000000000000000000000000005f52603260045260245ffd5b7f4e487b71000000000000000000000000000000000000000000000000000000005f52601160045260245ffd5b5f610ec082610ab9565b9150610ecb83610ab9565b9250828201905067ffffffffffffffff811115610eeb57610eea610e89565b5b92915050565b5f610efb82610af4565b915063ffffffff8203610f1157610f10610e89565b5b600182019050919050565b7f4d00000000000000000000000000000000000000000000000000000000000000815250565b5f610f4d8284610be2565b9150610f5882610f1c565b60018201915081905092915050565b5f610f7182610af4565b9150610f7c83610af4565b9250828203905063ffffffff811115610f9857610f97610e89565b5b92915050565b7f4400000000000000000000000000000000000000000000000000000000000000815250565b5f610fcf8284610be2565b9150610fda82610f9e565b60018201915081905092915050565b7f4300000000000000000000000000000000000000000000000000000000000000815250565b5f61101a8284610be2565b915061102582610fe9565b60018201915081905092915050565b7f4c00000000000000000000000000000000000000000000000000000000000000815250565b5f6110658284610be2565b915061107082611034565b60018201915081905092915050565b7f5800000000000000000000000000000000000000000000000000000000000000815250565b5f6110b08284610be2565b91506110bb8261107f565b60018201915081905092915050565b7f5600000000000000000000000000000000000000000000000000000000000000815250565b5f6110fb8284610be2565b9150611106826110ca565b60018201915081905092915050565b7f4900000000000000000000000000000000000000000000000000000000000000815250565b5f6111468284610be2565b915061115182611115565b6001820191508190509291505056fea26469706673582212206ea1173d362da2cae4fd8c159bfacfb6d10954806e47a06ac873b048d831ae6564736f6c634300081e0033",
					"opcodes": "PUSH1 0x80 PUSH1 0x40 MSTORE CALLVALUE DUP1 ISZERO PUSH1 0xE JUMPI PUSH0 PUSH0 REVERT JUMPDEST POP PUSH2 0x1196 DUP1 PUSH2 0x1C PUSH0 CODECOPY PUSH0 RETURN INVALID PUSH1 0x80 PUSH1 0x40 MSTORE CALLVALUE DUP1 ISZERO PUSH2 0xF JUMPI PUSH0 PUSH0 REVERT JUMPDEST POP PUSH1 0x4 CALLDATASIZE LT PUSH2 0x34 JUMPI PUSH0 CALLDATALOAD PUSH1 0xE0 SHR DUP1 PUSH4 0xCB159DFE EQ PUSH2 0x38 JUMPI DUP1 PUSH4 0xFB3B7896 EQ PUSH2 0x68 JUMPI JUMPDEST PUSH0 PUSH0 REVERT JUMPDEST PUSH2 0x52 PUSH1 0x4 DUP1 CALLDATASIZE SUB DUP2 ADD SWAP1 PUSH2 0x4D SWAP2 SWAP1 PUSH2 0xA72 JUMP JUMPDEST PUSH2 0x98 JUMP JUMPDEST PUSH1 0x40 MLOAD PUSH2 0x5F SWAP2 SWAP1 PUSH2 0xADB JUMP JUMPDEST PUSH1 0x40 MLOAD DUP1 SWAP2 SUB SWAP1 RETURN JUMPDEST PUSH2 0x82 PUSH1 0x4 DUP1 CALLDATASIZE SUB DUP2 ADD SWAP1 PUSH2 0x7D SWAP2 SWAP1 PUSH2 0xB2D JUMP JUMPDEST PUSH2 0x55C JUMP JUMPDEST PUSH1 0x40 MLOAD PUSH2 0x8F SWAP2 SWAP1 PUSH2 0xBB8 JUMP JUMPDEST PUSH1 0x40 MLOAD DUP1 SWAP2 SUB SWAP1 RETURN JUMPDEST PUSH0 PUSH0 DUP3 SWAP1 POP PUSH0 DUP4 PUSH1 0x40 MLOAD PUSH1 0x20 ADD PUSH2 0xAF SWAP2 SWAP1 PUSH2 0xC12 JUMP JUMPDEST PUSH1 0x40 MLOAD PUSH1 0x20 DUP2 DUP4 SUB SUB DUP2 MSTORE SWAP1 PUSH1 0x40 MSTORE DUP1 MLOAD SWAP1 PUSH1 0x20 ADD KECCAK256 SWAP1 POP PUSH1 0x40 MLOAD PUSH1 0x20 ADD PUSH2 0xD6 SWAP1 PUSH2 0xC72 JUMP JUMPDEST PUSH1 0x40 MLOAD PUSH1 0x20 DUP2 DUP4 SUB SUB DUP2 MSTORE SWAP1 PUSH1 0x40 MSTORE DUP1 MLOAD SWAP1 PUSH1 0x20 ADD KECCAK256 DUP2 SUB PUSH2 0xFD JUMPI PUSH1 0x4 SWAP3 POP POP POP PUSH2 0x557 JUMP JUMPDEST PUSH1 0x40 MLOAD PUSH1 0x20 ADD PUSH2 0x10C SWAP1 PUSH2 0xCD0 JUMP JUMPDEST PUSH1 0x40 MLOAD PUSH1 0x20 DUP2 DUP4 SUB SUB DUP2 MSTORE SWAP1 PUSH1 0x40 MSTORE DUP1 MLOAD SWAP1 PUSH1 0x20 ADD KECCAK256 DUP2 SUB PUSH2 0x133 JUMPI PUSH1 0x9 SWAP3 POP POP POP PUSH2 0x557 JUMP JUMPDEST PUSH1 0x40 MLOAD PUSH1 0x20 ADD PUSH2 0x142 SWAP1 PUSH2 0xD2E JUMP JUMPDEST PUSH1 0x40 MLOAD PUSH1 0x20 DUP2 DUP4 SUB SUB DUP2 MSTORE SWAP1 PUSH1 0x40 MSTORE DUP1 MLOAD SWAP1 PUSH1 0x20 ADD KECCAK256 DUP2 SUB PUSH2 0x169 JUMPI PUSH1 0x28 SWAP3 POP POP POP PUSH2 0x557 JUMP JUMPDEST PUSH1 0x40 MLOAD PUSH1 0x20 ADD PUSH2 0x178 SWAP1 PUSH2 0xD8C JUMP JUMPDEST PUSH1 0x40 MLOAD PUSH1 0x20 DUP2 DUP4 SUB SUB DUP2 MSTORE SWAP1 PUSH1 0x40 MSTORE DUP1 MLOAD SWAP1 PUSH1 0x20 ADD KECCAK256 DUP2 SUB PUSH2 0x19F JUMPI PUSH1 0x5A SWAP3 POP POP POP PUSH2 0x557 JUMP JUMPDEST PUSH1 0x40 MLOAD PUSH1 0x20 ADD PUSH2 0x1AE SWAP1 PUSH2 0xDEA JUMP JUMPDEST PUSH1 0x40 MLOAD PUSH1 0x20 DUP2 DUP4 SUB SUB DUP2 MSTORE SWAP1 PUSH1 0x40 MSTORE DUP1 MLOAD SWAP1 PUSH1 0x20 ADD KECCAK256 DUP2 SUB PUSH2 0x1D6 JUMPI PUSH2 0x190 SWAP3 POP POP POP PUSH2 0x557 JUMP JUMPDEST PUSH1 0x40 MLOAD PUSH1 0x20 ADD PUSH2 0x1E5 SWAP1 PUSH2 0xE48 JUMP JUMPDEST PUSH1 0x40 MLOAD PUSH1 0x20 DUP2 DUP4 SUB SUB DUP2 MSTORE SWAP1 PUSH1 0x40 MSTORE DUP1 MLOAD SWAP1 PUSH1 0x20 ADD KECCAK256 DUP2 SUB PUSH2 0x20D JUMPI PUSH2 0x384 SWAP3 POP POP POP PUSH2 0x557 JUMP JUMPDEST PUSH0 PUSH0 SWAP1 POP PUSH0 PUSH0 SWAP1 POP JUMPDEST DUP4 MLOAD DUP2 PUSH4 0xFFFFFFFF AND LT ISZERO PUSH2 0x54F JUMPI PUSH32 0x4D00000000000000000000000000000000000000000000000000000000000000 DUP5 DUP3 PUSH4 0xFFFFFFFF AND DUP2 MLOAD DUP2 LT PUSH2 0x25F JUMPI PUSH2 0x25E PUSH2 0xE5C JUMP JUMPDEST JUMPDEST PUSH1 0x20 ADD ADD MLOAD PUSH1 0xF8 SHR PUSH1 0xF8 SHL PUSH31 0xFFFFFFFFFFFFFFFFFFFFFFFFFFFFFFFFFFFFFFFFFFFFFFFFFFFFFFFFFFFFFF NOT AND SUB PUSH2 0x2A6 JUMPI PUSH2 0x3E8 DUP3 PUSH2 0x29F SWAP2 SWAP1 PUSH2 0xEB6 JUMP JUMPDEST SWAP2 POP PUSH2 0x53C JUMP JUMPDEST PUSH32 0x4400000000000000000000000000000000000000000000000000000000000000 DUP5 DUP3 PUSH4 0xFFFFFFFF AND DUP2 MLOAD DUP2 LT PUSH2 0x2E0 JUMPI PUSH2 0x2DF PUSH2 0xE5C JUMP JUMPDEST JUMPDEST PUSH1 0x20 ADD ADD MLOAD PUSH1 0xF8 SHR PUSH1 0xF8 SHL PUSH31 0xFFFFFFFFFFFFFFFFFFFFFFFFFFFFFFFFFFFFFFFFFFFFFFFFFFFFFFFFFFFFFF NOT AND SUB PUSH2 0x327 JUMPI PUSH2 0x1F4 DUP3 PUSH2 0x320 SWAP2 SWAP1 PUSH2 0xEB6 JUMP JUMPDEST SWAP2 POP PUSH2 0x53B JUMP JUMPDEST PUSH32 0x4300000000000000000000000000000000000000000000000000000000000000 DUP5 DUP3 PUSH4 0xFFFFFFFF AND DUP2 MLOAD DUP2 LT PUSH2 0x361 JUMPI PUSH2 0x360 PUSH2 0xE5C JUMP JUMPDEST JUMPDEST PUSH1 0x20 ADD ADD MLOAD PUSH1 0xF8 SHR PUSH1 0xF8 SHL PUSH31 0xFFFFFFFFFFFFFFFFFFFFFFFFFFFFFFFFFFFFFFFFFFFFFFFFFFFFFFFFFFFFFF NOT AND SUB PUSH2 0x3A7 JUMPI PUSH1 0x64 DUP3 PUSH2 0x3A0 SWAP2 SWAP1 PUSH2 0xEB6 JUMP JUMPDEST SWAP2 POP PUSH2 0x53A JUMP JUMPDEST PUSH32 0x4C00000000000000000000000000000000000000000000000000000000000000 DUP5 DUP3 PUSH4 0xFFFFFFFF AND DUP2 MLOAD DUP2 LT PUSH2 0x3E1 JUMPI PUSH2 0x3E0 PUSH2 0xE5C JUMP JUMPDEST JUMPDEST PUSH1 0x20 ADD ADD MLOAD PUSH1 0xF8 SHR PUSH1 0xF8 SHL PUSH31 0xFFFFFFFFFFFFFFFFFFFFFFFFFFFFFFFFFFFFFFFFFFFFFFFFFFFFFFFFFFFFFF NOT AND SUB PUSH2 0x427 JUMPI PUSH1 0x32 DUP3 PUSH2 0x420 SWAP2 SWAP1 PUSH2 0xEB6 JUMP JUMPDEST SWAP2 POP PUSH2 0x539 JUMP JUMPDEST PUSH32 0x5800000000000000000000000000000000000000000000000000000000000000 DUP5 DUP3 PUSH4 0xFFFFFFFF AND DUP2 MLOAD DUP2 LT PUSH2 0x461 JUMPI PUSH2 0x460 PUSH2 0xE5C JUMP JUMPDEST JUMPDEST PUSH1 0x20 ADD ADD MLOAD PUSH1 0xF8 SHR PUSH1 0xF8 SHL PUSH31 0xFFFFFFFFFFFFFFFFFFFFFFFFFFFFFFFFFFFFFFFFFFFFFFFFFFFFFFFFFFFFFF NOT AND SUB PUSH2 0x4A7 JUMPI PUSH1 0xA DUP3 PUSH2 0x4A0 SWAP2 SWAP1 PUSH2 0xEB6 JUMP JUMPDEST SWAP2 POP PUSH2 0x538 JUMP JUMPDEST PUSH32 0x5600000000000000000000000000000000000000000000000000000000000000 DUP5 DUP3 PUSH4 0xFFFFFFFF AND DUP2 MLOAD DUP2 LT PUSH2 0x4E1 JUMPI PUSH2 0x4E0 PUSH2 0xE5C JUMP JUMPDEST JUMPDEST PUSH1 0x20 ADD ADD MLOAD PUSH1 0xF8 SHR PUSH1 0xF8 SHL PUSH31 0xFFFFFFFFFFFFFFFFFFFFFFFFFFFFFFFFFFFFFFFFFFFFFFFFFFFFFFFFFFFFFF NOT AND SUB PUSH2 0x527 JUMPI PUSH1 0x5 DUP3 PUSH2 0x520 SWAP2 SWAP1 PUSH2 0xEB6 JUMP JUMPDEST SWAP2 POP PUSH2 0x537 JUMP JUMPDEST PUSH1 0x1 DUP3 PUSH2 0x534 SWAP2 SWAP1 PUSH2 0xEB6 JUMP JUMPDEST SWAP2 POP JUMPDEST JUMPDEST JUMPDEST JUMPDEST JUMPDEST JUMPDEST DUP1 DUP1 PUSH2 0x547 SWAP1 PUSH2 0xEF1 JUMP JUMPDEST SWAP2 POP POP PUSH2 0x216 JUMP JUMPDEST POP DUP1 SWAP4 POP POP POP POP JUMPDEST SWAP2 SWAP1 POP JUMP JUMPDEST PUSH1 0x60 PUSH1 0x4 DUP3 PUSH4 0xFFFFFFFF AND SUB PUSH2 0x5A9 JUMPI PUSH1 0x40 MLOAD DUP1 PUSH1 0x40 ADD PUSH1 0x40 MSTORE DUP1 PUSH1 0x2 DUP2 MSTORE PUSH1 0x20 ADD PUSH32 0x4956000000000000000000000000000000000000000000000000000000000000 DUP2 MSTORE POP SWAP1 POP PUSH2 0x920 JUMP JUMPDEST PUSH1 0x9 DUP3 PUSH4 0xFFFFFFFF AND SUB PUSH2 0x5F4 JUMPI PUSH1 0x40 MLOAD DUP1 PUSH1 0x40 ADD PUSH1 0x40 MSTORE DUP1 PUSH1 0x2 DUP2 MSTORE PUSH1 0x20 ADD PUSH32 0x4958000000000000000000000000000000000000000000000000000000000000 DUP2 MSTORE POP SWAP1 POP PUSH2 0x920 JUMP JUMPDEST PUSH1 0x28 DUP3 PUSH4 0xFFFFFFFF AND SUB PUSH2 0x63F JUMPI PUSH1 0x40 MLOAD DUP1 PUSH1 0x40 ADD PUSH1 0x40 MSTORE DUP1 PUSH1 0x2 DUP2 MSTORE PUSH1 0x20 ADD PUSH32 0x584C000000000000000000000000000000000000000000000000000000000000 DUP2 MSTORE POP SWAP1 POP PUSH2 0x920 JUMP JUMPDEST PUSH1 0x5A DUP3 PUSH4 0xFFFFFFFF AND SUB PUSH2 0x68A JUMPI PUSH1 0x40 MLOAD DUP1 PUSH1 0x40 ADD PUSH1 0x40 MSTORE DUP1 PUSH1 0x2 DUP2 MSTORE PUSH1 0x20 ADD PUSH32 0x5843000000000000000000000000000000000000000000000000000000000000 DUP2 MSTORE POP SWAP1 POP PUSH2 0x920 JUMP JUMPDEST PUSH2 0x190 DUP3 PUSH4 0xFFFFFFFF AND SUB PUSH2 0x6D6 JUMPI PUSH1 0x40 MLOAD DUP1 PUSH1 0x40 ADD PUSH1 0x40 MSTORE DUP1 PUSH1 0x2 DUP2 MSTORE PUSH1 0x20 ADD PUSH32 0x4344000000000000000000000000000000000000000000000000000000000000 DUP2 MSTORE POP SWAP1 POP PUSH2 0x920 JUMP JUMPDEST PUSH2 0x384 DUP3 PUSH4 0xFFFFFFFF AND SUB PUSH2 0x722 JUMPI PUSH1 0x40 MLOAD DUP1 PUSH1 0x40 ADD PUSH1 0x40 MSTORE DUP1 PUSH1 0x2 DUP2 MSTORE PUSH1 0x20 ADD PUSH32 0x434D000000000000000000000000000000000000000000000000000000000000 DUP2 MSTORE POP SWAP1 POP PUSH2 0x920 JUMP JUMPDEST PUSH0 PUSH1 0x40 MLOAD DUP1 PUSH1 0x20 ADD PUSH1 0x40 MSTORE DUP1 PUSH0 DUP2 MSTORE POP SWAP1 POP JUMPDEST PUSH0 DUP4 PUSH4 0xFFFFFFFF AND GT ISZERO PUSH2 0x91B JUMPI PUSH2 0x3E8 DUP4 PUSH4 0xFFFFFFFF AND LT PUSH2 0x789 JUMPI DUP1 PUSH1 0x40 MLOAD PUSH1 0x20 ADD PUSH2 0x763 SWAP2 SWAP1 PUSH2 0xF42 JUMP JUMPDEST PUSH1 0x40 MLOAD PUSH1 0x20 DUP2 DUP4 SUB SUB DUP2 MSTORE SWAP1 PUSH1 0x40 MSTORE SWAP1 POP PUSH2 0x3E8 DUP4 PUSH2 0x782 SWAP2 SWAP1 PUSH2 0xF67 JUMP JUMPDEST SWAP3 POP PUSH2 0x916 JUMP JUMPDEST PUSH2 0x1F4 DUP4 PUSH4 0xFFFFFFFF AND LT PUSH2 0x7CF JUMPI DUP1 PUSH1 0x40 MLOAD PUSH1 0x20 ADD PUSH2 0x7A9 SWAP2 SWAP1 PUSH2 0xFC4 JUMP JUMPDEST PUSH1 0x40 MLOAD PUSH1 0x20 DUP2 DUP4 SUB SUB DUP2 MSTORE SWAP1 PUSH1 0x40 MSTORE SWAP1 POP PUSH2 0x1F4 DUP4 PUSH2 0x7C8 SWAP2 SWAP1 PUSH2 0xF67 JUMP JUMPDEST SWAP3 POP PUSH2 0x915 JUMP JUMPDEST PUSH1 0x64 DUP4 PUSH4 0xFFFFFFFF AND LT PUSH2 0x813 JUMPI DUP1 PUSH1 0x40 MLOAD PUSH1 0x20 ADD PUSH2 0x7EE SWAP2 SWAP1 PUSH2 0x100F JUMP JUMPDEST PUSH1 0x40 MLOAD PUSH1 0x20 DUP2 DUP4 SUB SUB DUP2 MSTORE SWAP1 PUSH1 0x40 MSTORE SWAP1 POP PUSH1 0x64 DUP4 PUSH2 0x80C SWAP2 SWAP1 PUSH2 0xF67 JUMP JUMPDEST SWAP3 POP PUSH2 0x914 JUMP JUMPDEST PUSH1 0x32 DUP4 PUSH4 0xFFFFFFFF AND LT PUSH2 0x857 JUMPI DUP1 PUSH1 0x40 MLOAD PUSH1 0x20 ADD PUSH2 0x832 SWAP2 SWAP1 PUSH2 0x105A JUMP JUMPDEST PUSH1 0x40 MLOAD PUSH1 0x20 DUP2 DUP4 SUB SUB DUP2 MSTORE SWAP1 PUSH1 0x40 MSTORE SWAP1 POP PUSH1 0x32 DUP4 PUSH2 0x850 SWAP2 SWAP1 PUSH2 0xF67 JUMP JUMPDEST SWAP3 POP PUSH2 0x913 JUMP JUMPDEST PUSH1 0xA DUP4 PUSH4 0xFFFFFFFF AND LT PUSH2 0x89B JUMPI DUP1 PUSH1 0x40 MLOAD PUSH1 0x20 ADD PUSH2 0x876 SWAP2 SWAP1 PUSH2 0x10A5 JUMP JUMPDEST PUSH1 0x40 MLOAD PUSH1 0x20 DUP2 DUP4 SUB SUB DUP2 MSTORE SWAP1 PUSH1 0x40 MSTORE SWAP1 POP PUSH1 0xA DUP4 PUSH2 0x894 SWAP2 SWAP1 PUSH2 0xF67 JUMP JUMPDEST SWAP3 POP PUSH2 0x912 JUMP JUMPDEST PUSH1 0x5 DUP4 PUSH4 0xFFFFFFFF AND LT PUSH2 0x8DF JUMPI DUP1 PUSH1 0x40 MLOAD PUSH1 0x20 ADD PUSH2 0x8BA SWAP2 SWAP1 PUSH2 0x10F0 JUMP JUMPDEST PUSH1 0x40 MLOAD PUSH1 0x20 DUP2 DUP4 SUB SUB DUP2 MSTORE SWAP1 PUSH1 0x40 MSTORE SWAP1 POP PUSH1 0x5 DUP4 PUSH2 0x8D8 SWAP2 SWAP1 PUSH2 0xF67 JUMP JUMPDEST SWAP3 POP PUSH2 0x911 JUMP JUMPDEST DUP1 PUSH1 0x40 MLOAD PUSH1 0x20 ADD PUSH2 0x8F0 SWAP2 SWAP1 PUSH2 0x113B JUMP JUMPDEST PUSH1 0x40 MLOAD PUSH1 0x20 DUP2 DUP4 SUB SUB DUP2 MSTORE SWAP1 PUSH1 0x40 MSTORE SWAP1 POP PUSH1 0x1 DUP4 PUSH2 0x90E SWAP2 SWAP1 PUSH2 0xF67 JUMP JUMPDEST SWAP3 POP JUMPDEST JUMPDEST JUMPDEST JUMPDEST JUMPDEST JUMPDEST PUSH2 0x735 JUMP JUMPDEST DUP1 SWAP2 POP POP JUMPDEST SWAP2 SWAP1 POP JUMP JUMPDEST PUSH0 PUSH1 0x40 MLOAD SWAP1 POP SWAP1 JUMP JUMPDEST PUSH0 PUSH0 REVERT JUMPDEST PUSH0 PUSH0 REVERT JUMPDEST PUSH0 PUSH0 REVERT JUMPDEST PUSH0 PUSH0 REVERT JUMPDEST PUSH0 PUSH1 0x1F NOT PUSH1 0x1F DUP4 ADD AND SWAP1 POP SWAP2 SWAP1 POP JUMP JUMPDEST PUSH32 0x4E487B7100000000000000000000000000000000000000000000000000000000 PUSH0 MSTORE PUSH1 0x41 PUSH1 0x4 MSTORE PUSH1 0x24 PUSH0 REVERT JUMPDEST PUSH2 0x984 DUP3 PUSH2 0x93E JUMP JUMPDEST DUP2 ADD DUP2 DUP2 LT PUSH8 0xFFFFFFFFFFFFFFFF DUP3 GT OR ISZERO PUSH2 0x9A3 JUMPI PUSH2 0x9A2 PUSH2 0x94E JUMP JUMPDEST JUMPDEST DUP1 PUSH1 0x40 MSTORE POP POP POP JUMP JUMPDEST PUSH0 PUSH2 0x9B5 PUSH2 0x925 JUMP JUMPDEST SWAP1 POP PUSH2 0x9C1 DUP3 DUP3 PUSH2 0x97B JUMP JUMPDEST SWAP2 SWAP1 POP JUMP JUMPDEST PUSH0 PUSH8 0xFFFFFFFFFFFFFFFF DUP3 GT ISZERO PUSH2 0x9E0 JUMPI PUSH2 0x9DF PUSH2 0x94E JUMP JUMPDEST JUMPDEST PUSH2 0x9E9 DUP3 PUSH2 0x93E JUMP JUMPDEST SWAP1 POP PUSH1 0x20 DUP2 ADD SWAP1 POP SWAP2 SWAP1 POP JUMP JUMPDEST DUP3 DUP2 DUP4 CALLDATACOPY PUSH0 DUP4 DUP4 ADD MSTORE POP POP POP JUMP JUMPDEST PUSH0 PUSH2 0xA16 PUSH2 0xA11 DUP5 PUSH2 0x9C6 JUMP JUMPDEST PUSH2 0x9AC JUMP JUMPDEST SWAP1 POP DUP3 DUP2 MSTORE PUSH1 0x20 DUP2 ADD DUP5 DUP5 DUP5 ADD GT ISZERO PUSH2 0xA32 JUMPI PUSH2 0xA31 PUSH2 0x93A JUMP JUMPDEST JUMPDEST PUSH2 0xA3D DUP5 DUP3 DUP6 PUSH2 0x9F6 JUMP JUMPDEST POP SWAP4 SWAP3 POP POP POP JUMP JUMPDEST PUSH0 DUP3 PUSH1 0x1F DUP4 ADD SLT PUSH2 0xA59 JUMPI PUSH2 0xA58 PUSH2 0x936 JUMP JUMPDEST JUMPDEST DUP2 CALLDATALOAD PUSH2 0xA69 DUP5 DUP3 PUSH1 0x20 DUP7 ADD PUSH2 0xA04 JUMP JUMPDEST SWAP2 POP POP SWAP3 SWAP2 POP POP JUMP JUMPDEST PUSH0 PUSH1 0x20 DUP3 DUP5 SUB SLT ISZERO PUSH2 0xA87 JUMPI PUSH2 0xA86 PUSH2 0x92E JUMP JUMPDEST JUMPDEST PUSH0 DUP3 ADD CALLDATALOAD PUSH8 0xFFFFFFFFFFFFFFFF DUP2 GT ISZERO PUSH2 0xAA4 JUMPI PUSH2 0xAA3 PUSH2 0x932 JUMP JUMPDEST JUMPDEST PUSH2 0xAB0 DUP5 DUP3 DUP6 ADD PUSH2 0xA45 JUMP JUMPDEST SWAP2 POP POP SWAP3 SWAP2 POP POP JUMP JUMPDEST PUSH0 PUSH8 0xFFFFFFFFFFFFFFFF DUP3 AND SWAP1 POP SWAP2 SWAP1 POP JUMP JUMPDEST PUSH2 0xAD5 DUP2 PUSH2 0xAB9 JUMP JUMPDEST DUP3 MSTORE POP POP JUMP JUMPDEST PUSH0 PUSH1 0x20 DUP3 ADD SWAP1 POP PUSH2 0xAEE PUSH0 DUP4 ADD DUP5 PUSH2 0xACC JUMP JUMPDEST SWAP3 SWAP2 POP POP JUMP JUMPDEST PUSH0 PUSH4 0xFFFFFFFF DUP3 AND SWAP1 POP SWAP2 SWAP1 POP JUMP JUMPDEST PUSH2 0xB0C DUP2 PUSH2 0xAF4 JUMP JUMPDEST DUP2 EQ PUSH2 0xB16 JUMPI PUSH0 PUSH0 REVERT JUMPDEST POP JUMP JUMPDEST PUSH0 DUP2 CALLDATALOAD SWAP1 POP PUSH2 0xB27 DUP2 PUSH2 0xB03 JUMP JUMPDEST SWAP3 SWAP2 POP POP JUMP JUMPDEST PUSH0 PUSH1 0x20 DUP3 DUP5 SUB SLT ISZERO PUSH2 0xB42 JUMPI PUSH2 0xB41 PUSH2 0x92E JUMP JUMPDEST JUMPDEST PUSH0 PUSH2 0xB4F DUP5 DUP3 DUP6 ADD PUSH2 0xB19 JUMP JUMPDEST SWAP2 POP POP SWAP3 SWAP2 POP POP JUMP JUMPDEST PUSH0 DUP2 MLOAD SWAP1 POP SWAP2 SWAP1 POP JUMP JUMPDEST PUSH0 DUP3 DUP3 MSTORE PUSH1 0x20 DUP3 ADD SWAP1 POP SWAP3 SWAP2 POP POP JUMP JUMPDEST DUP3 DUP2 DUP4 MCOPY PUSH0 DUP4 DUP4 ADD MSTORE POP POP POP JUMP JUMPDEST PUSH0 PUSH2 0xB8A DUP3 PUSH2 0xB58 JUMP JUMPDEST PUSH2 0xB94 DUP2 DUP6 PUSH2 0xB62 JUMP JUMPDEST SWAP4 POP PUSH2 0xBA4 DUP2 DUP6 PUSH1 0x20 DUP7 ADD PUSH2 0xB72 JUMP JUMPDEST PUSH2 0xBAD DUP2 PUSH2 0x93E JUMP JUMPDEST DUP5 ADD SWAP2 POP POP SWAP3 SWAP2 POP POP JUMP JUMPDEST PUSH0 PUSH1 0x20 DUP3 ADD SWAP1 POP DUP2 DUP2 SUB PUSH0 DUP4 ADD MSTORE PUSH2 0xBD0 DUP2 DUP5 PUSH2 0xB80 JUMP JUMPDEST SWAP1 POP SWAP3 SWAP2 POP POP JUMP JUMPDEST PUSH0 DUP2 SWAP1 POP SWAP3 SWAP2 POP POP JUMP JUMPDEST PUSH0 PUSH2 0xBEC DUP3 PUSH2 0xB58 JUMP JUMPDEST PUSH2 0xBF6 DUP2 DUP6 PUSH2 0xBD8 JUMP JUMPDEST SWAP4 POP PUSH2 0xC06 DUP2 DUP6 PUSH1 0x20 DUP7 ADD PUSH2 0xB72 JUMP JUMPDEST DUP1 DUP5 ADD SWAP2 POP POP SWAP3 SWAP2 POP POP JUMP JUMPDEST PUSH0 PUSH2 0xC1D DUP3 DUP5 PUSH2 0xBE2 JUMP JUMPDEST SWAP2 POP DUP2 SWAP1 POP SWAP3 SWAP2 POP POP JUMP JUMPDEST PUSH32 0x4956000000000000000000000000000000000000000000000000000000000000 PUSH0 DUP3 ADD MSTORE POP JUMP JUMPDEST PUSH0 PUSH2 0xC5C PUSH1 0x2 DUP4 PUSH2 0xBD8 JUMP JUMPDEST SWAP2 POP PUSH2 0xC67 DUP3 PUSH2 0xC28 JUMP JUMPDEST PUSH1 0x2 DUP3 ADD SWAP1 POP SWAP2 SWAP1 POP JUMP JUMPDEST PUSH0 PUSH2 0xC7C DUP3 PUSH2 0xC50 JUMP JUMPDEST SWAP2 POP DUP2 SWAP1 POP SWAP2 SWAP1 POP JUMP JUMPDEST PUSH32 0x4958000000000000000000000000000000000000000000000000000000000000 PUSH0 DUP3 ADD MSTORE POP JUMP JUMPDEST PUSH0 PUSH2 0xCBA PUSH1 0x2 DUP4 PUSH2 0xBD8 JUMP JUMPDEST SWAP2 POP PUSH2 0xCC5 DUP3 PUSH2 0xC86 JUMP JUMPDEST PUSH1 0x2 DUP3 ADD SWAP1 POP SWAP2 SWAP1 POP JUMP JUMPDEST PUSH0 PUSH2 0xCDA DUP3 PUSH2 0xCAE JUMP JUMPDEST SWAP2 POP DUP2 SWAP1 POP SWAP2 SWAP1 POP JUMP JUMPDEST PUSH32 0x584C000000000000000000000000000000000000000000000000000000000000 PUSH0 DUP3 ADD MSTORE POP JUMP JUMPDEST PUSH0 PUSH2 0xD18 PUSH1 0x2 DUP4 PUSH2 0xBD8 JUMP JUMPDEST SWAP2 POP PUSH2 0xD23 DUP3 PUSH2 0xCE4 JUMP JUMPDEST PUSH1 0x2 DUP3 ADD SWAP1 POP SWAP2 SWAP1 POP JUMP JUMPDEST PUSH0 PUSH2 0xD38 DUP3 PUSH2 0xD0C JUMP JUMPDEST SWAP2 POP DUP2 SWAP1 POP SWAP2 SWAP1 POP JUMP JUMPDEST PUSH32 0x5843000000000000000000000000000000000000000000000000000000000000 PUSH0 DUP3 ADD MSTORE POP JUMP JUMPDEST PUSH0 PUSH2 0xD76 PUSH1 0x2 DUP4 PUSH2 0xBD8 JUMP JUMPDEST SWAP2 POP PUSH2 0xD81 DUP3 PUSH2 0xD42 JUMP JUMPDEST PUSH1 0x2 DUP3 ADD SWAP1 POP SWAP2 SWAP1 POP JUMP JUMPDEST PUSH0 PUSH2 0xD96 DUP3 PUSH2 0xD6A JUMP JUMPDEST SWAP2 POP DUP2 SWAP1 POP SWAP2 SWAP1 POP JUMP JUMPDEST PUSH32 0x4344000000000000000000000000000000000000000000000000000000000000 PUSH0 DUP3 ADD MSTORE POP JUMP JUMPDEST PUSH0 PUSH2 0xDD4 PUSH1 0x2 DUP4 PUSH2 0xBD8 JUMP JUMPDEST SWAP2 POP PUSH2 0xDDF DUP3 PUSH2 0xDA0 JUMP JUMPDEST PUSH1 0x2 DUP3 ADD SWAP1 POP SWAP2 SWAP1 POP JUMP JUMPDEST PUSH0 PUSH2 0xDF4 DUP3 PUSH2 0xDC8 JUMP JUMPDEST SWAP2 POP DUP2 SWAP1 POP SWAP2 SWAP1 POP JUMP JUMPDEST PUSH32 0x434D000000000000000000000000000000000000000000000000000000000000 PUSH0 DUP3 ADD MSTORE POP JUMP JUMPDEST PUSH0 PUSH2 0xE32 PUSH1 0x2 DUP4 PUSH2 0xBD8 JUMP JUMPDEST SWAP2 POP PUSH2 0xE3D DUP3 PUSH2 0xDFE JUMP JUMPDEST PUSH1 0x2 DUP3 ADD SWAP1 POP SWAP2 SWAP1 POP JUMP JUMPDEST PUSH0 PUSH2 0xE52 DUP3 PUSH2 0xE26 JUMP JUMPDEST SWAP2 POP DUP2 SWAP1 POP SWAP2 SWAP1 POP JUMP JUMPDEST PUSH32 0x4E487B7100000000000000000000000000000000000000000000000000000000 PUSH0 MSTORE PUSH1 0x32 PUSH1 0x4 MSTORE PUSH1 0x24 PUSH0 REVERT JUMPDEST PUSH32 0x4E487B7100000000000000000000000000000000000000000000000000000000 PUSH0 MSTORE PUSH1 0x11 PUSH1 0x4 MSTORE PUSH1 0x24 PUSH0 REVERT JUMPDEST PUSH0 PUSH2 0xEC0 DUP3 PUSH2 0xAB9 JUMP JUMPDEST SWAP2 POP PUSH2 0xECB DUP4 PUSH2 0xAB9 JUMP JUMPDEST SWAP3 POP DUP3 DUP3 ADD SWAP1 POP PUSH8 0xFFFFFFFFFFFFFFFF DUP2 GT ISZERO PUSH2 0xEEB JUMPI PUSH2 0xEEA PUSH2 0xE89 JUMP JUMPDEST JUMPDEST SWAP3 SWAP2 POP POP JUMP JUMPDEST PUSH0 PUSH2 0xEFB DUP3 PUSH2 0xAF4 JUMP JUMPDEST SWAP2 POP PUSH4 0xFFFFFFFF DUP3 SUB PUSH2 0xF11 JUMPI PUSH2 0xF10 PUSH2 0xE89 JUMP JUMPDEST JUMPDEST PUSH1 0x1 DUP3 ADD SWAP1 POP SWAP2 SWAP1 POP JUMP JUMPDEST PUSH32 0x4D00000000000000000000000000000000000000000000000000000000000000 DUP2 MSTORE POP JUMP JUMPDEST PUSH0 PUSH2 0xF4D DUP3 DUP5 PUSH2 0xBE2 JUMP JUMPDEST SWAP2 POP PUSH2 0xF58 DUP3 PUSH2 0xF1C JUMP JUMPDEST PUSH1 0x1 DUP3 ADD SWAP2 POP DUP2 SWAP1 POP SWAP3 SWAP2 POP POP JUMP JUMPDEST PUSH0 PUSH2 0xF71 DUP3 PUSH2 0xAF4 JUMP JUMPDEST SWAP2 POP PUSH2 0xF7C DUP4 PUSH2 0xAF4 JUMP JUMPDEST SWAP3 POP DUP3 DUP3 SUB SWAP1 POP PUSH4 0xFFFFFFFF DUP2 GT ISZERO PUSH2 0xF98 JUMPI PUSH2 0xF97 PUSH2 0xE89 JUMP JUMPDEST JUMPDEST SWAP3 SWAP2 POP POP JUMP JUMPDEST PUSH32 0x4400000000000000000000000000000000000000000000000000000000000000 DUP2 MSTORE POP JUMP JUMPDEST PUSH0 PUSH2 0xFCF DUP3 DUP5 PUSH2 0xBE2 JUMP JUMPDEST SWAP2 POP PUSH2 0xFDA DUP3 PUSH2 0xF9E JUMP JUMPDEST PUSH1 0x1 DUP3 ADD SWAP2 POP DUP2 SWAP1 POP SWAP3 SWAP2 POP POP JUMP JUMPDEST PUSH32 0x4300000000000000000000000000000000000000000000000000000000000000 DUP2 MSTORE POP JUMP JUMPDEST PUSH0 PUSH2 0x101A DUP3 DUP5 PUSH2 0xBE2 JUMP JUMPDEST SWAP2 POP PUSH2 0x1025 DUP3 PUSH2 0xFE9 JUMP JUMPDEST PUSH1 0x1 DUP3 ADD SWAP2 POP DUP2 SWAP1 POP SWAP3 SWAP2 POP POP JUMP JUMPDEST PUSH32 0x4C00000000000000000000000000000000000000000000000000000000000000 DUP2 MSTORE POP JUMP JUMPDEST PUSH0 PUSH2 0x1065 DUP3 DUP5 PUSH2 0xBE2 JUMP JUMPDEST SWAP2 POP PUSH2 0x1070 DUP3 PUSH2 0x1034 JUMP JUMPDEST PUSH1 0x1 DUP3 ADD SWAP2 POP DUP2 SWAP1 POP SWAP3 SWAP2 POP POP JUMP JUMPDEST PUSH32 0x5800000000000000000000000000000000000000000000000000000000000000 DUP2 MSTORE POP JUMP JUMPDEST PUSH0 PUSH2 0x10B0 DUP3 DUP5 PUSH2 0xBE2 JUMP JUMPDEST SWAP2 POP PUSH2 0x10BB DUP3 PUSH2 0x107F JUMP JUMPDEST PUSH1 0x1 DUP3 ADD SWAP2 POP DUP2 SWAP1 POP SWAP3 SWAP2 POP POP JUMP JUMPDEST PUSH32 0x5600000000000000000000000000000000000000000000000000000000000000 DUP2 MSTORE POP JUMP JUMPDEST PUSH0 PUSH2 0x10FB DUP3 DUP5 PUSH2 0xBE2 JUMP JUMPDEST SWAP2 POP PUSH2 0x1106 DUP3 PUSH2 0x10CA JUMP JUMPDEST PUSH1 0x1 DUP3 ADD SWAP2 POP DUP2 SWAP1 POP SWAP3 SWAP2 POP POP JUMP JUMPDEST PUSH32 0x4900000000000000000000000000000000000000000000000000000000000000 DUP2 MSTORE POP JUMP JUMPDEST PUSH0 PUSH2 0x1146 DUP3 DUP5 PUSH2 0xBE2 JUMP JUMPDEST SWAP2 POP PUSH2 0x1151 DUP3 PUSH2 0x1115 JUMP JUMPDEST PUSH1 0x1 DUP3 ADD SWAP2 POP DUP2 SWAP1 POP SWAP3 SWAP2 POP POP JUMP INVALID LOG2 PUSH5 0x6970667358 0x22 SLT KECCAK256 PUSH15 0xA1173D362DA2CAE4FD8C159BFACFB6 DATALOADN 0x954 DUP1 PUSH15 0x47A06AC873B048D831AE6564736F6C PUSH4 0x4300081E STOP CALLER "
				},
				"gasEstimates": {
					"creation": {
						"codeDepositCost": "900400",
						"executionCost": "933",
						"totalCost": "901333"
					},
					"external": {
						"intToRoman(uint32)": "infinite",
						"romanToInt(string)": "infinite"
					}
				},
				"methodIdentifiers": {
					"intToRoman(uint32)": "fb3b7896",
					"romanToInt(string)": "cb159dfe"
				}
			},
			"storageLayout": {
				"storage": [],
				"types": null
			},
			"userdoc": {
				"kind": "user",
				"methods": {},
				"version": 1
			}
		}
	}
}