{
	"RomanToInt.sol": {
		"RomanToInt": {
			"abi": [
				{
					"inputs": [
						{
							"internalType": "uint32",
							"name": "num",
							"type": "uint32"
						}
					],
					"name": "intToRoman",
					"outputs": [
						{
							"internalType": "string",
							"name": "",
							"type": "string"
						}
					],
					"stateMutability": "pure",
					"type": "function"
				}
			],
			"devdoc": {
				"kind": "dev",
				"methods": {},
				"version": 1
			},
			"evm": {
				"assembly": "    /* \"RomanToInt.sol\":1063:2325  contract RomanToInt {... */\n  mstore(0x40, 0x80)\n  callvalue\n  dup1\n  iszero\n  tag_1\n  jumpi\n  revert(0x00, 0x00)\ntag_1:\n  pop\n  dataSize(sub_0)\n  dup1\n  dataOffset(sub_0)\n  0x00\n  codecopy\n  0x00\n  return\nstop\n\nsub_0: assembly {\n        /* \"RomanToInt.sol\":1063:2325  contract RomanToInt {... */\n      mstore(0x40, 0x80)\n      callvalue\n      dup1\n      iszero\n      tag_1\n      jumpi\n      revert(0x00, 0x00)\n    tag_1:\n      pop\n      jumpi(tag_2, lt(calldatasize, 0x04))\n      shr(0xe0, calldataload(0x00))\n      dup1\n      0xfb3b7896\n      eq\n      tag_3\n      jumpi\n    tag_2:\n      revert(0x00, 0x00)\n        /* \"RomanToInt.sol\":1090:2321  function intToRoman(uint32 num) public pure returns (string memory) {... */\n    tag_3:\n      tag_4\n      0x04\n      dup1\n      calldatasize\n      sub\n      dup2\n      add\n      swap1\n      tag_5\n      swap2\n      swap1\n      tag_6\n      jump\t// in\n    tag_5:\n      tag_7\n      jump\t// in\n    tag_4:\n      mload(0x40)\n      tag_8\n      swap2\n      swap1\n      tag_9\n      jump\t// in\n    tag_8:\n      mload(0x40)\n      dup1\n      swap2\n      sub\n      swap1\n      return\n    tag_7:\n        /* \"RomanToInt.sol\":1143:1156  string memory */\n      0x60\n        /* \"RomanToInt.sol\":1180:1181  4 */\n      0x04\n        /* \"RomanToInt.sol\":1173:1176  num */\n      dup3\n        /* \"RomanToInt.sol\":1173:1181  num == 4 */\n      0xffffffff\n      and\n      sub\n        /* \"RomanToInt.sol\":1169:1197  if (num == 4) {return \"IV\";} */\n      tag_11\n      jumpi\n        /* \"RomanToInt.sol\":1184:1195  return \"IV\" */\n      mload(0x40)\n      dup1\n      0x40\n      add\n      0x40\n      mstore\n      dup1\n      0x02\n      dup2\n      mstore\n      0x20\n      add\n      0x4956000000000000000000000000000000000000000000000000000000000000\n      dup2\n      mstore\n      pop\n      swap1\n      pop\n      jump(tag_10)\n        /* \"RomanToInt.sol\":1169:1197  if (num == 4) {return \"IV\";} */\n    tag_11:\n        /* \"RomanToInt.sol\":1218:1219  9 */\n      0x09\n        /* \"RomanToInt.sol\":1211:1214  num */\n      dup3\n        /* \"RomanToInt.sol\":1211:1219  num == 9 */\n      0xffffffff\n      and\n      sub\n        /* \"RomanToInt.sol\":1207:1235  if (num == 9) {return \"IX\";} */\n      tag_12\n      jumpi\n        /* \"RomanToInt.sol\":1222:1233  return \"IX\" */\n      mload(0x40)\n      dup1\n      0x40\n      add\n      0x40\n      mstore\n      dup1\n      0x02\n      dup2\n      mstore\n      0x20\n      add\n      0x4958000000000000000000000000000000000000000000000000000000000000\n      dup2\n      mstore\n      pop\n      swap1\n      pop\n      jump(tag_10)\n        /* \"RomanToInt.sol\":1207:1235  if (num == 9) {return \"IX\";} */\n    tag_12:\n        /* \"RomanToInt.sol\":1256:1258  40 */\n      0x28\n        /* \"RomanToInt.sol\":1249:1252  num */\n      dup3\n        /* \"RomanToInt.sol\":1249:1258  num == 40 */\n      0xffffffff\n      and\n      sub\n        /* \"RomanToInt.sol\":1245:1274  if (num == 40) {return \"XL\";} */\n      tag_13\n      jumpi\n        /* \"RomanToInt.sol\":1261:1272  return \"XL\" */\n      mload(0x40)\n      dup1\n      0x40\n      add\n      0x40\n      mstore\n      dup1\n      0x02\n      dup2\n      mstore\n      0x20\n      add\n      0x584c000000000000000000000000000000000000000000000000000000000000\n      dup2\n      mstore\n      pop\n      swap1\n      pop\n      jump(tag_10)\n        /* \"RomanToInt.sol\":1245:1274  if (num == 40) {return \"XL\";} */\n    tag_13:\n        /* \"RomanToInt.sol\":1295:1297  90 */\n      0x5a\n        /* \"RomanToInt.sol\":1288:1291  num */\n      dup3\n        /* \"RomanToInt.sol\":1288:1297  num == 90 */\n      0xffffffff\n      and\n      sub\n        /* \"RomanToInt.sol\":1284:1313  if (num == 90) {return \"XC\";} */\n      tag_14\n      jumpi\n        /* \"RomanToInt.sol\":1300:1311  return \"XC\" */\n      mload(0x40)\n      dup1\n      0x40\n      add\n      0x40\n      mstore\n      dup1\n      0x02\n      dup2\n      mstore\n      0x20\n      add\n      0x5843000000000000000000000000000000000000000000000000000000000000\n      dup2\n      mstore\n      pop\n      swap1\n      pop\n      jump(tag_10)\n        /* \"RomanToInt.sol\":1284:1313  if (num == 90) {return \"XC\";} */\n    tag_14:\n        /* \"RomanToInt.sol\":1334:1337  400 */\n      0x0190\n        /* \"RomanToInt.sol\":1327:1330  num */\n      dup3\n        /* \"RomanToInt.sol\":1327:1337  num == 400 */\n      0xffffffff\n      and\n      sub\n        /* \"RomanToInt.sol\":1323:1353  if (num == 400) {return \"CD\";} */\n      tag_15\n      jumpi\n        /* \"RomanToInt.sol\":1340:1351  return \"CD\" */\n      mload(0x40)\n      dup1\n      0x40\n      add\n      0x40\n      mstore\n      dup1\n      0x02\n      dup2\n      mstore\n      0x20\n      add\n      0x4344000000000000000000000000000000000000000000000000000000000000\n      dup2\n      mstore\n      pop\n      swap1\n      pop\n      jump(tag_10)\n        /* \"RomanToInt.sol\":1323:1353  if (num == 400) {return \"CD\";} */\n    tag_15:\n        /* \"RomanToInt.sol\":1374:1377  900 */\n      0x0384\n        /* \"RomanToInt.sol\":1367:1370  num */\n      dup3\n        /* \"RomanToInt.sol\":1367:1377  num == 900 */\n      0xffffffff\n      and\n      sub\n        /* \"RomanToInt.sol\":1363:1393  if (num == 900) {return \"CM\";} */\n      tag_16\n      jumpi\n        /* \"RomanToInt.sol\":1380:1391  return \"CM\" */\n      mload(0x40)\n      dup1\n      0x40\n      add\n      0x40\n      mstore\n      dup1\n      0x02\n      dup2\n      mstore\n      0x20\n      add\n      0x434d000000000000000000000000000000000000000000000000000000000000\n      dup2\n      mstore\n      pop\n      swap1\n      pop\n      jump(tag_10)\n        /* \"RomanToInt.sol\":1363:1393  if (num == 900) {return \"CM\";} */\n    tag_16:\n        /* \"RomanToInt.sol\":1405:1424  string memory roman */\n      0x00\n        /* \"RomanToInt.sol\":1405:1429  string memory roman = \"\" */\n      mload(0x40)\n      dup1\n      0x20\n      add\n      0x40\n      mstore\n      dup1\n      0x00\n      dup2\n      mstore\n      pop\n      swap1\n      pop\n        /* \"RomanToInt.sol\":1440:2289  while (num > 0) {... */\n    tag_17:\n        /* \"RomanToInt.sol\":1453:1454  0 */\n      0x00\n        /* \"RomanToInt.sol\":1447:1450  num */\n      dup4\n        /* \"RomanToInt.sol\":1447:1454  num > 0 */\n      0xffffffff\n      and\n      gt\n        /* \"RomanToInt.sol\":1440:2289  while (num > 0) {... */\n      iszero\n      tag_18\n      jumpi\n        /* \"RomanToInt.sol\":1482:1486  1000 */\n      0x03e8\n        /* \"RomanToInt.sol\":1475:1478  num */\n      dup4\n        /* \"RomanToInt.sol\":1475:1486  num >= 1000 */\n      0xffffffff\n      and\n      lt\n        /* \"RomanToInt.sol\":1471:2278  if (num >= 1000) {... */\n      tag_19\n      jumpi\n        /* \"RomanToInt.sol\":1529:1534  roman */\n      dup1\n        /* \"RomanToInt.sol\":1515:1540  string.concat(roman, \"M\") */\n      add(0x20, mload(0x40))\n      tag_20\n      swap2\n      swap1\n      tag_21\n      jump\t// in\n    tag_20:\n      mload(0x40)\n      0x20\n      dup2\n      dup4\n      sub\n      sub\n      dup2\n      mstore\n      swap1\n      0x40\n      mstore\n        /* \"RomanToInt.sol\":1507:1540  roman = string.concat(roman, \"M\") */\n      swap1\n      pop\n        /* \"RomanToInt.sol\":1566:1570  1000 */\n      0x03e8\n        /* \"RomanToInt.sol\":1559:1570  num -= 1000 */\n      dup4\n      tag_22\n      swap2\n      swap1\n      tag_23\n      jump\t// in\n    tag_22:\n      swap3\n      pop\n        /* \"RomanToInt.sol\":1471:2278  if (num >= 1000) {... */\n      jump(tag_24)\n    tag_19:\n        /* \"RomanToInt.sol\":1607:1610  500 */\n      0x01f4\n        /* \"RomanToInt.sol\":1600:1603  num */\n      dup4\n        /* \"RomanToInt.sol\":1600:1610  num >= 500 */\n      0xffffffff\n      and\n      lt\n        /* \"RomanToInt.sol\":1596:2278  if (num >= 500) {... */\n      tag_25\n      jumpi\n        /* \"RomanToInt.sol\":1653:1658  roman */\n      dup1\n        /* \"RomanToInt.sol\":1639:1664  string.concat(roman, \"D\") */\n      add(0x20, mload(0x40))\n      tag_26\n      swap2\n      swap1\n      tag_27\n      jump\t// in\n    tag_26:\n      mload(0x40)\n      0x20\n      dup2\n      dup4\n      sub\n      sub\n      dup2\n      mstore\n      swap1\n      0x40\n      mstore\n        /* \"RomanToInt.sol\":1631:1664  roman = string.concat(roman, \"D\") */\n      swap1\n      pop\n        /* \"RomanToInt.sol\":1690:1693  500 */\n      0x01f4\n        /* \"RomanToInt.sol\":1683:1693  num -= 500 */\n      dup4\n      tag_28\n      swap2\n      swap1\n      tag_23\n      jump\t// in\n    tag_28:\n      swap3\n      pop\n        /* \"RomanToInt.sol\":1596:2278  if (num >= 500) {... */\n      jump(tag_29)\n    tag_25:\n        /* \"RomanToInt.sol\":1726:1729  100 */\n      0x64\n        /* \"RomanToInt.sol\":1719:1722  num */\n      dup4\n        /* \"RomanToInt.sol\":1719:1729  num >= 100 */\n      0xffffffff\n      and\n      lt\n        /* \"RomanToInt.sol\":1715:2278  if (num >= 100) {... */\n      tag_30\n      jumpi\n        /* \"RomanToInt.sol\":1772:1777  roman */\n      dup1\n        /* \"RomanToInt.sol\":1758:1783  string.concat(roman, \"C\") */\n      add(0x20, mload(0x40))\n      tag_31\n      swap2\n      swap1\n      tag_32\n      jump\t// in\n    tag_31:\n      mload(0x40)\n      0x20\n      dup2\n      dup4\n      sub\n      sub\n      dup2\n      mstore\n      swap1\n      0x40\n      mstore\n        /* \"RomanToInt.sol\":1750:1783  roman = string.concat(roman, \"C\") */\n      swap1\n      pop\n        /* \"RomanToInt.sol\":1809:1812  100 */\n      0x64\n        /* \"RomanToInt.sol\":1802:1812  num -= 100 */\n      dup4\n      tag_33\n      swap2\n      swap1\n      tag_23\n      jump\t// in\n    tag_33:\n      swap3\n      pop\n        /* \"RomanToInt.sol\":1715:2278  if (num >= 100) {... */\n      jump(tag_34)\n    tag_30:\n        /* \"RomanToInt.sol\":1845:1847  50 */\n      0x32\n        /* \"RomanToInt.sol\":1838:1841  num */\n      dup4\n        /* \"RomanToInt.sol\":1838:1847  num >= 50 */\n      0xffffffff\n      and\n      lt\n        /* \"RomanToInt.sol\":1834:2278  if (num >= 50) {... */\n      tag_35\n      jumpi\n        /* \"RomanToInt.sol\":1890:1895  roman */\n      dup1\n        /* \"RomanToInt.sol\":1876:1901  string.concat(roman, \"L\") */\n      add(0x20, mload(0x40))\n      tag_36\n      swap2\n      swap1\n      tag_37\n      jump\t// in\n    tag_36:\n      mload(0x40)\n      0x20\n      dup2\n      dup4\n      sub\n      sub\n      dup2\n      mstore\n      swap1\n      0x40\n      mstore\n        /* \"RomanToInt.sol\":1868:1901  roman = string.concat(roman, \"L\") */\n      swap1\n      pop\n        /* \"RomanToInt.sol\":1927:1929  50 */\n      0x32\n        /* \"RomanToInt.sol\":1920:1929  num -= 50 */\n      dup4\n      tag_38\n      swap2\n      swap1\n      tag_23\n      jump\t// in\n    tag_38:\n      swap3\n      pop\n        /* \"RomanToInt.sol\":1834:2278  if (num >= 50) {... */\n      jump(tag_39)\n    tag_35:\n        /* \"RomanToInt.sol\":1962:1964  10 */\n      0x0a\n        /* \"RomanToInt.sol\":1955:1958  num */\n      dup4\n        /* \"RomanToInt.sol\":1955:1964  num >= 10 */\n      0xffffffff\n      and\n      lt\n        /* \"RomanToInt.sol\":1951:2278  if (num >= 10) {... */\n      tag_40\n      jumpi\n        /* \"RomanToInt.sol\":2007:2012  roman */\n      dup1\n        /* \"RomanToInt.sol\":1993:2018  string.concat(roman, \"X\") */\n      add(0x20, mload(0x40))\n      tag_41\n      swap2\n      swap1\n      tag_42\n      jump\t// in\n    tag_41:\n      mload(0x40)\n      0x20\n      dup2\n      dup4\n      sub\n      sub\n      dup2\n      mstore\n      swap1\n      0x40\n      mstore\n        /* \"RomanToInt.sol\":1985:2018  roman = string.concat(roman, \"X\") */\n      swap1\n      pop\n        /* \"RomanToInt.sol\":2044:2046  10 */\n      0x0a\n        /* \"RomanToInt.sol\":2037:2046  num -= 10 */\n      dup4\n      tag_43\n      swap2\n      swap1\n      tag_23\n      jump\t// in\n    tag_43:\n      swap3\n      pop\n        /* \"RomanToInt.sol\":1951:2278  if (num >= 10) {... */\n      jump(tag_44)\n    tag_40:\n        /* \"RomanToInt.sol\":2079:2080  5 */\n      0x05\n        /* \"RomanToInt.sol\":2072:2075  num */\n      dup4\n        /* \"RomanToInt.sol\":2072:2080  num >= 5 */\n      0xffffffff\n      and\n      lt\n        /* \"RomanToInt.sol\":2068:2278  if (num >= 5) {... */\n      tag_45\n      jumpi\n        /* \"RomanToInt.sol\":2123:2128  roman */\n      dup1\n        /* \"RomanToInt.sol\":2109:2134  string.concat(roman, \"V\") */\n      add(0x20, mload(0x40))\n      tag_46\n      swap2\n      swap1\n      tag_47\n      jump\t// in\n    tag_46:\n      mload(0x40)\n      0x20\n      dup2\n      dup4\n      sub\n      sub\n      dup2\n      mstore\n      swap1\n      0x40\n      mstore\n        /* \"RomanToInt.sol\":2101:2134  roman = string.concat(roman, \"V\") */\n      swap1\n      pop\n        /* \"RomanToInt.sol\":2160:2161  5 */\n      0x05\n        /* \"RomanToInt.sol\":2153:2161  num -= 5 */\n      dup4\n      tag_48\n      swap2\n      swap1\n      tag_23\n      jump\t// in\n    tag_48:\n      swap3\n      pop\n        /* \"RomanToInt.sol\":2068:2278  if (num >= 5) {... */\n      jump(tag_49)\n    tag_45:\n        /* \"RomanToInt.sol\":2224:2229  roman */\n      dup1\n        /* \"RomanToInt.sol\":2210:2235  string.concat(roman, \"I\") */\n      add(0x20, mload(0x40))\n      tag_50\n      swap2\n      swap1\n      tag_51\n      jump\t// in\n    tag_50:\n      mload(0x40)\n      0x20\n      dup2\n      dup4\n      sub\n      sub\n      dup2\n      mstore\n      swap1\n      0x40\n      mstore\n        /* \"RomanToInt.sol\":2202:2235  roman = string.concat(roman, \"I\") */\n      swap1\n      pop\n        /* \"RomanToInt.sol\":2261:2262  1 */\n      0x01\n        /* \"RomanToInt.sol\":2254:2262  num -= 1 */\n      dup4\n      tag_52\n      swap2\n      swap1\n      tag_23\n      jump\t// in\n    tag_52:\n      swap3\n      pop\n        /* \"RomanToInt.sol\":2068:2278  if (num >= 5) {... */\n    tag_49:\n        /* \"RomanToInt.sol\":1951:2278  if (num >= 10) {... */\n    tag_44:\n        /* \"RomanToInt.sol\":1834:2278  if (num >= 50) {... */\n    tag_39:\n        /* \"RomanToInt.sol\":1715:2278  if (num >= 100) {... */\n    tag_34:\n        /* \"RomanToInt.sol\":1596:2278  if (num >= 500) {... */\n    tag_29:\n        /* \"RomanToInt.sol\":1471:2278  if (num >= 1000) {... */\n    tag_24:\n        /* \"RomanToInt.sol\":1440:2289  while (num > 0) {... */\n      jump(tag_17)\n    tag_18:\n        /* \"RomanToInt.sol\":2308:2313  roman */\n      dup1\n        /* \"RomanToInt.sol\":2301:2313  return roman */\n      swap2\n      pop\n      pop\n        /* \"RomanToInt.sol\":1090:2321  function intToRoman(uint32 num) public pure returns (string memory) {... */\n    tag_10:\n      swap2\n      swap1\n      pop\n      jump\t// out\n        /* \"#utility.yul\":88:205   */\n    tag_54:\n        /* \"#utility.yul\":197:198   */\n      0x00\n        /* \"#utility.yul\":194:195   */\n      0x00\n        /* \"#utility.yul\":187:199   */\n      revert\n        /* \"#utility.yul\":334:427   */\n    tag_56:\n        /* \"#utility.yul\":370:377   */\n      0x00\n        /* \"#utility.yul\":410:420   */\n      0xffffffff\n        /* \"#utility.yul\":403:408   */\n      dup3\n        /* \"#utility.yul\":399:421   */\n      and\n        /* \"#utility.yul\":388:421   */\n      swap1\n      pop\n        /* \"#utility.yul\":334:427   */\n      swap2\n      swap1\n      pop\n      jump\t// out\n        /* \"#utility.yul\":433:553   */\n    tag_57:\n        /* \"#utility.yul\":505:528   */\n      tag_80\n        /* \"#utility.yul\":522:527   */\n      dup2\n        /* \"#utility.yul\":505:528   */\n      tag_56\n      jump\t// in\n    tag_80:\n        /* \"#utility.yul\":498:503   */\n      dup2\n        /* \"#utility.yul\":495:529   */\n      eq\n        /* \"#utility.yul\":485:547   */\n      tag_81\n      jumpi\n        /* \"#utility.yul\":543:544   */\n      0x00\n        /* \"#utility.yul\":540:541   */\n      0x00\n        /* \"#utility.yul\":533:545   */\n      revert\n        /* \"#utility.yul\":485:547   */\n    tag_81:\n        /* \"#utility.yul\":433:553   */\n      pop\n      jump\t// out\n        /* \"#utility.yul\":559:696   */\n    tag_58:\n        /* \"#utility.yul\":604:609   */\n      0x00\n        /* \"#utility.yul\":642:648   */\n      dup2\n        /* \"#utility.yul\":629:649   */\n      calldataload\n        /* \"#utility.yul\":620:649   */\n      swap1\n      pop\n        /* \"#utility.yul\":658:690   */\n      tag_83\n        /* \"#utility.yul\":684:689   */\n      dup2\n        /* \"#utility.yul\":658:690   */\n      tag_57\n      jump\t// in\n    tag_83:\n        /* \"#utility.yul\":559:696   */\n      swap3\n      swap2\n      pop\n      pop\n      jump\t// out\n        /* \"#utility.yul\":702:1029   */\n    tag_6:\n        /* \"#utility.yul\":760:766   */\n      0x00\n        /* \"#utility.yul\":809:811   */\n      0x20\n        /* \"#utility.yul\":797:806   */\n      dup3\n        /* \"#utility.yul\":788:795   */\n      dup5\n        /* \"#utility.yul\":784:807   */\n      sub\n        /* \"#utility.yul\":780:812   */\n      slt\n        /* \"#utility.yul\":777:896   */\n      iszero\n      tag_85\n      jumpi\n        /* \"#utility.yul\":815:894   */\n      tag_86\n      tag_54\n      jump\t// in\n    tag_86:\n        /* \"#utility.yul\":777:896   */\n    tag_85:\n        /* \"#utility.yul\":935:936   */\n      0x00\n        /* \"#utility.yul\":960:1012   */\n      tag_87\n        /* \"#utility.yul\":1004:1011   */\n      dup5\n        /* \"#utility.yul\":995:1001   */\n      dup3\n        /* \"#utility.yul\":984:993   */\n      dup6\n        /* \"#utility.yul\":980:1002   */\n      add\n        /* \"#utility.yul\":960:1012   */\n      tag_58\n      jump\t// in\n    tag_87:\n        /* \"#utility.yul\":950:1012   */\n      swap2\n      pop\n        /* \"#utility.yul\":906:1022   */\n      pop\n        /* \"#utility.yul\":702:1029   */\n      swap3\n      swap2\n      pop\n      pop\n      jump\t// out\n        /* \"#utility.yul\":1035:1134   */\n    tag_59:\n        /* \"#utility.yul\":1087:1093   */\n      0x00\n        /* \"#utility.yul\":1121:1126   */\n      dup2\n        /* \"#utility.yul\":1115:1127   */\n      mload\n        /* \"#utility.yul\":1105:1127   */\n      swap1\n      pop\n        /* \"#utility.yul\":1035:1134   */\n      swap2\n      swap1\n      pop\n      jump\t// out\n        /* \"#utility.yul\":1140:1309   */\n    tag_60:\n        /* \"#utility.yul\":1224:1235   */\n      0x00\n        /* \"#utility.yul\":1258:1264   */\n      dup3\n        /* \"#utility.yul\":1253:1256   */\n      dup3\n        /* \"#utility.yul\":1246:1265   */\n      mstore\n        /* \"#utility.yul\":1298:1302   */\n      0x20\n        /* \"#utility.yul\":1293:1296   */\n      dup3\n        /* \"#utility.yul\":1289:1303   */\n      add\n        /* \"#utility.yul\":1274:1303   */\n      swap1\n      pop\n        /* \"#utility.yul\":1140:1309   */\n      swap3\n      swap2\n      pop\n      pop\n      jump\t// out\n        /* \"#utility.yul\":1315:1454   */\n    tag_61:\n        /* \"#utility.yul\":1404:1410   */\n      dup3\n        /* \"#utility.yul\":1399:1402   */\n      dup2\n        /* \"#utility.yul\":1394:1397   */\n      dup4\n        /* \"#utility.yul\":1388:1411   */\n      mcopy\n        /* \"#utility.yul\":1445:1446   */\n      0x00\n        /* \"#utility.yul\":1436:1442   */\n      dup4\n        /* \"#utility.yul\":1431:1434   */\n      dup4\n        /* \"#utility.yul\":1427:1443   */\n      add\n        /* \"#utility.yul\":1420:1447   */\n      mstore\n        /* \"#utility.yul\":1315:1454   */\n      pop\n      pop\n      pop\n      jump\t// out\n        /* \"#utility.yul\":1460:1562   */\n    tag_62:\n        /* \"#utility.yul\":1501:1507   */\n      0x00\n        /* \"#utility.yul\":1552:1554   */\n      0x1f\n        /* \"#utility.yul\":1548:1555   */\n      not\n        /* \"#utility.yul\":1543:1545   */\n      0x1f\n        /* \"#utility.yul\":1536:1541   */\n      dup4\n        /* \"#utility.yul\":1532:1546   */\n      add\n        /* \"#utility.yul\":1528:1556   */\n      and\n        /* \"#utility.yul\":1518:1556   */\n      swap1\n      pop\n        /* \"#utility.yul\":1460:1562   */\n      swap2\n      swap1\n      pop\n      jump\t// out\n        /* \"#utility.yul\":1568:1945   */\n    tag_63:\n        /* \"#utility.yul\":1656:1659   */\n      0x00\n        /* \"#utility.yul\":1684:1723   */\n      tag_93\n        /* \"#utility.yul\":1717:1722   */\n      dup3\n        /* \"#utility.yul\":1684:1723   */\n      tag_59\n      jump\t// in\n    tag_93:\n        /* \"#utility.yul\":1739:1810   */\n      tag_94\n        /* \"#utility.yul\":1803:1809   */\n      dup2\n        /* \"#utility.yul\":1798:1801   */\n      dup6\n        /* \"#utility.yul\":1739:1810   */\n      tag_60\n      jump\t// in\n    tag_94:\n        /* \"#utility.yul\":1732:1810   */\n      swap4\n      pop\n        /* \"#utility.yul\":1819:1884   */\n      tag_95\n        /* \"#utility.yul\":1877:1883   */\n      dup2\n        /* \"#utility.yul\":1872:1875   */\n      dup6\n        /* \"#utility.yul\":1865:1869   */\n      0x20\n        /* \"#utility.yul\":1858:1863   */\n      dup7\n        /* \"#utility.yul\":1854:1870   */\n      add\n        /* \"#utility.yul\":1819:1884   */\n      tag_61\n      jump\t// in\n    tag_95:\n        /* \"#utility.yul\":1909:1938   */\n      tag_96\n        /* \"#utility.yul\":1931:1937   */\n      dup2\n        /* \"#utility.yul\":1909:1938   */\n      tag_62\n      jump\t// in\n    tag_96:\n        /* \"#utility.yul\":1904:1907   */\n      dup5\n        /* \"#utility.yul\":1900:1939   */\n      add\n        /* \"#utility.yul\":1893:1939   */\n      swap2\n      pop\n        /* \"#utility.yul\":1660:1945   */\n      pop\n        /* \"#utility.yul\":1568:1945   */\n      swap3\n      swap2\n      pop\n      pop\n      jump\t// out\n        /* \"#utility.yul\":1951:2264   */\n    tag_9:\n        /* \"#utility.yul\":2064:2068   */\n      0x00\n        /* \"#utility.yul\":2102:2104   */\n      0x20\n        /* \"#utility.yul\":2091:2100   */\n      dup3\n        /* \"#utility.yul\":2087:2105   */\n      add\n        /* \"#utility.yul\":2079:2105   */\n      swap1\n      pop\n        /* \"#utility.yul\":2151:2160   */\n      dup2\n        /* \"#utility.yul\":2145:2149   */\n      dup2\n        /* \"#utility.yul\":2141:2161   */\n      sub\n        /* \"#utility.yul\":2137:2138   */\n      0x00\n        /* \"#utility.yul\":2126:2135   */\n      dup4\n        /* \"#utility.yul\":2122:2139   */\n      add\n        /* \"#utility.yul\":2115:2162   */\n      mstore\n        /* \"#utility.yul\":2179:2257   */\n      tag_98\n        /* \"#utility.yul\":2252:2256   */\n      dup2\n        /* \"#utility.yul\":2243:2249   */\n      dup5\n        /* \"#utility.yul\":2179:2257   */\n      tag_63\n      jump\t// in\n    tag_98:\n        /* \"#utility.yul\":2171:2257   */\n      swap1\n      pop\n        /* \"#utility.yul\":1951:2264   */\n      swap3\n      swap2\n      pop\n      pop\n      jump\t// out\n        /* \"#utility.yul\":2270:2418   */\n    tag_64:\n        /* \"#utility.yul\":2372:2383   */\n      0x00\n        /* \"#utility.yul\":2409:2412   */\n      dup2\n        /* \"#utility.yul\":2394:2412   */\n      swap1\n      pop\n        /* \"#utility.yul\":2270:2418   */\n      swap3\n      swap2\n      pop\n      pop\n      jump\t// out\n        /* \"#utility.yul\":2424:2814   */\n    tag_65:\n        /* \"#utility.yul\":2530:2533   */\n      0x00\n        /* \"#utility.yul\":2558:2597   */\n      tag_101\n        /* \"#utility.yul\":2591:2596   */\n      dup3\n        /* \"#utility.yul\":2558:2597   */\n      tag_59\n      jump\t// in\n    tag_101:\n        /* \"#utility.yul\":2613:2702   */\n      tag_102\n        /* \"#utility.yul\":2695:2701   */\n      dup2\n        /* \"#utility.yul\":2690:2693   */\n      dup6\n        /* \"#utility.yul\":2613:2702   */\n      tag_64\n      jump\t// in\n    tag_102:\n        /* \"#utility.yul\":2606:2702   */\n      swap4\n      pop\n        /* \"#utility.yul\":2711:2776   */\n      tag_103\n        /* \"#utility.yul\":2769:2775   */\n      dup2\n        /* \"#utility.yul\":2764:2767   */\n      dup6\n        /* \"#utility.yul\":2757:2761   */\n      0x20\n        /* \"#utility.yul\":2750:2755   */\n      dup7\n        /* \"#utility.yul\":2746:2762   */\n      add\n        /* \"#utility.yul\":2711:2776   */\n      tag_61\n      jump\t// in\n    tag_103:\n        /* \"#utility.yul\":2801:2807   */\n      dup1\n        /* \"#utility.yul\":2796:2799   */\n      dup5\n        /* \"#utility.yul\":2792:2808   */\n      add\n        /* \"#utility.yul\":2785:2808   */\n      swap2\n      pop\n        /* \"#utility.yul\":2534:2814   */\n      pop\n        /* \"#utility.yul\":2424:2814   */\n      swap3\n      swap2\n      pop\n      pop\n      jump\t// out\n        /* \"#utility.yul\":2820:2998   */\n    tag_66:\n        /* \"#utility.yul\":2988:2991   */\n      0x4d00000000000000000000000000000000000000000000000000000000000000\n        /* \"#utility.yul\":2983:2986   */\n      dup2\n        /* \"#utility.yul\":2976:2992   */\n      mstore\n        /* \"#utility.yul\":2820:2998   */\n      pop\n      jump\t// out\n        /* \"#utility.yul\":3004:3543   */\n    tag_21:\n        /* \"#utility.yul\":3226:3229   */\n      0x00\n        /* \"#utility.yul\":3248:3343   */\n      tag_106\n        /* \"#utility.yul\":3339:3342   */\n      dup3\n        /* \"#utility.yul\":3330:3336   */\n      dup5\n        /* \"#utility.yul\":3248:3343   */\n      tag_65\n      jump\t// in\n    tag_106:\n        /* \"#utility.yul\":3241:3343   */\n      swap2\n      pop\n        /* \"#utility.yul\":3353:3490   */\n      tag_107\n        /* \"#utility.yul\":3486:3489   */\n      dup3\n        /* \"#utility.yul\":3353:3490   */\n      tag_66\n      jump\t// in\n    tag_107:\n        /* \"#utility.yul\":3515:3516   */\n      0x01\n        /* \"#utility.yul\":3510:3513   */\n      dup3\n        /* \"#utility.yul\":3506:3517   */\n      add\n        /* \"#utility.yul\":3499:3517   */\n      swap2\n      pop\n        /* \"#utility.yul\":3534:3537   */\n      dup2\n        /* \"#utility.yul\":3527:3537   */\n      swap1\n      pop\n        /* \"#utility.yul\":3004:3543   */\n      swap3\n      swap2\n      pop\n      pop\n      jump\t// out\n        /* \"#utility.yul\":3549:3729   */\n    tag_67:\n        /* \"#utility.yul\":3597:3674   */\n      0x4e487b7100000000000000000000000000000000000000000000000000000000\n        /* \"#utility.yul\":3594:3595   */\n      0x00\n        /* \"#utility.yul\":3587:3675   */\n      mstore\n        /* \"#utility.yul\":3694:3698   */\n      0x11\n        /* \"#utility.yul\":3691:3692   */\n      0x04\n        /* \"#utility.yul\":3684:3699   */\n      mstore\n        /* \"#utility.yul\":3718:3722   */\n      0x24\n        /* \"#utility.yul\":3715:3716   */\n      0x00\n        /* \"#utility.yul\":3708:3723   */\n      revert\n        /* \"#utility.yul\":3735:3935   */\n    tag_23:\n        /* \"#utility.yul\":3774:3778   */\n      0x00\n        /* \"#utility.yul\":3794:3813   */\n      tag_110\n        /* \"#utility.yul\":3811:3812   */\n      dup3\n        /* \"#utility.yul\":3794:3813   */\n      tag_56\n      jump\t// in\n    tag_110:\n        /* \"#utility.yul\":3789:3813   */\n      swap2\n      pop\n        /* \"#utility.yul\":3827:3846   */\n      tag_111\n        /* \"#utility.yul\":3844:3845   */\n      dup4\n        /* \"#utility.yul\":3827:3846   */\n      tag_56\n      jump\t// in\n    tag_111:\n        /* \"#utility.yul\":3822:3846   */\n      swap3\n      pop\n        /* \"#utility.yul\":3870:3871   */\n      dup3\n        /* \"#utility.yul\":3867:3868   */\n      dup3\n        /* \"#utility.yul\":3863:3872   */\n      sub\n        /* \"#utility.yul\":3855:3872   */\n      swap1\n      pop\n        /* \"#utility.yul\":3894:3904   */\n      0xffffffff\n        /* \"#utility.yul\":3888:3892   */\n      dup2\n        /* \"#utility.yul\":3885:3905   */\n      gt\n        /* \"#utility.yul\":3882:3928   */\n      iszero\n      tag_112\n      jumpi\n        /* \"#utility.yul\":3908:3926   */\n      tag_113\n      tag_67\n      jump\t// in\n    tag_113:\n        /* \"#utility.yul\":3882:3928   */\n    tag_112:\n        /* \"#utility.yul\":3735:3935   */\n      swap3\n      swap2\n      pop\n      pop\n      jump\t// out\n        /* \"#utility.yul\":3941:4119   */\n    tag_68:\n        /* \"#utility.yul\":4109:4112   */\n      0x4400000000000000000000000000000000000000000000000000000000000000\n        /* \"#utility.yul\":4104:4107   */\n      dup2\n        /* \"#utility.yul\":4097:4113   */\n      mstore\n        /* \"#utility.yul\":3941:4119   */\n      pop\n      jump\t// out\n        /* \"#utility.yul\":4125:4664   */\n    tag_27:\n        /* \"#utility.yul\":4347:4350   */\n      0x00\n        /* \"#utility.yul\":4369:4464   */\n      tag_116\n        /* \"#utility.yul\":4460:4463   */\n      dup3\n        /* \"#utility.yul\":4451:4457   */\n      dup5\n        /* \"#utility.yul\":4369:4464   */\n      tag_65\n      jump\t// in\n    tag_116:\n        /* \"#utility.yul\":4362:4464   */\n      swap2\n      pop\n        /* \"#utility.yul\":4474:4611   */\n      tag_117\n        /* \"#utility.yul\":4607:4610   */\n      dup3\n        /* \"#utility.yul\":4474:4611   */\n      tag_68\n      jump\t// in\n    tag_117:\n        /* \"#utility.yul\":4636:4637   */\n      0x01\n        /* \"#utility.yul\":4631:4634   */\n      dup3\n        /* \"#utility.yul\":4627:4638   */\n      add\n        /* \"#utility.yul\":4620:4638   */\n      swap2\n      pop\n        /* \"#utility.yul\":4655:4658   */\n      dup2\n        /* \"#utility.yul\":4648:4658   */\n      swap1\n      pop\n        /* \"#utility.yul\":4125:4664   */\n      swap3\n      swap2\n      pop\n      pop\n      jump\t// out\n        /* \"#utility.yul\":4670:4848   */\n    tag_69:\n        /* \"#utility.yul\":4838:4841   */\n      0x4300000000000000000000000000000000000000000000000000000000000000\n        /* \"#utility.yul\":4833:4836   */\n      dup2\n        /* \"#utility.yul\":4826:4842   */\n      mstore\n        /* \"#utility.yul\":4670:4848   */\n      pop\n      jump\t// out\n        /* \"#utility.yul\":4854:5393   */\n    tag_32:\n        /* \"#utility.yul\":5076:5079   */\n      0x00\n        /* \"#utility.yul\":5098:5193   */\n      tag_120\n        /* \"#utility.yul\":5189:5192   */\n      dup3\n        /* \"#utility.yul\":5180:5186   */\n      dup5\n        /* \"#utility.yul\":5098:5193   */\n      tag_65\n      jump\t// in\n    tag_120:\n        /* \"#utility.yul\":5091:5193   */\n      swap2\n      pop\n        /* \"#utility.yul\":5203:5340   */\n      tag_121\n        /* \"#utility.yul\":5336:5339   */\n      dup3\n        /* \"#utility.yul\":5203:5340   */\n      tag_69\n      jump\t// in\n    tag_121:\n        /* \"#utility.yul\":5365:5366   */\n      0x01\n        /* \"#utility.yul\":5360:5363   */\n      dup3\n        /* \"#utility.yul\":5356:5367   */\n      add\n        /* \"#utility.yul\":5349:5367   */\n      swap2\n      pop\n        /* \"#utility.yul\":5384:5387   */\n      dup2\n        /* \"#utility.yul\":5377:5387   */\n      swap1\n      pop\n        /* \"#utility.yul\":4854:5393   */\n      swap3\n      swap2\n      pop\n      pop\n      jump\t// out\n        /* \"#utility.yul\":5399:5577   */\n    tag_70:\n        /* \"#utility.yul\":5567:5570   */\n      0x4c00000000000000000000000000000000000000000000000000000000000000\n        /* \"#utility.yul\":5562:5565   */\n      dup2\n        /* \"#utility.yul\":5555:5571   */\n      mstore\n        /* \"#utility.yul\":5399:5577   */\n      pop\n      jump\t// out\n        /* \"#utility.yul\":5583:6122   */\n    tag_37:\n        /* \"#utility.yul\":5805:5808   */\n      0x00\n        /* \"#utility.yul\":5827:5922   */\n      tag_124\n        /* \"#utility.yul\":5918:5921   */\n      dup3\n        /* \"#utility.yul\":5909:5915   */\n      dup5\n        /* \"#utility.yul\":5827:5922   */\n      tag_65\n      jump\t// in\n    tag_124:\n        /* \"#utility.yul\":5820:5922   */\n      swap2\n      pop\n        /* \"#utility.yul\":5932:6069   */\n      tag_125\n        /* \"#utility.yul\":6065:6068   */\n      dup3\n        /* \"#utility.yul\":5932:6069   */\n      tag_70\n      jump\t// in\n    tag_125:\n        /* \"#utility.yul\":6094:6095   */\n      0x01\n        /* \"#utility.yul\":6089:6092   */\n      dup3\n        /* \"#utility.yul\":6085:6096   */\n      add\n        /* \"#utility.yul\":6078:6096   */\n      swap2\n      pop\n        /* \"#utility.yul\":6113:6116   */\n      dup2\n        /* \"#utility.yul\":6106:6116   */\n      swap1\n      pop\n        /* \"#utility.yul\":5583:6122   */\n      swap3\n      swap2\n      pop\n      pop\n      jump\t// out\n        /* \"#utility.yul\":6128:6306   */\n    tag_71:\n        /* \"#utility.yul\":6296:6299   */\n      0x5800000000000000000000000000000000000000000000000000000000000000\n        /* \"#utility.yul\":6291:6294   */\n      dup2\n        /* \"#utility.yul\":6284:6300   */\n      mstore\n        /* \"#utility.yul\":6128:6306   */\n      pop\n      jump\t// out\n        /* \"#utility.yul\":6312:6851   */\n    tag_42:\n        /* \"#utility.yul\":6534:6537   */\n      0x00\n        /* \"#utility.yul\":6556:6651   */\n      tag_128\n        /* \"#utility.yul\":6647:6650   */\n      dup3\n        /* \"#utility.yul\":6638:6644   */\n      dup5\n        /* \"#utility.yul\":6556:6651   */\n      tag_65\n      jump\t// in\n    tag_128:\n        /* \"#utility.yul\":6549:6651   */\n      swap2\n      pop\n        /* \"#utility.yul\":6661:6798   */\n      tag_129\n        /* \"#utility.yul\":6794:6797   */\n      dup3\n        /* \"#utility.yul\":6661:6798   */\n      tag_71\n      jump\t// in\n    tag_129:\n        /* \"#utility.yul\":6823:6824   */\n      0x01\n        /* \"#utility.yul\":6818:6821   */\n      dup3\n        /* \"#utility.yul\":6814:6825   */\n      add\n        /* \"#utility.yul\":6807:6825   */\n      swap2\n      pop\n        /* \"#utility.yul\":6842:6845   */\n      dup2\n        /* \"#utility.yul\":6835:6845   */\n      swap1\n      pop\n        /* \"#utility.yul\":6312:6851   */\n      swap3\n      swap2\n      pop\n      pop\n      jump\t// out\n        /* \"#utility.yul\":6857:7035   */\n    tag_72:\n        /* \"#utility.yul\":7025:7028   */\n      0x5600000000000000000000000000000000000000000000000000000000000000\n        /* \"#utility.yul\":7020:7023   */\n      dup2\n        /* \"#utility.yul\":7013:7029   */\n      mstore\n        /* \"#utility.yul\":6857:7035   */\n      pop\n      jump\t// out\n        /* \"#utility.yul\":7041:7580   */\n    tag_47:\n        /* \"#utility.yul\":7263:7266   */\n      0x00\n        /* \"#utility.yul\":7285:7380   */\n      tag_132\n        /* \"#utility.yul\":7376:7379   */\n      dup3\n        /* \"#utility.yul\":7367:7373   */\n      dup5\n        /* \"#utility.yul\":7285:7380   */\n      tag_65\n      jump\t// in\n    tag_132:\n        /* \"#utility.yul\":7278:7380   */\n      swap2\n      pop\n        /* \"#utility.yul\":7390:7527   */\n      tag_133\n        /* \"#utility.yul\":7523:7526   */\n      dup3\n        /* \"#utility.yul\":7390:7527   */\n      tag_72\n      jump\t// in\n    tag_133:\n        /* \"#utility.yul\":7552:7553   */\n      0x01\n        /* \"#utility.yul\":7547:7550   */\n      dup3\n        /* \"#utility.yul\":7543:7554   */\n      add\n        /* \"#utility.yul\":7536:7554   */\n      swap2\n      pop\n        /* \"#utility.yul\":7571:7574   */\n      dup2\n        /* \"#utility.yul\":7564:7574   */\n      swap1\n      pop\n        /* \"#utility.yul\":7041:7580   */\n      swap3\n      swap2\n      pop\n      pop\n      jump\t// out\n        /* \"#utility.yul\":7586:7764   */\n    tag_73:\n        /* \"#utility.yul\":7754:7757   */\n      0x4900000000000000000000000000000000000000000000000000000000000000\n        /* \"#utility.yul\":7749:7752   */\n      dup2\n        /* \"#utility.yul\":7742:7758   */\n      mstore\n        /* \"#utility.yul\":7586:7764   */\n      pop\n      jump\t// out\n        /* \"#utility.yul\":7770:8309   */\n    tag_51:\n        /* \"#utility.yul\":7992:7995   */\n      0x00\n        /* \"#utility.yul\":8014:8109   */\n      tag_136\n        /* \"#utility.yul\":8105:8108   */\n      dup3\n        /* \"#utility.yul\":8096:8102   */\n      dup5\n        /* \"#utility.yul\":8014:8109   */\n      tag_65\n      jump\t// in\n    tag_136:\n        /* \"#utility.yul\":8007:8109   */\n      swap2\n      pop\n        /* \"#utility.yul\":8119:8256   */\n      tag_137\n        /* \"#utility.yul\":8252:8255   */\n      dup3\n        /* \"#utility.yul\":8119:8256   */\n      tag_73\n      jump\t// in\n    tag_137:\n        /* \"#utility.yul\":8281:8282   */\n      0x01\n        /* \"#utility.yul\":8276:8279   */\n      dup3\n        /* \"#utility.yul\":8272:8283   */\n      add\n        /* \"#utility.yul\":8265:8283   */\n      swap2\n      pop\n        /* \"#utility.yul\":8300:8303   */\n      dup2\n        /* \"#utility.yul\":8293:8303   */\n      swap1\n      pop\n        /* \"#utility.yul\":7770:8309   */\n      swap3\n      swap2\n      pop\n      pop\n      jump\t// out\n\n    auxdata: 0xa26469706673582212206ef50fefe4ea966fcddaa37620720d50a108c78cbab630908071153ff45b795c64736f6c634300081e0033\n}\n",
				"bytecode": {
					"linkReferences": {},
					"object": "6080604052348015600e575f5ffd5b506107ff8061001c5f395ff3fe608060405234801561000f575f5ffd5b5060043610610029575f3560e01c8063fb3b78961461002d575b5f5ffd5b61004760048036038101906100429190610463565b61005d565b60405161005491906104fe565b60405180910390f35b606060048263ffffffff16036100aa576040518060400160405280600281526020017f49560000000000000000000000000000000000000000000000000000000000008152509050610421565b60098263ffffffff16036100f5576040518060400160405280600281526020017f49580000000000000000000000000000000000000000000000000000000000008152509050610421565b60288263ffffffff1603610140576040518060400160405280600281526020017f584c0000000000000000000000000000000000000000000000000000000000008152509050610421565b605a8263ffffffff160361018b576040518060400160405280600281526020017f58430000000000000000000000000000000000000000000000000000000000008152509050610421565b6101908263ffffffff16036101d7576040518060400160405280600281526020017f43440000000000000000000000000000000000000000000000000000000000008152509050610421565b6103848263ffffffff1603610223576040518060400160405280600281526020017f434d0000000000000000000000000000000000000000000000000000000000008152509050610421565b5f60405180602001604052805f81525090505b5f8363ffffffff16111561041c576103e88363ffffffff161061028a5780604051602001610264919061057e565b60405160208183030381529060405290506103e88361028391906105d0565b9250610417565b6101f48363ffffffff16106102d057806040516020016102aa919061062d565b60405160208183030381529060405290506101f4836102c991906105d0565b9250610416565b60648363ffffffff161061031457806040516020016102ef9190610678565b604051602081830303815290604052905060648361030d91906105d0565b9250610415565b60328363ffffffff1610610358578060405160200161033391906106c3565b604051602081830303815290604052905060328361035191906105d0565b9250610414565b600a8363ffffffff161061039c5780604051602001610377919061070e565b6040516020818303038152906040529050600a8361039591906105d0565b9250610413565b60058363ffffffff16106103e057806040516020016103bb9190610759565b60405160208183030381529060405290506005836103d991906105d0565b9250610412565b806040516020016103f191906107a4565b604051602081830303815290604052905060018361040f91906105d0565b92505b5b5b5b5b5b610236565b809150505b919050565b5f5ffd5b5f63ffffffff82169050919050565b6104428161042a565b811461044c575f5ffd5b50565b5f8135905061045d81610439565b92915050565b5f6020828403121561047857610477610426565b5b5f6104858482850161044f565b91505092915050565b5f81519050919050565b5f82825260208201905092915050565b8281835e5f83830152505050565b5f601f19601f8301169050919050565b5f6104d08261048e565b6104da8185610498565b93506104ea8185602086016104a8565b6104f3816104b6565b840191505092915050565b5f6020820190508181035f83015261051681846104c6565b905092915050565b5f81905092915050565b5f6105328261048e565b61053c818561051e565b935061054c8185602086016104a8565b80840191505092915050565b7f4d00000000000000000000000000000000000000000000000000000000000000815250565b5f6105898284610528565b915061059482610558565b60018201915081905092915050565b7f4e487b71000000000000000000000000000000000000000000000000000000005f52601160045260245ffd5b5f6105da8261042a565b91506105e58361042a565b9250828203905063ffffffff811115610601576106006105a3565b5b92915050565b7f4400000000000000000000000000000000000000000000000000000000000000815250565b5f6106388284610528565b915061064382610607565b60018201915081905092915050565b7f4300000000000000000000000000000000000000000000000000000000000000815250565b5f6106838284610528565b915061068e82610652565b60018201915081905092915050565b7f4c00000000000000000000000000000000000000000000000000000000000000815250565b5f6106ce8284610528565b91506106d98261069d565b60018201915081905092915050565b7f5800000000000000000000000000000000000000000000000000000000000000815250565b5f6107198284610528565b9150610724826106e8565b60018201915081905092915050565b7f5600000000000000000000000000000000000000000000000000000000000000815250565b5f6107648284610528565b915061076f82610733565b60018201915081905092915050565b7f4900000000000000000000000000000000000000000000000000000000000000815250565b5f6107af8284610528565b91506107ba8261077e565b6001820191508190509291505056fea26469706673582212206ef50fefe4ea966fcddaa37620720d50a108c78cbab630908071153ff45b795c64736f6c634300081e0033",
					"opcodes": "PUSH1 0x80 PUSH1 0x40 MSTORE CALLVALUE DUP1 ISZERO PUSH1 0xE JUMPI PUSH0 PUSH0 REVERT JUMPDEST POP PUSH2 0x7FF DUP1 PUSH2 0x1C PUSH0 CODECOPY PUSH0 RETURN INVALID PUSH1 0x80 PUSH1 0x40 MSTORE CALLVALUE DUP1 ISZERO PUSH2 0xF JUMPI PUSH0 PUSH0 REVERT JUMPDEST POP PUSH1 0x4 CALLDATASIZE LT PUSH2 0x29 JUMPI PUSH0 CALLDATALOAD PUSH1 0xE0 SHR DUP1 PUSH4 0xFB3B7896 EQ PUSH2 0x2D JUMPI JUMPDEST PUSH0 PUSH0 REVERT JUMPDEST PUSH2 0x47 PUSH1 0x4 DUP1 CALLDATASIZE SUB DUP2 ADD SWAP1 PUSH2 0x42 SWAP2 SWAP1 PUSH2 0x463 JUMP JUMPDEST PUSH2 0x5D JUMP JUMPDEST PUSH1 0x40 MLOAD PUSH2 0x54 SWAP2 SWAP1 PUSH2 0x4FE JUMP JUMPDEST PUSH1 0x40 MLOAD DUP1 SWAP2 SUB SWAP1 RETURN JUMPDEST PUSH1 0x60 PUSH1 0x4 DUP3 PUSH4 0xFFFFFFFF AND SUB PUSH2 0xAA JUMPI PUSH1 0x40 MLOAD DUP1 PUSH1 0x40 ADD PUSH1 0x40 MSTORE DUP1 PUSH1 0x2 DUP2 MSTORE PUSH1 0x20 ADD PUSH32 0x4956000000000000000000000000000000000000000000000000000000000000 DUP2 MSTORE POP SWAP1 POP PUSH2 0x421 JUMP JUMPDEST PUSH1 0x9 DUP3 PUSH4 0xFFFFFFFF AND SUB PUSH2 0xF5 JUMPI PUSH1 0x40 MLOAD DUP1 PUSH1 0x40 ADD PUSH1 0x40 MSTORE DUP1 PUSH1 0x2 DUP2 MSTORE PUSH1 0x20 ADD PUSH32 0x4958000000000000000000000000000000000000000000000000000000000000 DUP2 MSTORE POP SWAP1 POP PUSH2 0x421 JUMP JUMPDEST PUSH1 0x28 DUP3 PUSH4 0xFFFFFFFF AND SUB PUSH2 0x140 JUMPI PUSH1 0x40 MLOAD DUP1 PUSH1 0x40 ADD PUSH1 0x40 MSTORE DUP1 PUSH1 0x2 DUP2 MSTORE PUSH1 0x20 ADD PUSH32 0x584C000000000000000000000000000000000000000000000000000000000000 DUP2 MSTORE POP SWAP1 POP PUSH2 0x421 JUMP JUMPDEST PUSH1 0x5A DUP3 PUSH4 0xFFFFFFFF AND SUB PUSH2 0x18B JUMPI PUSH1 0x40 MLOAD DUP1 PUSH1 0x40 ADD PUSH1 0x40 MSTORE DUP1 PUSH1 0x2 DUP2 MSTORE PUSH1 0x20 ADD PUSH32 0x5843000000000000000000000000000000000000000000000000000000000000 DUP2 MSTORE POP SWAP1 POP PUSH2 0x421 JUMP JUMPDEST PUSH2 0x190 DUP3 PUSH4 0xFFFFFFFF AND SUB PUSH2 0x1D7 JUMPI PUSH1 0x40 MLOAD DUP1 PUSH1 0x40 ADD PUSH1 0x40 MSTORE DUP1 PUSH1 0x2 DUP2 MSTORE PUSH1 0x20 ADD PUSH32 0x4344000000000000000000000000000000000000000000000000000000000000 DUP2 MSTORE POP SWAP1 POP PUSH2 0x421 JUMP JUMPDEST PUSH2 0x384 DUP3 PUSH4 0xFFFFFFFF AND SUB PUSH2 0x223 JUMPI PUSH1 0x40 MLOAD DUP1 PUSH1 0x40 ADD PUSH1 0x40 MSTORE DUP1 PUSH1 0x2 DUP2 MSTORE PUSH1 0x20 ADD PUSH32 0x434D000000000000000000000000000000000000000000000000000000000000 DUP2 MSTORE POP SWAP1 POP PUSH2 0x421 JUMP JUMPDEST PUSH0 PUSH1 0x40 MLOAD DUP1 PUSH1 0x20 ADD PUSH1 0x40 MSTORE DUP1 PUSH0 DUP2 MSTORE POP SWAP1 POP JUMPDEST PUSH0 DUP4 PUSH4 0xFFFFFFFF AND GT ISZERO PUSH2 0x41C JUMPI PUSH2 0x3E8 DUP4 PUSH4 0xFFFFFFFF AND LT PUSH2 0x28A JUMPI DUP1 PUSH1 0x40 MLOAD PUSH1 0x20 ADD PUSH2 0x264 SWAP2 SWAP1 PUSH2 0x57E JUMP JUMPDEST PUSH1 0x40 MLOAD PUSH1 0x20 DUP2 DUP4 SUB SUB DUP2 MSTORE SWAP1 PUSH1 0x40 MSTORE SWAP1 POP PUSH2 0x3E8 DUP4 PUSH2 0x283 SWAP2 SWAP1 PUSH2 0x5D0 JUMP JUMPDEST SWAP3 POP PUSH2 0x417 JUMP JUMPDEST PUSH2 0x1F4 DUP4 PUSH4 0xFFFFFFFF AND LT PUSH2 0x2D0 JUMPI DUP1 PUSH1 0x40 MLOAD PUSH1 0x20 ADD PUSH2 0x2AA SWAP2 SWAP1 PUSH2 0x62D JUMP JUMPDEST PUSH1 0x40 MLOAD PUSH1 0x20 DUP2 DUP4 SUB SUB DUP2 MSTORE SWAP1 PUSH1 0x40 MSTORE SWAP1 POP PUSH2 0x1F4 DUP4 PUSH2 0x2C9 SWAP2 SWAP1 PUSH2 0x5D0 JUMP JUMPDEST SWAP3 POP PUSH2 0x416 JUMP JUMPDEST PUSH1 0x64 DUP4 PUSH4 0xFFFFFFFF AND LT PUSH2 0x314 JUMPI DUP1 PUSH1 0x40 MLOAD PUSH1 0x20 ADD PUSH2 0x2EF SWAP2 SWAP1 PUSH2 0x678 JUMP JUMPDEST PUSH1 0x40 MLOAD PUSH1 0x20 DUP2 DUP4 SUB SUB DUP2 MSTORE SWAP1 PUSH1 0x40 MSTORE SWAP1 POP PUSH1 0x64 DUP4 PUSH2 0x30D SWAP2 SWAP1 PUSH2 0x5D0 JUMP JUMPDEST SWAP3 POP PUSH2 0x415 JUMP JUMPDEST PUSH1 0x32 DUP4 PUSH4 0xFFFFFFFF AND LT PUSH2 0x358 JUMPI DUP1 PUSH1 0x40 MLOAD PUSH1 0x20 ADD PUSH2 0x333 SWAP2 SWAP1 PUSH2 0x6C3 JUMP JUMPDEST PUSH1 0x40 MLOAD PUSH1 0x20 DUP2 DUP4 SUB SUB DUP2 MSTORE SWAP1 PUSH1 0x40 MSTORE SWAP1 POP PUSH1 0x32 DUP4 PUSH2 0x351 SWAP2 SWAP1 PUSH2 0x5D0 JUMP JUMPDEST SWAP3 POP PUSH2 0x414 JUMP JUMPDEST PUSH1 0xA DUP4 PUSH4 0xFFFFFFFF AND LT PUSH2 0x39C JUMPI DUP1 PUSH1 0x40 MLOAD PUSH1 0x20 ADD PUSH2 0x377 SWAP2 SWAP1 PUSH2 0x70E JUMP JUMPDEST PUSH1 0x40 MLOAD PUSH1 0x20 DUP2 DUP4 SUB SUB DUP2 MSTORE SWAP1 PUSH1 0x40 MSTORE SWAP1 POP PUSH1 0xA DUP4 PUSH2 0x395 SWAP2 SWAP1 PUSH2 0x5D0 JUMP JUMPDEST SWAP3 POP PUSH2 0x413 JUMP JUMPDEST PUSH1 0x5 DUP4 PUSH4 0xFFFFFFFF AND LT PUSH2 0x3E0 JUMPI DUP1 PUSH1 0x40 MLOAD PUSH1 0x20 ADD PUSH2 0x3BB SWAP2 SWAP1 PUSH2 0x759 JUMP JUMPDEST PUSH1 0x40 MLOAD PUSH1 0x20 DUP2 DUP4 SUB SUB DUP2 MSTORE SWAP1 PUSH1 0x40 MSTORE SWAP1 POP PUSH1 0x5 DUP4 PUSH2 0x3D9 SWAP2 SWAP1 PUSH2 0x5D0 JUMP JUMPDEST SWAP3 POP PUSH2 0x412 JUMP JUMPDEST DUP1 PUSH1 0x40 MLOAD PUSH1 0x20 ADD PUSH2 0x3F1 SWAP2 SWAP1 PUSH2 0x7A4 JUMP JUMPDEST PUSH1 0x40 MLOAD PUSH1 0x20 DUP2 DUP4 SUB SUB DUP2 MSTORE SWAP1 PUSH1 0x40 MSTORE SWAP1 POP PUSH1 0x1 DUP4 PUSH2 0x40F SWAP2 SWAP1 PUSH2 0x5D0 JUMP JUMPDEST SWAP3 POP JUMPDEST JUMPDEST JUMPDEST JUMPDEST JUMPDEST JUMPDEST PUSH2 0x236 JUMP JUMPDEST DUP1 SWAP2 POP POP JUMPDEST SWAP2 SWAP1 POP JUMP JUMPDEST PUSH0 PUSH0 REVERT JUMPDEST PUSH0 PUSH4 0xFFFFFFFF DUP3 AND SWAP1 POP SWAP2 SWAP1 POP JUMP JUMPDEST PUSH2 0x442 DUP2 PUSH2 0x42A JUMP JUMPDEST DUP2 EQ PUSH2 0x44C JUMPI PUSH0 PUSH0 REVERT JUMPDEST POP JUMP JUMPDEST PUSH0 DUP2 CALLDATALOAD SWAP1 POP PUSH2 0x45D DUP2 PUSH2 0x439 JUMP JUMPDEST SWAP3 SWAP2 POP POP JUMP JUMPDEST PUSH0 PUSH1 0x20 DUP3 DUP5 SUB SLT ISZERO PUSH2 0x478 JUMPI PUSH2 0x477 PUSH2 0x426 JUMP JUMPDEST JUMPDEST PUSH0 PUSH2 0x485 DUP5 DUP3 DUP6 ADD PUSH2 0x44F JUMP JUMPDEST SWAP2 POP POP SWAP3 SWAP2 POP POP JUMP JUMPDEST PUSH0 DUP2 MLOAD SWAP1 POP SWAP2 SWAP1 POP JUMP JUMPDEST PUSH0 DUP3 DUP3 MSTORE PUSH1 0x20 DUP3 ADD SWAP1 POP SWAP3 SWAP2 POP POP JUMP JUMPDEST DUP3 DUP2 DUP4 MCOPY PUSH0 DUP4 DUP4 ADD MSTORE POP POP POP JUMP JUMPDEST PUSH0 PUSH1 0x1F NOT PUSH1 0x1F DUP4 ADD AND SWAP1 POP SWAP2 SWAP1 POP JUMP JUMPDEST PUSH0 PUSH2 0x4D0 DUP3 PUSH2 0x48E JUMP JUMPDEST PUSH2 0x4DA DUP2 DUP6 PUSH2 0x498 JUMP JUMPDEST SWAP4 POP PUSH2 0x4EA DUP2 DUP6 PUSH1 0x20 DUP7 ADD PUSH2 0x4A8 JUMP JUMPDEST PUSH2 0x4F3 DUP2 PUSH2 0x4B6 JUMP JUMPDEST DUP5 ADD SWAP2 POP POP SWAP3 SWAP2 POP POP JUMP JUMPDEST PUSH0 PUSH1 0x20 DUP3 ADD SWAP1 POP DUP2 DUP2 SUB PUSH0 DUP4 ADD MSTORE PUSH2 0x516 DUP2 DUP5 PUSH2 0x4C6 JUMP JUMPDEST SWAP1 POP SWAP3 SWAP2 POP POP JUMP JUMPDEST PUSH0 DUP2 SWAP1 POP SWAP3 SWAP2 POP POP JUMP JUMPDEST PUSH0 PUSH2 0x532 DUP3 PUSH2 0x48E JUMP JUMPDEST PUSH2 0x53C DUP2 DUP6 PUSH2 0x51E JUMP JUMPDEST SWAP4 POP PUSH2 0x54C DUP2 DUP6 PUSH1 0x20 DUP7 ADD PUSH2 0x4A8 JUMP JUMPDEST DUP1 DUP5 ADD SWAP2 POP POP SWAP3 SWAP2 POP POP JUMP JUMPDEST PUSH32 0x4D00000000000000000000000000000000000000000000000000000000000000 DUP2 MSTORE POP JUMP JUMPDEST PUSH0 PUSH2 0x589 DUP3 DUP5 PUSH2 0x528 JUMP JUMPDEST SWAP2 POP PUSH2 0x594 DUP3 PUSH2 0x558 JUMP JUMPDEST PUSH1 0x1 DUP3 ADD SWAP2 POP DUP2 SWAP1 POP SWAP3 SWAP2 POP POP JUMP JUMPDEST PUSH32 0x4E487B7100000000000000000000000000000000000000000000000000000000 PUSH0 MSTORE PUSH1 0x11 PUSH1 0x4 MSTORE PUSH1 0x24 PUSH0 REVERT JUMPDEST PUSH0 PUSH2 0x5DA DUP3 PUSH2 0x42A JUMP JUMPDEST SWAP2 POP PUSH2 0x5E5 DUP4 PUSH2 0x42A JUMP JUMPDEST SWAP3 POP DUP3 DUP3 SUB SWAP1 POP PUSH4 0xFFFFFFFF DUP2 GT ISZERO PUSH2 0x601 JUMPI PUSH2 0x600 PUSH2 0x5A3 JUMP JUMPDEST JUMPDEST SWAP3 SWAP2 POP POP JUMP JUMPDEST PUSH32 0x4400000000000000000000000000000000000000000000000000000000000000 DUP2 MSTORE POP JUMP JUMPDEST PUSH0 PUSH2 0x638 DUP3 DUP5 PUSH2 0x528 JUMP JUMPDEST SWAP2 POP PUSH2 0x643 DUP3 PUSH2 0x607 JUMP JUMPDEST PUSH1 0x1 DUP3 ADD SWAP2 POP DUP2 SWAP1 POP SWAP3 SWAP2 POP POP JUMP JUMPDEST PUSH32 0x4300000000000000000000000000000000000000000000000000000000000000 DUP2 MSTORE POP JUMP JUMPDEST PUSH0 PUSH2 0x683 DUP3 DUP5 PUSH2 0x528 JUMP JUMPDEST SWAP2 POP PUSH2 0x68E DUP3 PUSH2 0x652 JUMP JUMPDEST PUSH1 0x1 DUP3 ADD SWAP2 POP DUP2 SWAP1 POP SWAP3 SWAP2 POP POP JUMP JUMPDEST PUSH32 0x4C00000000000000000000000000000000000000000000000000000000000000 DUP2 MSTORE POP JUMP JUMPDEST PUSH0 PUSH2 0x6CE DUP3 DUP5 PUSH2 0x528 JUMP JUMPDEST SWAP2 POP PUSH2 0x6D9 DUP3 PUSH2 0x69D JUMP JUMPDEST PUSH1 0x1 DUP3 ADD SWAP2 POP DUP2 SWAP1 POP SWAP3 SWAP2 POP POP JUMP JUMPDEST PUSH32 0x5800000000000000000000000000000000000000000000000000000000000000 DUP2 MSTORE POP JUMP JUMPDEST PUSH0 PUSH2 0x719 DUP3 DUP5 PUSH2 0x528 JUMP JUMPDEST SWAP2 POP PUSH2 0x724 DUP3 PUSH2 0x6E8 JUMP JUMPDEST PUSH1 0x1 DUP3 ADD SWAP2 POP DUP2 SWAP1 POP SWAP3 SWAP2 POP POP JUMP JUMPDEST PUSH32 0x5600000000000000000000000000000000000000000000000000000000000000 DUP2 MSTORE POP JUMP JUMPDEST PUSH0 PUSH2 0x764 DUP3 DUP5 PUSH2 0x528 JUMP JUMPDEST SWAP2 POP PUSH2 0x76F DUP3 PUSH2 0x733 JUMP JUMPDEST PUSH1 0x1 DUP3 ADD SWAP2 POP DUP2 SWAP1 POP SWAP3 SWAP2 POP POP JUMP JUMPDEST PUSH32 0x4900000000000000000000000000000000000000000000000000000000000000 DUP2 MSTORE POP JUMP JUMPDEST PUSH0 PUSH2 0x7AF DUP3 DUP5 PUSH2 0x528 JUMP JUMPDEST SWAP2 POP PUSH2 0x7BA DUP3 PUSH2 0x77E JUMP JUMPDEST PUSH1 0x1 DUP3 ADD SWAP2 POP DUP2 SWAP1 POP SWAP3 SWAP2 POP POP JUMP INVALID LOG2 PUSH5 0x6970667358 0x22 SLT KECCAK256 PUSH15 0xF50FEFE4EA966FCDDAA37620720D50 LOG1 ADDMOD 0xC7 DUP13 0xBA 0xB6 ADDRESS SWAP1 DUP1 PUSH18 0x153FF45B795C64736F6C634300081E003300 "
				},
				"gasEstimates": {
					"creation": {
						"codeDepositCost": "409400",
						"executionCost": "441",
						"totalCost": "409841"
					},
					"external": {
						"intToRoman(uint32)": "infinite"
					}
				},
				"methodIdentifiers": {
					"intToRoman(uint32)": "fb3b7896"
				}
			},
			"storageLayout": {
				"storage": [],
				"types": null
			},
			"userdoc": {
				"kind": "user",
				"methods": {},
				"version": 1
			}
		}
	}
}