{
	"data": {
		"bytecode": {
			"linkReferences": {},
			"object": "6080604052348015600e575f5ffd5b506107ff8061001c5f395ff3fe608060405234801561000f575f5ffd5b5060043610610029575f3560e01c8063fb3b78961461002d575b5f5ffd5b61004760048036038101906100429190610463565b61005d565b60405161005491906104fe565b60405180910390f35b606060048263ffffffff16036100aa576040518060400160405280600281526020017f49560000000000000000000000000000000000000000000000000000000000008152509050610421565b60098263ffffffff16036100f5576040518060400160405280600281526020017f49580000000000000000000000000000000000000000000000000000000000008152509050610421565b60288263ffffffff1603610140576040518060400160405280600281526020017f584c0000000000000000000000000000000000000000000000000000000000008152509050610421565b605a8263ffffffff160361018b576040518060400160405280600281526020017f58430000000000000000000000000000000000000000000000000000000000008152509050610421565b6101908263ffffffff16036101d7576040518060400160405280600281526020017f43440000000000000000000000000000000000000000000000000000000000008152509050610421565b6103848263ffffffff1603610223576040518060400160405280600281526020017f434d0000000000000000000000000000000000000000000000000000000000008152509050610421565b5f60405180602001604052805f81525090505b5f8363ffffffff16111561041c576103e88363ffffffff161061028a5780604051602001610264919061057e565b60405160208183030381529060405290506103e88361028391906105d0565b9250610417565b6101f48363ffffffff16106102d057806040516020016102aa919061062d565b60405160208183030381529060405290506101f4836102c991906105d0565b9250610416565b60648363ffffffff161061031457806040516020016102ef9190610678565b604051602081830303815290604052905060648361030d91906105d0565b9250610415565b60328363ffffffff1610610358578060405160200161033391906106c3565b604051602081830303815290604052905060328361035191906105d0565b9250610414565b600a8363ffffffff161061039c5780604051602001610377919061070e565b6040516020818303038152906040529050600a8361039591906105d0565b9250610413565b60058363ffffffff16106103e057806040516020016103bb9190610759565b60405160208183030381529060405290506005836103d991906105d0565b9250610412565b806040516020016103f191906107a4565b604051602081830303815290604052905060018361040f91906105d0565b92505b5b5b5b5b5b610236565b809150505b919050565b5f5ffd5b5f63ffffffff82169050919050565b6104428161042a565b811461044c575f5ffd5b50565b5f8135905061045d81610439565b92915050565b5f6020828403121561047857610477610426565b5b5f6104858482850161044f565b91505092915050565b5f81519050919050565b5f82825260208201905092915050565b8281835e5f83830152505050565b5f601f19601f8301169050919050565b5f6104d08261048e565b6104da8185610498565b93506104ea8185602086016104a8565b6104f3816104b6565b840191505092915050565b5f6020820190508181035f83015261051681846104c6565b905092915050565b5f81905092915050565b5f6105328261048e565b61053c818561051e565b935061054c8185602086016104a8565b80840191505092915050565b7f4d00000000000000000000000000000000000000000000000000000000000000815250565b5f6105898284610528565b915061059482610558565b60018201915081905092915050565b7f4e487b71000000000000000000000000000000000000000000000000000000005f52601160045260245ffd5b5f6105da8261042a565b91506105e58361042a565b9250828203905063ffffffff811115610601576106006105a3565b5b92915050565b7f4400000000000000000000000000000000000000000000000000000000000000815250565b5f6106388284610528565b915061064382610607565b60018201915081905092915050565b7f4300000000000000000000000000000000000000000000000000000000000000815250565b5f6106838284610528565b915061068e82610652565b60018201915081905092915050565b7f4c00000000000000000000000000000000000000000000000000000000000000815250565b5f6106ce8284610528565b91506106d98261069d565b60018201915081905092915050565b7f5800000000000000000000000000000000000000000000000000000000000000815250565b5f6107198284610528565b9150610724826106e8565b60018201915081905092915050565b7f5600000000000000000000000000000000000000000000000000000000000000815250565b5f6107648284610528565b915061076f82610733565b60018201915081905092915050565b7f4900000000000000000000000000000000000000000000000000000000000000815250565b5f6107af8284610528565b91506107ba8261077e565b6001820191508190509291505056fea26469706673582212206ef50fefe4ea966fcddaa37620720d50a108c78cbab630908071153ff45b795c64736f6c634300081e0033",
			"opcodes": "PUSH1 0x80 PUSH1 0x40 MSTORE CALLVALUE DUP1 ISZERO PUSH1 0xE JUMPI PUSH0 PUSH0 REVERT JUMPDEST POP PUSH2 0x7FF DUP1 PUSH2 0x1C PUSH0 CODECOPY PUSH0 RETURN INVALID PUSH1 0x80 PUSH1 0x40 MSTORE CALLVALUE DUP1 ISZERO PUSH2 0xF JUMPI PUSH0 PUSH0 REVERT JUMPDEST POP PUSH1 0x4 CALLDATASIZE LT PUSH2 0x29 JUMPI PUSH0 CALLDATALOAD PUSH1 0xE0 SHR DUP1 PUSH4 0xFB3B7896 EQ PUSH2 0x2D JUMPI JUMPDEST PUSH0 PUSH0 REVERT JUMPDEST PUSH2 0x47 PUSH1 0x4 DUP1 CALLDATASIZE SUB DUP2 ADD SWAP1 PUSH2 0x42 SWAP2 SWAP1 PUSH2 0x463 JUMP JUMPDEST PUSH2 0x5D JUMP JUMPDEST PUSH1 0x40 MLOAD PUSH2 0x54 SWAP2 SWAP1 PUSH2 0x4FE JUMP JUMPDEST PUSH1 0x40 MLOAD DUP1 SWAP2 SUB SWAP1 RETURN JUMPDEST PUSH1 0x60 PUSH1 0x4 DUP3 PUSH4 0xFFFFFFFF AND SUB PUSH2 0xAA JUMPI PUSH1 0x40 MLOAD DUP1 PUSH1 0x40 ADD PUSH1 0x40 MSTORE DUP1 PUSH1 0x2 DUP2 MSTORE PUSH1 0x20 ADD PUSH32 0x4956000000000000000000000000000000000000000000000000000000000000 DUP2 MSTORE POP SWAP1 POP PUSH2 0x421 JUMP JUMPDEST PUSH1 0x9 DUP3 PUSH4 0xFFFFFFFF AND SUB PUSH2 0xF5 JUMPI PUSH1 0x40 MLOAD DUP1 PUSH1 0x40 ADD PUSH1 0x40 MSTORE DUP1 PUSH1 0x2 DUP2 MSTORE PUSH1 0x20 ADD PUSH32 0x4958000000000000000000000000000000000000000000000000000000000000 DUP2 MSTORE POP SWAP1 POP PUSH2 0x421 JUMP JUMPDEST PUSH1 0x28 DUP3 PUSH4 0xFFFFFFFF AND SUB PUSH2 0x140 JUMPI PUSH1 0x40 MLOAD DUP1 PUSH1 0x40 ADD PUSH1 0x40 MSTORE DUP1 PUSH1 0x2 DUP2 MSTORE PUSH1 0x20 ADD PUSH32 0x584C000000000000000000000000000000000000000000000000000000000000 DUP2 MSTORE POP SWAP1 POP PUSH2 0x421 JUMP JUMPDEST PUSH1 0x5A DUP3 PUSH4 0xFFFFFFFF AND SUB PUSH2 0x18B JUMPI PUSH1 0x40 MLOAD DUP1 PUSH1 0x40 ADD PUSH1 0x40 MSTORE DUP1 PUSH1 0x2 DUP2 MSTORE PUSH1 0x20 ADD PUSH32 0x5843000000000000000000000000000000000000000000000000000000000000 DUP2 MSTORE POP SWAP1 POP PUSH2 0x421 JUMP JUMPDEST PUSH2 0x190 DUP3 PUSH4 0xFFFFFFFF AND SUB PUSH2 0x1D7 JUMPI PUSH1 0x40 MLOAD DUP1 PUSH1 0x40 ADD PUSH1 0x40 MSTORE DUP1 PUSH1 0x2 DUP2 MSTORE PUSH1 0x20 ADD PUSH32 0x4344000000000000000000000000000000000000000000000000000000000000 DUP2 MSTORE POP SWAP1 POP PUSH2 0x421 JUMP JUMPDEST PUSH2 0x384 DUP3 PUSH4 0xFFFFFFFF AND SUB PUSH2 0x223 JUMPI PUSH1 0x40 MLOAD DUP1 PUSH1 0x40 ADD PUSH1 0x40 MSTORE DUP1 PUSH1 0x2 DUP2 MSTORE PUSH1 0x20 ADD PUSH32 0x434D000000000000000000000000000000000000000000000000000000000000 DUP2 MSTORE POP SWAP1 POP PUSH2 0x421 JUMP JUMPDEST PUSH0 PUSH1 0x40 MLOAD DUP1 PUSH1 0x20 ADD PUSH1 0x40 MSTORE DUP1 PUSH0 DUP2 MSTORE POP SWAP1 POP JUMPDEST PUSH0 DUP4 PUSH4 0xFFFFFFFF AND GT ISZERO PUSH2 0x41C JUMPI PUSH2 0x3E8 DUP4 PUSH4 0xFFFFFFFF AND LT PUSH2 0x28A JUMPI DUP1 PUSH1 0x40 MLOAD PUSH1 0x20 ADD PUSH2 0x264 SWAP2 SWAP1 PUSH2 0x57E JUMP JUMPDEST PUSH1 0x40 MLOAD PUSH1 0x20 DUP2 DUP4 SUB SUB DUP2 MSTORE SWAP1 PUSH1 0x40 MSTORE SWAP1 POP PUSH2 0x3E8 DUP4 PUSH2 0x283 SWAP2 SWAP1 PUSH2 0x5D0 JUMP JUMPDEST SWAP3 POP PUSH2 0x417 JUMP JUMPDEST PUSH2 0x1F4 DUP4 PUSH4 0xFFFFFFFF AND LT PUSH2 0x2D0 JUMPI DUP1 PUSH1 0x40 MLOAD PUSH1 0x20 ADD PUSH2 0x2AA SWAP2 SWAP1 PUSH2 0x62D JUMP JUMPDEST PUSH1 0x40 MLOAD PUSH1 0x20 DUP2 DUP4 SUB SUB DUP2 MSTORE SWAP1 PUSH1 0x40 MSTORE SWAP1 POP PUSH2 0x1F4 DUP4 PUSH2 0x2C9 SWAP2 SWAP1 PUSH2 0x5D0 JUMP JUMPDEST SWAP3 POP PUSH2 0x416 JUMP JUMPDEST PUSH1 0x64 DUP4 PUSH4 0xFFFFFFFF AND LT PUSH2 0x314 JUMPI DUP1 PUSH1 0x40 MLOAD PUSH1 0x20 ADD PUSH2 0x2EF SWAP2 SWAP1 PUSH2 0x678 JUMP JUMPDEST PUSH1 0x40 MLOAD PUSH1 0x20 DUP2 DUP4 SUB SUB DUP2 MSTORE SWAP1 PUSH1 0x40 MSTORE SWAP1 POP PUSH1 0x64 DUP4 PUSH2 0x30D SWAP2 SWAP1 PUSH2 0x5D0 JUMP JUMPDEST SWAP3 POP PUSH2 0x415 JUMP JUMPDEST PUSH1 0x32 DUP4 PUSH4 0xFFFFFFFF AND LT PUSH2 0x358 JUMPI DUP1 PUSH1 0x40 MLOAD PUSH1 0x20 ADD PUSH2 0x333 SWAP2 SWAP1 PUSH2 0x6C3 JUMP JUMPDEST PUSH1 0x40 MLOAD PUSH1 0x20 DUP2 DUP4 SUB SUB DUP2 MSTORE SWAP1 PUSH1 0x40 MSTORE SWAP1 POP PUSH1 0x32 DUP4 PUSH2 0x351 SWAP2 SWAP1 PUSH2 0x5D0 JUMP JUMPDEST SWAP3 POP PUSH2 0x414 JUMP JUMPDEST PUSH1 0xA DUP4 PUSH4 0xFFFFFFFF AND LT PUSH2 0x39C JUMPI DUP1 PUSH1 0x40 MLOAD PUSH1 0x20 ADD PUSH2 0x377 SWAP2 SWAP1 PUSH2 0x70E JUMP JUMPDEST PUSH1 0x40 MLOAD PUSH1 0x20 DUP2 DUP4 SUB SUB DUP2 MSTORE SWAP1 PUSH1 0x40 MSTORE SWAP1 POP PUSH1 0xA DUP4 PUSH2 0x395 SWAP2 SWAP1 PUSH2 0x5D0 JUMP JUMPDEST SWAP3 POP PUSH2 0x413 JUMP JUMPDEST PUSH1 0x5 DUP4 PUSH4 0xFFFFFFFF AND LT PUSH2 0x3E0 JUMPI DUP1 PUSH1 0x40 MLOAD PUSH1 0x20 ADD PUSH2 0x3BB SWAP2 SWAP1 PUSH2 0x759 JUMP JUMPDEST PUSH1 0x40 MLOAD PUSH1 0x20 DUP2 DUP4 SUB SUB DUP2 MSTORE SWAP1 PUSH1 0x40 MSTORE SWAP1 POP PUSH1 0x5 DUP4 PUSH2 0x3D9 SWAP2 SWAP1 PUSH2 0x5D0 JUMP JUMPDEST SWAP3 POP PUSH2 0x412 JUMP JUMPDEST DUP1 PUSH1 0x40 MLOAD PUSH1 0x20 ADD PUSH2 0x3F1 SWAP2 SWAP1 PUSH2 0x7A4 JUMP JUMPDEST PUSH1 0x40 MLOAD PUSH1 0x20 DUP2 DUP4 SUB SUB DUP2 MSTORE SWAP1 PUSH1 0x40 MSTORE SWAP1 POP PUSH1 0x1 DUP4 PUSH2 0x40F SWAP2 SWAP1 PUSH2 0x5D0 JUMP JUMPDEST SWAP3 POP JUMPDEST JUMPDEST JUMPDEST JUMPDEST JUMPDEST JUMPDEST PUSH2 0x236 JUMP JUMPDEST DUP1 SWAP2 POP POP JUMPDEST SWAP2 SWAP1 POP JUMP JUMPDEST PUSH0 PUSH0 REVERT JUMPDEST PUSH0 PUSH4 0xFFFFFFFF DUP3 AND SWAP1 POP SWAP2 SWAP1 POP JUMP JUMPDEST PUSH2 0x442 DUP2 PUSH2 0x42A JUMP JUMPDEST DUP2 EQ PUSH2 0x44C JUMPI PUSH0 PUSH0 REVERT JUMPDEST POP JUMP JUMPDEST PUSH0 DUP2 CALLDATALOAD SWAP1 POP PUSH2 0x45D DUP2 PUSH2 0x439 JUMP JUMPDEST SWAP3 SWAP2 POP POP JUMP JUMPDEST PUSH0 PUSH1 0x20 DUP3 DUP5 SUB SLT ISZERO PUSH2 0x478 JUMPI PUSH2 0x477 PUSH2 0x426 JUMP JUMPDEST JUMPDEST PUSH0 PUSH2 0x485 DUP5 DUP3 DUP6 ADD PUSH2 0x44F JUMP JUMPDEST SWAP2 POP POP SWAP3 SWAP2 POP POP JUMP JUMPDEST PUSH0 DUP2 MLOAD SWAP1 POP SWAP2 SWAP1 POP JUMP JUMPDEST PUSH0 DUP3 DUP3 MSTORE PUSH1 0x20 DUP3 ADD SWAP1 POP SWAP3 SWAP2 POP POP JUMP JUMPDEST DUP3 DUP2 DUP4 MCOPY PUSH0 DUP4 DUP4 ADD MSTORE POP POP POP JUMP JUMPDEST PUSH0 PUSH1 0x1F NOT PUSH1 0x1F DUP4 ADD AND SWAP1 POP SWAP2 SWAP1 POP JUMP JUMPDEST PUSH0 PUSH2 0x4D0 DUP3 PUSH2 0x48E JUMP JUMPDEST PUSH2 0x4DA DUP2 DUP6 PUSH2 0x498 JUMP JUMPDEST SWAP4 POP PUSH2 0x4EA DUP2 DUP6 PUSH1 0x20 DUP7 ADD PUSH2 0x4A8 JUMP JUMPDEST PUSH2 0x4F3 DUP2 PUSH2 0x4B6 JUMP JUMPDEST DUP5 ADD SWAP2 POP POP SWAP3 SWAP2 POP POP JUMP JUMPDEST PUSH0 PUSH1 0x20 DUP3 ADD SWAP1 POP DUP2 DUP2 SUB PUSH0 DUP4 ADD MSTORE PUSH2 0x516 DUP2 DUP5 PUSH2 0x4C6 JUMP JUMPDEST SWAP1 POP SWAP3 SWAP2 POP POP JUMP JUMPDEST PUSH0 DUP2 SWAP1 POP SWAP3 SWAP2 POP POP JUMP JUMPDEST PUSH0 PUSH2 0x532 DUP3 PUSH2 0x48E JUMP JUMPDEST PUSH2 0x53C DUP2 DUP6 PUSH2 0x51E JUMP JUMPDEST SWAP4 POP PUSH2 0x54C DUP2 DUP6 PUSH1 0x20 DUP7 ADD PUSH2 0x4A8 JUMP JUMPDEST DUP1 DUP5 ADD SWAP2 POP POP SWAP3 SWAP2 POP POP JUMP JUMPDEST PUSH32 0x4D00000000000000000000000000000000000000000000000000000000000000 DUP2 MSTORE POP JUMP JUMPDEST PUSH0 PUSH2 0x589 DUP3 DUP5 PUSH2 0x528 JUMP JUMPDEST SWAP2 POP PUSH2 0x594 DUP3 PUSH2 0x558 JUMP JUMPDEST PUSH1 0x1 DUP3 ADD SWAP2 POP DUP2 SWAP1 POP SWAP3 SWAP2 POP POP JUMP JUMPDEST PUSH32 0x4E487B7100000000000000000000000000000000000000000000000000000000 PUSH0 MSTORE PUSH1 0x11 PUSH1 0x4 MSTORE PUSH1 0x24 PUSH0 REVERT JUMPDEST PUSH0 PUSH2 0x5DA DUP3 PUSH2 0x42A JUMP JUMPDEST SWAP2 POP PUSH2 0x5E5 DUP4 PUSH2 0x42A JUMP JUMPDEST SWAP3 POP DUP3 DUP3 SUB SWAP1 POP PUSH4 0xFFFFFFFF DUP2 GT ISZERO PUSH2 0x601 JUMPI PUSH2 0x600 PUSH2 0x5A3 JUMP JUMPDEST JUMPDEST SWAP3 SWAP2 POP POP JUMP JUMPDEST PUSH32 0x4400000000000000000000000000000000000000000000000000000000000000 DUP2 MSTORE POP JUMP JUMPDEST PUSH0 PUSH2 0x638 DUP3 DUP5 PUSH2 0x528 JUMP JUMPDEST SWAP2 POP PUSH2 0x643 DUP3 PUSH2 0x607 JUMP JUMPDEST PUSH1 0x1 DUP3 ADD SWAP2 POP DUP2 SWAP1 POP SWAP3 SWAP2 POP POP JUMP JUMPDEST PUSH32 0x4300000000000000000000000000000000000000000000000000000000000000 DUP2 MSTORE POP JUMP JUMPDEST PUSH0 PUSH2 0x683 DUP3 DUP5 PUSH2 0x528 JUMP JUMPDEST SWAP2 POP PUSH2 0x68E DUP3 PUSH2 0x652 JUMP JUMPDEST PUSH1 0x1 DUP3 ADD SWAP2 POP DUP2 SWAP1 POP SWAP3 SWAP2 POP POP JUMP JUMPDEST PUSH32 0x4C00000000000000000000000000000000000000000000000000000000000000 DUP2 MSTORE POP JUMP JUMPDEST PUSH0 PUSH2 0x6CE DUP3 DUP5 PUSH2 0x528 JUMP JUMPDEST SWAP2 POP PUSH2 0x6D9 DUP3 PUSH2 0x69D JUMP JUMPDEST PUSH1 0x1 DUP3 ADD SWAP2 POP DUP2 SWAP1 POP SWAP3 SWAP2 POP POP JUMP JUMPDEST PUSH32 0x5800000000000000000000000000000000000000000000000000000000000000 DUP2 MSTORE POP JUMP JUMPDEST PUSH0 PUSH2 0x719 DUP3 DUP5 PUSH2 0x528 JUMP JUMPDEST SWAP2 POP PUSH2 0x724 DUP3 PUSH2 0x6E8 JUMP JUMPDEST PUSH1 0x1 DUP3 ADD SWAP2 POP DUP2 SWAP1 POP SWAP3 SWAP2 POP POP JUMP JUMPDEST PUSH32 0x5600000000000000000000000000000000000000000000000000000000000000 DUP2 MSTORE POP JUMP JUMPDEST PUSH0 PUSH2 0x764 DUP3 DUP5 PUSH2 0x528 JUMP JUMPDEST SWAP2 POP PUSH2 0x76F DUP3 PUSH2 0x733 JUMP JUMPDEST PUSH1 0x1 DUP3 ADD SWAP2 POP DUP2 SWAP1 POP SWAP3 SWAP2 POP POP JUMP JUMPDEST PUSH32 0x4900000000000000000000000000000000000000000000000000000000000000 DUP2 MSTORE POP JUMP JUMPDEST PUSH0 PUSH2 0x7AF DUP3 DUP5 PUSH2 0x528 JUMP JUMPDEST SWAP2 POP PUSH2 0x7BA DUP3 PUSH2 0x77E JUMP JUMPDEST PUSH1 0x1 DUP3 ADD SWAP2 POP DUP2 SWAP1 POP SWAP3 SWAP2 POP POP JUMP INVALID LOG2 PUSH5 0x6970667358 0x22 SLT KECCAK256 PUSH15 0xF50FEFE4EA966FCDDAA37620720D50 LOG1 ADDMOD 0xC7 DUP13 0xBA 0xB6 ADDRESS SWAP1 DUP1 PUSH18 0x153FF45B795C64736F6C634300081E003300 "
		},
		"gasEstimates": {
			"creation": {
				"codeDepositCost": "409400",
				"executionCost": "441",
				"totalCost": "409841"
			},
			"external": {
				"intToRoman(uint32)": "infinite"
			}
		},
		"methodIdentifiers": {
			"intToRoman(uint32)": "fb3b7896"
		}
	},
	"abi": [
		{
			"inputs": [
				{
					"internalType": "uint32",
					"name": "num",
					"type": "uint32"
				}
			],
			"name": "intToRoman",
			"outputs": [
				{
					"internalType": "string",
					"name": "",
					"type": "string"
				}
			],
			"stateMutability": "pure",
			"type": "function"
		}
	]
}